:1000000000800010850D0000B50D0000B70D000048
:10001000B90D0000BB0D0000BD0D00000000000088
:10002000000000000000000000000000BF0D000004
:10003000C10D000000000000C30D0000C50D000050
:10004000C70D0000C70D0000C70D0000C70D000060
:10005000C70D0000C70D0000C70D0000C70D000050
:10006000C70D0000C70D0000C70D0000C70D000040
:10007000C70D0000C70D0000C70D0000C70D000030
:10008000C70D0000C70D0000C70D0000C70D000020
:10009000C70D0000C70D0000C70D0000C70D000010
:1000A000C70D0000C70D0000C70D0000C70D000000
:1000B000C70D0000C70D0000C70D0000C70D0000F0
:1000C000C70D0000C70D0000C70D000010B5054C9E
:1000D000237833B9044B13B10448AFF300800123F4
:1000E000237010BD7C0100100000000010720000A1
:1000F00008B5064B1BB106480649AFF30080064819
:10010000036813B1054B03B1984708BD0000000018
:1001100010720000800100107C010010000000003F
:10012000154B002B08BF134B9D46A3F5803A0021C9
:100130008B460F461348144A121A01F05DFC0F4B10
:10014000002B00D098470E4B002B00D09847002082
:10015000002104000D000D48002802D00C48AFF328
:10016000008001F09DFB2000290000F013F800F052
:100170005DFF00BF000008000080001000000000CC
:10018000000000007C010010DC03001000000000F3
:100190000000000038B5174C2368013304D116481D
:1001A00016492C2200F0C6FE63691D6863681D4075
:1001B0002368013304D110481049242200F0BAFE0C
:1001C0000DB9E36800E0236962680D481A6001F028
:1001D00093F9044605F028FD02460B46094801F054
:1001E000ABFC2146084801F037F94FF07E5001F092
:1001F000D3F8D0E7A801001040690000586900005A
:10020000C8010010DA690000A001001070B5114C9F
:10021000114D20461149124A00F048FE1822284686
:10022000002101F0E9FB28460E4900F05AFF214663
:1002300090220D4801F0D3F8214690220B4801F09E
:1002400023F921460A4803229023BDE8704001F0BB
:1002500069B900BFC0010010A80100100AC0092040
:100260000BC0092034C0092098010010A001001023
:10027000C8010010431C10B5044604D106480749C4
:10028000152200F057FE2046002100F041F904F04D
:100290001F040120A04010BD45690000E169000075
:1002A00038B504464B1C0D4621600FD00846FFF7B9
:1002B000E1FF25F01F0505F11803E36005F11C03BC
:1002C000236105F1140360606361A56038BD0068B7
:1002D00000F046B938B50368044601330D4604D131
:1002E0000A480B492C2200F025FE15B1012D06D03D
:1002F00038BDA36861681A6822EA010203E0A368B6
:10030000626819680A431A6038BD00BF406900007E
:10031000E16900000168054B0A68120704D4013B3B
:10032000FAD14FF0FF30704700207047A1860100DE
:1003300010B5036808229960036804469A61FFF7C4
:10034000E9FF2368586810BD10B503683C229A6124
:100350000368242204461A60FFF7DCFF236820228A
:1003600058689A6110BD0000036810221A60036883
:1003700008229A610268054B106810F0100003D043
:10038000013BF9D101207047704700BFA1860100F1
:10039000054B49001B689B08B3FBF1F103685961E9
:1003A00003681961704700BFC8000010F8B5044623
:1003B0000E4608462349154600F0D2FE224907465C
:1003C000284600F0CDFE0146384600F0ABFE206026
:1003D000013004D11D481E49632200F0ABFD2368A3
:1003E0001C4A93420DD002F5882293420FD0A2F509
:1003F0000422934212D1184BD3F8C42042F0800259
:100400000AE0154BD3F8C42042F4002204E0124B5A
:10041000D3F8C42042F08062C3F8C42020460F49BC
:10042000FFF7B6FF23683C229A61236840223046DA
:100430001A60044900F05AFE28460349BDE8F84016
:1004400000F054BE606A0000306B00009C6A00003F
:10045000B06A000000C0054000C00F40A086010047
:10046000F8B504460D4617461E46FFF76DFF1028E7
:1004700007D0082805D02046FFF776FF6FF001006F
:10048000F8BD204605F0FE01FFF752FF182801D104
:10049000002506E02046FFF767FF4FF0FF30F8BD6C
:1004A0000135B5420ADA2046795DFFF741FF282879
:1004B000F6D02046FFF758FF2846F8BD069B13B13B
:1004C0002046FFF751FF3046F8BD10B50422044620
:1004D000036809B19A6100E01A60236808229A61F2
:1004E0002046FFF717FF23689868C0B210BD08B513
:1004F000C9B2FFF71DFF282806D001DC182802E04A
:10050000402801D0B82801D1012008BD002008BD35
:1005100038B5431C04460D4604D10F480F49152237
:1005200000F008FD04F16040A0F51C2000F00F026F
:1005300052000321914005FA02F203099B0003F1E6
:10054000804303F53033186820EA01011960196807
:100550000A431A6038BD00BF456900006C6B00009B
:1005600038B5431C05460C4604D1194819492022C8
:1005700000F0E0FC05F16040A0F51C20C4F380020F
:1005800000F01F0102FA01F143099B0003F18043CF
:1005900003F530339D6E25EA01059D669D6E294366
:1005A00099669AB900F00F0252000321914004FAB3
:1005B00002F203099B0003F1804303F53033186C0A
:1005C00020EA01011964196C0A431A6438BD00BF9E
:1005D000456900006C6B0000012810B50B4602D085
:1005E00002280FD010BD014638204343124AD0588C
:1005F000D418F8B111B994F83630DBB10F4B1B6841
:10060000984710BD0C49382000FB031044680134A2
:1006100009D00469043040682060382000FB0311D1
:1006200091F8361009B10021DEE7506820F0010092
:100630005060D9E710BD00BFD8010010D4010010F0
:10064000034A00219068C0F34200FFF7C5BF00BF16
:1006500000C00040034A01219068C0F34200FFF748
:10066000BBBF00BF00000140034A02219068C0F3F5
:100670004200FFF7B1BF00BF00800940034A0321D9
:100680009068C0F34200FFF7A7BF00BF00C0094059
:1006900070B5294C0368A34211D006DCA4F5804450
:1006A000A34212D1254C052511E0254CA34209D0C7
:1006B00004F58044A34208D1224C082507E0224CCF
:1006C000062504E0214C072501E0002425467AB1E7
:1006D000012606FA01F16DB2284606FA05F55A68B8
:1006E00011435960214600F06FFB194B1D6070BD2E
:1006F00001290AD04468174A382606FB042292F8DA
:10070000354030329279E24215D1012202FA01F6E7
:10071000D1F1010138BF002102FA01F15C6824EA3D
:1007200006045C6003685B68194204D102FA05F5AF
:10073000074BC3F8805070BD000001404106000027
:10074000008009407D060000550600006906000093
:1007500000E100E0D80100102DE9F04F694A03687C
:1007600087B0934205460C4604DD674867499B22E3
:1007700000F0E0FB2B68664A934223D00FDCA2F521
:100780008042934239D1634BD3F8A82122F0C002B2
:10079000C3F8A821D3F8A82142F040021DE05E4A28
:1007A00093421DD002F58042934226D1594BD3F893
:1007B000AC2122F44022C3F8AC21D3F8AC2142F49E
:1007C000802218E0534BD3F8A82122F44072C3F8DA
:1007D000A821D3F8A82142F48072C3F8A8210CE024
:1007E0004C4BD3F8AC2122F44032C3F8AC21D3F8FF
:1007F000AC2142F48032C3F8AC21484B2701D3F836
:100800000090B9FBF7F307FB13971FFA83FC002F47
:1008100057D0012100208DE80300A2464E460294E5
:100820007300B700CAB204930597D0460020049F16
:10083000C3B2002F039303DAB7FBF8F31B0904E0FC
:10084000DDF814B0BBFBF8F35B090133C3F34F03CE
:10085000039F002B08BF012317B1012B98BF022370
:1008600000EB010B0BFB03FB4FEACB0BB6FBFBFBD7
:100870000BF1010BC4EB5B0B029FBBF1000FB8BF88
:10088000CBF1000BBB4507DAA3450DD0039FCDF894
:1008900008B0019200979C460130C3B29342A04435
:1008A000C5D3019A002304E003989C46029400906B
:1008B00001230F2907D001314E44A2441BB90192F4
:1008C000AEE7012200972B68DDF800B0197B4BEAF8
:1008D000021241F0800119732B68CCF307211971C2
:1008E0002B685FFA8CFC83F800C02B68D2B283F8C7
:1008F00028202B681A7B02F07F021A7307B0BDE82C
:10090000F08F00BF00C009407C6C0000956C0000B7
:100910000000014000C00F4000800940C8000010E6
:10092000F8B55D1E012D07460C46164604D914483D
:100930001449FB2200F0FEFA053C032C04D91248AE
:100940001049FC2200F0F6FA042E04D90F480D4994
:10095000FE2200F0EFFA013EF6B2032E03D80C4B54
:100960009A57012301E00022134644EA850444EA31
:10097000C303396843EA0212D2B20A73F8BD00BF5A
:10098000166D0000956C00003B6D00005E6D000070
:10099000F26D000010B502680346117DC907FCD551
:1009A00010785968084A382404FB01225168C0B203
:1009B000013108D05169043252680A601B685A68D4
:1009C00042F001025A6010BDD801001038B54368EA
:1009D00038215943164A04465318D869013015D0B6
:1009E00001F1180313441D1D5B68013304D1114844
:1009F00011492C2200F09EFA6B691A686B681A4242
:100A000014D12368187DC0F3801038BD22683033BC
:100A1000127D12F0200F03D000221A71012038BD80
:100A200018790F288CBF0020012038BD002038BD68
:100A3000D8010010406900005869000038B504462C
:100A40000D462046FFF7C2FF0028FAD02368EDB21A
:100A50001D706368044A382101FB032393F8342096
:100A6000013283F8342038BDD80100102DE9F84F49
:100A700098463A4C03680546A34218BF00240E4628
:100A80001746D0F804901CB1237C03F03F03237475
:100A9000DFF8D4A0382303FB09A24FF0FF31D16166
:100AA00051606A68002103FB02A3284683F83510D1
:100AB0000A46FFF7EDFD002E4ED02949384600F0DA
:100AC00043FB28498346404600F03EFBB31E012B02
:100AD00017D8B8F1FF3F3DD0204B984209D144B11F
:100AE000237C404643F0800323741E4900F0FEFA45
:100AF00030E0382000FB09A041461C3000F0D7FA56
:100B000028E0012E28D17B1C26D02B6807221A72E0
:100B1000124B9B450AD14CB1237C384643F040032D
:100B200023740F49BDE8F84F00F0E0BA382404FB05
:100B300009A039460430002200F0BCFA6B6801229B
:100B400004FB03A484F8352028460021BDE8F84FB3
:100B5000FFF79EBD032ED5E7BDE8F88F00000140EA
:100B6000EC6B0000646E0000D80100102DE9F84322
:100B700004460F4608464D49164600F0F1FA4C4926
:100B80000546304600F0ECFA0146284600F0CAFA65
:100B9000411C054604D1474847495C2200F0CAF988
:100BA000464B25609D4217D009D8A3F580439D424E
:100BB0001FD1434BD3F8C42042F0080217E0414B49
:100BC0009D420FD003F580439D4212D13C4BD3F898
:100BD000C42042F000720AE0394BD3F8C42042F03E
:100BE000100204E0364BD3F8C42042F08072C3F800
:100BF000C42023684FF0010983F8089023684FF060
:100C00000008C3F8048020464FF41651FFF7A4FDF6
:100C100042464B4620460821FFF782FE38462349CC
:100C200000F064FA3046224900F060FA7A1C03D0E2
:100C300038464146FFF794FC731C03D03046002130
:100C4000FFF78EFC1D4B9D420FD005D8A3F58043C6
:100C50009D420ED100230BE01A4B9D4207D003F5B5
:100C600080439D4205D1032302E0012300E00223DB
:100C700063606268144B382101FB02304FF0FF3291
:100C80004260606801FB00332046DA6100211346B0
:100C9000FFF7ECFE0D4B9D4206D10D4B01221A6071
:100CA00020680C4B616803C3BDE8F883F86D000051
:100CB000106C0000E26D0000956C00000000014027
:100CC00000C00F4000800940D801001000C0004063
:100CD000D0010010B802001008B5114B1A68EAB92B
:100CE000012119600F4BD3F8C40040F40000C3F891
:100CF000C400A3F5D0231A670B4A0220126858607B
:100D00000A489208B2FBF0F2013ADA600420596016
:100D1000074900F059F8074B10221A6008BD00BFC0
:100D2000C002001000C00F40C800001040420F0079
:100D30002913000000E100E008B5044B1B680BB963
:100D4000FFF7CAFF024B986808BD00BFC002001041
:100D500000400940034B98615A6942F001025A6110
:100D6000704700BF00400940024B5A6922F001025F
:100D70005A61704700400940014B01221A607047D8
:100D8000004009400649074A074B9A42BEBF51F846
:100D9000040B42F8040BF8E7044880470448004776
:100DA0001C720000C80000107C010010090E000039
:100DB00021010000FEE7FEE7FEE7FEE7FEE7FEE7B3
:100DC000FEE7FEE7FEE7FEE710B50C4A946892687E
:100DD0002346B2F1805F0DD2094B04F17042043218
:100DE000D25843F8042F074A9342F6D1034A4FF0F2
:100DF00080539360103043F8201010BD00ED00E0E8
:100E0000FCFFFF0FC0000010264B2022C3F8A021DA
:100E1000D3F8A021910603D5D3F8A0215206FBD523
:100E20000222C3F804210022C3F8A8210120C3F83C
:100E3000AC210B22C3F80C01AA21C3F8842055224F
:100E4000C3F88C10C3F88C20C3F88000C3F88C1052
:100E5000C3F88C20134AD2F888305B01FAD50323FB
:100E6000C2F88030AA23C2F88C305523C2F88C30E7
:100E7000D2F888100B4B11F0407FF9D00522C3F84F
:100E80000821094AC3F8C4200022C3F8C8211A68FF
:100E900022F4704222F03A0242F4405242F03A0206
:100EA0001A60704700C00F40DE87280410B5DFF8D5
:100EB0001CE0002380E808400446FFF777FA024B65
:100EC00020461C6010BD00BFC4020010A0860100B7
:100ED00038B5054D04462B68834203D04168FFF7BF
:100EE00057FA2C6038BD00BFC4020010F7B51C468D
:100EF00005460F461646FFF7EBFF9DF820302846C3
:100F000083F001030093394632462346FFF7A8FADF
:100F1000201A18BF012003B0F0BDFFF7E8BA09B1ED
:100F2000002100E00121FFF7D0BAFFF70DBAFFF76B
:100F30001BBA000013B50B46064904460968009227
:100F4000C8682246044900F07BFC02B0BDE81040AE
:100F500000F01AB830010010886E000038B5036840
:100F6000044601330D4604D1054806492422FFF703
:100F7000E1FF63680DB1E26800E02269136038BDEB
:100F8000406900005869000000B599B072B61B496D
:100F9000684600F0A6F806A8194900F0A2F80CA8C7
:100FA000184900F09EF812A8174900F09AF8684610
:100FB0000121FFF7D3FF06A80021FFF7CFFF0CA800
:100FC0000021FFF7CBFF12A80121FFF7C7FF9620F2
:100FD00000F0EEF968460021FFF7C0FF06A80121E6
:100FE000FFF7BCFF0CA80121FFF7B8FF12A80021F2
:100FF000FFF7B4FF962000F0DBF9D8E732C00920F4
:1010000034C0092035C0092037C009200FB407B506
:10101000054B04AA1B6852F8041BD868019201F022
:10102000ADF8012000F002F83001001008B50A4CBC
:1010300005462368986800F033FB2368D86800F001
:101040002FFB00F051F808B100F05AF905B9FEE79E
:10105000FFF79AFFFBE700BF3001001038B50368C7
:10106000044601330D4604D1054806492422FFF702
:1010700061FF63680DB1E26800E02269136038BD6A
:10108000406900005869000070B50E4604461546D8
:10109000FFF706F9013609D020460021FFF71AF9BB
:1010A00020462946BDE87040FFF711B970BD032204
:1010B000FFF7EABF70B50D4604461646FFF7F0F895
:1010C00001350DD020463146FFF7C8FF20460121EB
:1010D000FFF700F920460221BDE87040FFF7F7B89E
:1010E00070BD0022FFF7E6BF00F016B910B5044648
:1010F000013001D110BD0C310B685A1C0BD0A3423A
:10110000F9D120468968FFF703FA20460221BDE89D
:101110001040FFF725BA0248BDE81040FFF776BF40
:10112000B96E0000884208B50AD0431C07D00131CF
:1011300006D00448FFF76AFF4FF0FF3008BD0846AD
:1011400008BD00BFCA6E00000B685A1C05D0834260
:1011500001D1486870470C31F6E718467047000027
:10116000421C10B5044607D0FFF7EEFF431C0446AF
:1011700002D10248FFF74AFF204610BDDB6E000097
:10118000044B1B6823B904480449054AFFF7EEBC29
:10119000704700BFD0010010B802001002C0092043
:1011A00003C00920022808B54FF000030ADD084AF1
:1011B000C11E52F8210042F8213028B103685B6853
:1011C000984708BD184608BD4FF0FF3008BD00BF66
:1011D000C8020010022870B50C4615460FDC0E4BF5
:1011E0001B680BB9FFF7CCFF6619B44205D00B485A
:1011F00014F8011BFFF722FCF7E7284670BD084BE7
:10120000033853F8200018B103681B68984770BD75
:101210004FF0FF3070BD00BFD0010010B8020010C9
:10122000C8020010022810B50C460ADC0B4B1B68E4
:101230000BB9FFF7A5FF0A48FFF7ACFB20700120B0
:1012400010BD084B033853F8200018B103689B68A1
:10125000984710BD4FF0FF3010BD00BFD001001007
:10126000B8020010C8020010022808B508DD074BBC
:10127000033853F8200028B10368DB68984708BD9D
:10128000012008BD4FF0FF3008BD00BFC8020010AC
:10129000022808B508DD074B033853F8200028B1B1
:1012A00003681B69984708BD002008BD4FF0FF3058
:1012B00008BD00BFC8020010022808B504D84FF4CA
:1012C00000534B60002008BD00F036F9092303608D
:1012D0004FF0FF3008BD0000074A13681844EFF3D1
:1012E0000881884205D3054B0C221A604FF0FF306D
:1012F0007047106018467047CC000010D8030010EB
:1013000030B585B06D46182420462946ABBE04464C
:10131000204605B030BD0000024B186800F0010007
:10132000704700BFF0ED00E070B5FFF725FD124EED
:1013300033681BB9BDE87040FFF716BDD3E900451F
:10134000FFF7FAFC221A65F100031046194601283E
:1013500071F1000309DA3268D3683360074B1B6808
:10136000002BE4D090689847E1E73368BDE870400F
:10137000D3E90001FFF7EEBCC8030010CC03001056
:1013800038B50446FFF7D8FC0546FFF7D5FC401BEF
:10139000A042FAD338BD000008B5044905F0D8F8DA
:1013A00005F09CFABDE80840FFF7EABF0024744945
:1013B0004FF47A735843FFF7E3BF1FB540234371DF
:1013C0008DF808300023017900938DF8093002AAC6
:1013D00002230068FFF78AFD05B05DF804FB10B535
:1013E000044601600271FFF7E8FF204610BD0000CF
:1013F00030B5437985B004460D46084600218DF886
:10140000083005F043FA08B1002306E028464FF003
:101410007E5105F04FFA18B1FF238DF809300BE02B
:10142000284604F001FC0AA3D3E9002304F050FC91
:1014300004F010FF8DF80900002300932179206843
:1014400002AA0223FFF752FD05B030BDAFF30080C2
:101450000000000000E06F4010B50446FFF7C8FF31
:10146000204610BD1FB5402343718DF8083000237E
:10147000017900938DF8093002AA02230068FFF772
:1014800035FD05B05DF804FB10B50446016002713E
:10149000FFF7E8FF204610BD38B5044645790068DF
:1014A000FFF743FD21792068FFF737FD29462068C3
:1014B000FFF733FD2068FFF73AFD2068FFF735FDA1
:1014C0002179206841F00101FFF727FD2068012103
:1014D000FFF725FD00212068FFF721FD0546206864
:1014E000FFF725FDE8B204F0DBFF024905F0E4F860
:1014F00038BD00BF00007F43FFF7CEBF1FB5837923
:1015000004AA03F0030343F04003437102F8083DCB
:1015100000230179009300680123FFF7E7FC05B081
:101520005DF804FB10B50446016003718271FFF79A
:10153000E5FF204610BD0000014B1868704700BF52
:10154000300100108A892DE9F041054610070C464C
:1015500057D44B68002B02DC0B6C002B18DDE66ABD
:10156000B6B102F48052002392B22F682B600AB108
:10157000626D10E0216A28460123B047411C0246F3
:1015800009D12B683BB11D2B01D0162B46D12F6002
:101590000020BDE8F081A3895B0705D56368D21AF6
:1015A000636B0BB1236CD21AE66A2846216A0023CA
:1015B000B047461CA28905D12B681BB11D2B01D059
:1015C000162B19D1002363602369D104236004D54D
:1015D000421C01D12B6803B96065616B2F60002943
:1015E000D6D004F14403994202D0284600F00CFA08
:1015F00000206063BDE8F08142F04002A281BDE8B6
:10160000F0810E69002EC3D00B680E60C6EB030894
:1016100093070CBF4B6900238B6012E0A3894FF046
:10162000FF3043F04003A381BDE8F081A76A28465C
:10163000216A32464346B8470028EFDD0644C0EB36
:101640000808B8F1000FF1DCA2E7000038B50B691B
:1016500005460C46DBB118B183690BB900F086F87A
:101660000C4B9C4201D16C6808E00B4B9C4201D1B1
:10167000AC6803E0094B9C4208BFEC68B4F90C303D
:101680002BB128462146BDE83840FFF75BBF00205C
:1016900038BD00BFFC6E00001C6F00003C6F0000F6
:1016A000014620B9044B0549186800F0DBB8044B2B
:1016B0001868FFF7CBBF00BF5C6F00004D1600003D
:1016C00030010010F8B5074600F1480494B1A56850
:1016D0006668013E0CD4AB89012B07D9B5F90E30F1
:1016E000013303D038462946FFF7B0FF6835F0E7ED
:1016F0002468EBE7F8BD0000002310B50446036042
:101700004360836081814366C28103614361836179
:1017100019465C30082200F06FF9054B24626362C1
:10172000044BA362044BE362044B236310BD00BF70
:10173000D11B0000F31B00002B1C00004F1C0000FD
:1017400070B54B1E68255D430E4605F1740100F02F
:101750009FF9044640B1002180E842000C30A060AF
:1017600005F1680200F048F9204670BD836910B5A4
:10177000044633BB8364C3640365124B124A1B687F
:101780008262984204BF0123836100F01FF8606009
:10179000204600F01BF8A060204600F017F8042156
:1017A000E06000226068FFF7A7FFA068092101221E
:1017B000FFF7A2FFE06812210222FFF79DFF01233D
:1017C000A36110BD5C6F0000C5160000F8B51B4B8F
:1017D00007461E68B36913B93046FFF7C7FF48369E
:1017E000B4687368013B04D4B4F90C5075B1683423
:1017F000F8E733682BB938460421FFF7A1FF3060C2
:1018000008B13668ECE70C233B60F8BD4FF6FF7378
:10181000E3810123A38165662560A560656025617C
:101820006561A56104F15C002946082200F0E4F836
:101830006563A563A564E5642046F8BD5C6F0000A0
:101840000EB403B5014603AB054853F8042B0068FA
:10185000019300F08FFB02B05DF804EB03B070471A
:10186000300100102DE9F8438046894600F1480414
:10187000002694B1A5686768013F0CD4AB89012BA1
:1018800007D9B5F90E30013303D040462946C84781
:1018900006436835F0E72468EBE73046BDE8F88397
:1018A00070B50E4B0E4D0024ED1AAD101E46AC4225
:1018B00004D056F8242090470134F8E705F034F8B6
:1018C000084D094B0024ED1AAD101E46AC4204D061
:1018D00056F8242090470134F8E770BD70010010DD
:1018E000700100107801001070010010F0B58B89B4
:1018F00091B09E0705460C4625D4B1F90E1000297B
:1019000008DAA389002713F0800F14BF40264FF494
:1019100080660DE001AA02F087F90028F1DB029F42
:101920004FF4806607F47047B7F500514F424F41BE
:101930002846314600F0ACF860B9A3899A051DD459
:1019400043F00203A38104F14703236023610123D1
:10195000636113E00A4BAB62A389206043F080030C
:10196000A381206166614FB12846B4F90E1002F0E0
:101970006DF918B1A38943F00103A38111B0F0BD43
:10198000C5160000024B0146186800F081B800BF80
:101990003001001010B5C9B202449042034605D090
:1019A0001C7801308C42F8D1184610BD002010BDC3
:1019B00010B50023934203D0CC5CC4540133F9E743
:1019C00010BD814270B501D300230EE08C18A042F7
:1019D000FAD28518134613F1FF3305D35142661826
:1019E000F65C2944CE54F6E770BD934203D0CC5C3C
:1019F000C4540133F9E770BD02440346934202D058
:101A000003F8011BFAE7704730B500293CD051F8C4
:101A1000042C0B1F1D49002AB8BF9B180A680C46EE
:101A200012B95A600B6030BD93420DD21968581834
:101A3000904203D15A581144426819605A60236099
:101A400030BD994203D80A4651680029F9D114687B
:101A500015199D420AD11B682344D018884213608F
:101A600012D10868034413604B680CE002D90C23C0
:101A7000036030BD18681C188C4203D10C6849689B
:101A8000204418605960536030BD00BFD40300107B
:101A900070B5CD1C25F0030508350C2D38BF0C257D
:101AA000002D06463FDB8D423DD3214B1C68184676
:101AB0002146A1B10B685B1B0ED40B2B03D90B6025
:101AC000CC18CD501FE08C4202D1626802601AE04F
:101AD0004B6863600C4616E00C464968E9E7154C14
:101AE00023681BB9304600F03FF820602946304695
:101AF00000F03AF8431C014615D0C41C24F003043E
:101B000084420AD1256004F10B00231D20F0070058
:101B1000C31A0BD05A42E25070BD3046611A00F031
:101B200023F80130EED10C233360002070BD00BFDC
:101B3000D4030010D00300100FB40A4B13B51C6877
:101B400024B1A36913B92046FFF710FE05AB204668
:101B5000A168049A019300F00DFA02B0BDE81040AC
:101B600004B070473001001038B5064C002305461C
:101B700008462360FFF7B0FB431C02D1236803B182
:101B80002B6038BDD80300100EB400B54FF40271BD
:101B90009CB0ADF814106FF00041049107914FF61E
:101BA000FF711DABADF81610084953F8042B0290D5
:101BB0000690086802A9019300F0C8F8029B002271
:101BC0001A701CB05DF804EB03B0704730010010D0
:101BD00010B50C46B1F90E1002F090FC002803DBA2
:101BE000636D0344636510BDA38923F48053A3810F
:101BF00010BD2DE9F0411D468B890746DB050C46DB
:101C0000164605D5B1F90E100022022302F032F873
:101C1000A389384623F48053A381B4F90E103246C9
:101C20002B46BDE8F04101F01FB910B50C46B1F9E3
:101C30000E1002F01FF8431CA38903D123F4805334
:101C4000A38110BD43F48053A381606510BDB1F939
:101C50000E1001F089B9034613F8012B002AFBD1BD
:101C6000181A0138704770B58AB10B4605461C78C2
:101C700010F8016B0131B44201D1012A03D1287857
:101C80001B78C01A70BD013A002CEED1F7E7104660
:101C900070BD2DE9F0478D688146AB420C469246F7
:101CA0001F4643D38B8913F4906F3DD02668096992
:101CB0000222C1EB0608666906EB460696FBF2F6C1
:101CC00008F101023A44964238BF16465B050FD52B
:101CD0003146FFF7DDFE054698B121694246FFF720
:101CE00067FEA38923F4906343F08003A38113E08C
:101CF000324602F0DCFB054670B948462169FFF721
:101D000083FE0C23C9F80030A3894FF0FF3043F065
:101D10004003A381BDE8F087256166614544C8EBB7
:101D200006062560A6603D46AF4200D23D462A46E3
:101D300020685146FFF745FEA36800205B1BA360A7
:101D400023681D442560BDE8F08700002DE9F043BD
:101D50009DB003938B8907461C060D4616460CD58D
:101D60000B6953B94021FFF793FE2860286110B931
:101D70000C233B60C7E040236B61002309932023C1
:101D80008DF8293030238DF82A3033461C4613F85D
:101D9000012B1AB9B4EB06090FD002E0252AF5D1C0
:101DA000F8E73846294632464B46FFF772FF0130C6
:101DB00000F0A480099B4B4409932378002B00F08A
:101DC0009D8000234FF0FF32049307930592069302
:101DD0008DF853301A9304F101094D4E4C463046AC
:101DE00021780522FFF7D6FD09F10109049B28B1EE
:101DF000861B0120B04003430493EEE7D90644BF9D
:101E000020228DF853201A0744BF2B228DF853202F
:101E100022782A2A02D0079B21460EE0039A111D40
:101E200012680391002A01DB079204E0524243F05A
:101E300002030792049301340AE00C462278013130
:101E4000303A092A03D80A2000FB0323F5E7079359
:101E500023782E2B19D163782A2B09D1039B0234C6
:101E60001A1D1B680392002BB8BF4FF0FF330BE025
:101E7000611C00230C4622780131303A092A03D82C
:101E80000A2000FB0323F5E70593224E2178304614
:101E90000322FFF77FFD30B1861B4020B040049B3A
:101EA00001340343049321781B480622661C8DF8F5
:101EB0002810FFF76FFD88B1184B33B9039B073328
:101EC00023F007030833039314E003AB0093384671
:101ED00004A92A46124B00F0F3F907E003AB009384
:101EE000384604A92A460E4B00F06AFCB0F1FF3FC9
:101EF000804603D0099B4344099346E7AB895B06C0
:101F000001D4099801E04FF0FF301DB0BDE8F08327
:101F1000606F0000666F00006A6F0000C122000061
:101F2000931C0000936810B5013B002B936005DA09
:101F30009469A34208DBCBB20A2B05D01368581C66
:101F400010601970C8B210BDBDE8104000F038BF75
:101F5000F8B505460E461446D718BC4208D02846A8
:101F600014F8011B3246FFF7DDFF431CF5D100E0FA
:101F70000020F8BD2DE9F0439DB00D4617460393B0
:101F8000064618B183690BB9FFF7F0FB734B9D420E
:101F900001D1756808E0724B9D4201D1B56803E03C
:101FA000704B9D4208BFF568AB8918070AD52B69AD
:101FB00043B10023099320238DF8293030238DF875
:101FC0002A3038E03046294600F060FF0028F0D083
:101FD0004FF0FF30BEE0039A111D12680391002AF2
:101FE00070DB0792013423782E2B7DD05E4F217851
:101FF00038460322FFF7CEFC30B1C71B4020B84063
:10200000049B013403430493217858480622671C3B
:102010008DF82810FFF7BEFC002800F08980544B93
:10202000002B7CD1039B073323F007030833039372
:10203000099B434409933B461C4613F8012B1AB9EC
:10204000B4EB07090ED002E0252AF5D1F8E73046B7
:1020500029463A464B46FFF77BFF013075D0099B76
:102060004B4409932378002B6FD000234FF0FF32AD
:1020700004930793059206938DF853301A9304F155
:1020800001093C4F4C46384621780522FFF782FC77
:1020900009F10109049B28B1C71B0120B840034383
:1020A0000493EEE7D90644BF20228DF853201A0787
:1020B00044BF2B228DF8532022782A2A8BD0079BED
:1020C000214605E0524243F002030792049389E758
:1020D0000C4622780131303A092A03D80A2000FB45
:1020E0000323F5E707937EE763782A2B09D1039B47
:1020F00002341A1D1B680392002BB8BF4FF0FF3348
:102100000BE0611C00230C4622780131303A092A89
:1021100003D80A2000FB0323F5E7059366E703AB2A
:102120000093304604A92A46134B00F0C9F807E093
:1021300003AB0093304604A92A460F4B00F040FB46
:10214000B0F1FF3F80467FF473AFAB895B063FF58C
:102150003FAF09981DB0BDE8F08300BFFC6E0000E2
:102160001C6F00003C6F0000666F00006A6F00008B
:10217000C1220000606F0000511F000030B51346FF
:10218000044A05460C46106829462246BDE8304000
:10219000FFF7F0BE300100102DE9F047002B88B0AA
:1021A00014461D46109E1299139F05DA05F100434F
:1021B0001D4614462D2300E000230B70149B23F0D2
:1021C000200ABAF1460F04D0BAF1450F03D1013607
:1021D00001E0032300E002238DE8C80006AB03936F
:1021E00007AB049322462B4600F05EFFBAF1470F7F
:1021F000804602D1119BDB0725D5BAF1460F08EBCB
:1022000006090FD198F80030302B09D12046294615
:102210000022002303F0C4FF10B9C6F101063E609E
:102220003B689944204629460022002303F0B8FF6A
:1022300008B1CDF81C90079B4B4504D25A1C07925D
:1022400030221A70F7E7079B4046C8EB0302159B44
:102250001A6008B0BDE8F08773B50346002903F89B
:10226000022B03DA49421A462D2401E01A462B2498
:10227000092944701BDD0DF106040A2691FBF6F5D1
:1022800006FB1511092D01F13001234604F801194F
:102290002946F2DC05F1300103F8011D0DF10701BB
:1022A0008B420AD213F8011B02F8011BF6E7302417
:1022B0001A46214402F8024B5970101A02B070BD40
:1022C0002DE9F04F8FB00C4616461F46DDF86090A2
:1022D000054601F0CBFCD0F800A05046FFF7BBFC50
:1022E00000230C93D9F800300990073323F007033B
:1022F00003F10802D3E9000194F81880C9F800201E
:10230000C4E9120102F00CF90128D4E9120117D135
:102310000022002303F04EFF10B12D2384F8433038
:10232000904B914AB8F1470F8CBF914699460323D1
:102330002361236823F0040323604FF0000B86E041
:1023400002F0EEF8236848B9884A8949B8F1470F86
:102350008CBF8946914603222261EBE7626828F030
:10236000200B511C01D1062204E0BBF1470F02D122
:102370000AB901226260606843F480618DE803005D
:10238000D4E912230DF12B0002900BA803900CA8A6
:102390000590002021600690CDF810802846FFF7B8
:1023A000FBFEBBF1470F81460B9909D1C81C02DB2C
:1023B0006368994230DDA8F102085FFA88F802E00C
:1023C000B8F1650F12D80139424604F150000B9163
:1023D000FFF742FF0C9A83468318012A236102DC2F
:1023E0002268D2072DD5013323612AE0B8F1660FA8
:1023F00014D10029636807DD216113B92268D00771
:102400001CD501330B4418E013B92268D20701D55B
:10241000023312E0012310E04FF067080C9A91425A
:1024200005DB23682161D80708D54B1C05E000298E
:10243000D4BFC1F10203012313442361A1654FF00E
:10244000000B9DF82B3013B12D2384F843300097F7
:10245000284621460DAA334600F040F9013002D14A
:102460004FF0FF3036E123685A0504D42846314640
:102470004A46236908E1B8F1650F40F2CB80D4E900
:1024800012010022002303F08BFE00282AD02846E8
:102490003146384A0123B8470130E1D00C9B0B9AF2
:1024A0009A4207DB2368D80704D423689B0700F10E
:1024B000F880FDE0284631465246099BB847013076
:1024C000CED04FF000080C9B013B9845EDDA284632
:1024D000314604F11A020123B8470130C0D008F197
:1024E0000108F0E70B9B002B28DC28463146214AE7
:1024F0000123B8470130B3D00B9B23B90C9B13B910
:102500002368D907D1D5284631465246099BB8479A
:102510000130A5D04FF000080B9B28465B42984540
:10252000314608DA04F11A020123B847013097D086
:1025300008F10108F0E74A460C9BA5E0A36D0C9A50
:102540009A42B4BF93469B46BBF1000F02DC4FF0AA
:1025500000081CE0284631464A465B46B847013031
:10256000F5D17DE7716F0000756F0000796F000095
:102570007D6F0000816F00002846314604F11A0289
:102580000123B84701303FF46BAF08F10108A36D98
:102590002BEAEB729A1A9045EEDB09EB03080B9AD3
:1025A0000C9B9A420FDB2368DA070CD40C9B0B9A26
:1025B0009944C8EB09099B1A9945A8BF9946B9F1F6
:1025C000000F08DC0FE0284631465246099BB84709
:1025D0000130EBD144E72846314642464B46B847E6
:1025E00001303FF43DAF4FF000080AE02846314685
:1025F00004F11A020123B84701303FF431AF08F16A
:1026000001080B9B0C9A29EAE971D31A5B1A9845C9
:10261000ECDB4AE70C9A012A01DCDB0739D52846B6
:1026200031464A460123B84701303FF419AF2846E6
:1026300031465246099BB84701303FF411AFD4E907
:1026400012010022002303F0ABFD10B14FF000088F
:1026500011E00C9B2846314609F10102013B1CE0C8
:102660002846314604F11A020123B84701303FF4ED
:10267000F7AE08F101080C9B013B9845F0DB2846BA
:10268000314604F150025B46B84701307FF40DAF8C
:10269000E6E6284631464A460123B8470130EED1E6
:1026A000DEE64FF00008E2680D9BD31A984505DB83
:1026B000E0680D9B9842B8BF18460BE028463146AB
:1026C00004F119020123B84701303FF4C9AE08F103
:1026D0000108E8E70FB0BDE8F08F00BF2DE9F8432F
:1026E00015461F468A680B6906469A42A8BF1346DC
:1026F0002B6091F843200C46DDF820800AB10133AD
:102700002B602368990602D52B6802332B6023685F
:1027100013F006091DD094F843302268003318BF27
:10272000012392061FD5E118302081F843005A1C7E
:1027300094F845102244023382F8431013E03046E7
:10274000394604F119020123C047013007D009F1CD
:102750000109E2682B68D31A9945F0DBDBE74FF0FB
:10276000FF30BDE8F8833046394604F14302C047E4
:102770000130F4D023682A6803F00603E168042BD3
:1027800008BFC2EB01052369A2680CBF25EAE57505
:1027900000259A42C4BFC3EB0203ED184FF00009B5
:1027A000A9450ADA3046394604F11A020123C04726
:1027B0000130D4D009F10109F2E70020BDE8F88327
:1027C0002DE9FF470E7E80466E2E0C4691469A46B6
:1027D0000C9D01F1430000F0A58011D8632E22D09A
:1027E00009D8002E00F0AF80582E40F0BF8081F84D
:1027F00045607B4A4FE0642E1ED0692E1CD0B5E0A8
:10280000732E00F0A48009D86F2E2BD0702E40F0CC
:10281000AD800B6843F020030B6038E0752E21D0AB
:10282000782E34D0A2E02B6801F142071A1D1B68F4
:102830002A6081F842309DE022682B6812F0800FF8
:1028400003D01A1D2A601D6805E05106F9D51A1D2E
:102850002A60B3F90050002D39DA2D236D4284F837
:10286000433034E022682B6812F0800F03D01A1D29
:102870002A601D6804E05206F9D51A1D2A601D88D9
:10288000237E574A6F2B14BF0A2308231BE07823AB
:10289000544A84F845302368296813F0800F01F109
:1028A00004062E6001D00D6802E05F06FBD50D889E
:1028B000DE0744BF43F0200323601DB9236823F0E3
:1028C000200323601023002184F8431001E0444AD0
:1028D0000A236668002EA66003DB216821F004014C
:1028E000216005B96EB104F14201B5FBF3F603FBBB
:1028F0001655555D0F4601F801593546002EF4D1A5
:1029000000E00746082B0AD12368DD0707D5626877
:1029100023699A4203DC302307F8013C013FC01BC6
:1029200020612CE009682B6811F0800F626904D0E7
:10293000191D29601B681A6005E04906F8D5191DA4
:1029400029601B681A8000232361074617E02B6863
:102950001A1D2A601F683846FFF77DF963682061F9
:10296000984288BF23612369636005E004F1420750
:1029700084F8426001232361002384F84330CDF8BA
:1029800000A04046214603AA4B46FFF7A7FE0130B0
:1029900002D14FF0FF301FE0404649463A462369D6
:1029A000D0470130F5D023689B0705D4E068039B2E
:1029B0009842B8BF18460FE00025E268039BD31A7F
:1029C0009D42F3DA4046494604F119020123D047FB
:1029D0000130DED00135F0E704B0BDE8F08700BF7C
:1029E000836F0000946F00002DE9F04F16468A684F
:1029F00087B00293531EB3F5AE7F07460C4606D947
:102A00006FF4AE731A4440F25D138B6000E0002255
:102A10002368A04643F4F0634FF0000B48F81C3BDA
:102A20004546DA46CDF814B0CDF810B0D946CDF809
:102A30000CB0A168002900F0E98033681B78492BAD
:102A400075D016D8392B0DD8312B3ED22D2B45D031
:102A500002D82B2B42D0D9E02E2B00F09780302BC0
:102A600023D0D3E0452B00F09A80462B7CD0412B1D
:102A70000CE0652B00F093800AD8542B7AD002D852
:102A80004E2B33D0C2E0592B7AD0612B49D0BDE018
:102A90006E2B2BD004D8662B66D0692B47D0B5E0BF
:102AA000742B67D0792B6BD0B0E0206810F4807F56
:102AB0000BD020F08000206009F10109002A00F00D
:102AC0008C800131013AA16087E00AEB0B010029FB
:102AD00040F09C80216821F4C07105E0216808065F
:102AE00040F1948021F08001216074E0BAF1000F80
:102AF0000ED1B9F1000F0ED1216801F4E060B0F5FC
:102B0000E06F08D121F4F06121604FF0010A62E02A
:102B1000BAF1020F5DD0BBF1010F20D0BBF1040F61
:102B20001CE0BAF1010F71D14FF0020A53E0BBF182
:102B3000000F0ED1B9F1000F6BD1216801F4E060F4
:102B4000B0F5E06F69D121F4F06121604FF0010B25
:102B500041E0BBF1030F02D0BBF1050F56D10BF1E1
:102B6000010B5FFA8BFB36E0BBF1020F4ED14FF049
:102B7000030B30E0BBF1060F48D14FF0070B2AE002
:102B8000BBF1070F42D14FF0080B24E02168880504
:102B90003CD521F420712160CDF80C901BE0216818
:102BA00001F4A060B0F5806F04D048052ED5B9F1CE
:102BB000000F32D0880504D403980595C0EB0900B6
:102BC000049021F4F06141F4C07121604FF00009DC
:102BD00001E04FF0030A2B700135A368013BA360AD
:102BE0002369013323617368013B002B736003DDAC
:102BF0003368013333601CE70192D4F880313846E2
:102C000031469847019A00283FF413AFB9F1000FFD
:102C100003D0236823F4807323600AF1FF3ABAF1EA
:102C2000010F10D845452A460BD9D4F87C3112F84B
:102C3000011C3846324698472369013D013B236118
:102C4000F0E70126B5E00BF1FF33062B2CD8BBF1E2
:102C5000020F1AD9ABF1030B5FFA8BFBAA46CBEB41
:102C6000050CE2450ED0D4F87C311AF8011D384627
:102C7000CDF804C0324698472369DDF804C0013B13
:102C80002361EEE7CBEB05050EE045452A46D8D992
:102C9000D4F87C3112F8011C384632469847236933
:102CA000013D013B2361F0E72368DA052ED55B0582
:102CB0000ED545452A46C4D9D4F87C3112F8011CFA
:102CC0003846324698472369013D013B2361F0E7CE
:102CD00015F8011C2369652903F1FF3305F1FF3A5B
:102CE00023610DD045290BD0D4F87C3138463246CB
:102CF0009847236915F8021C013BA5F1020A2361DC
:102D0000D4F87C313846324698475546266816F046
:102D100010064DD12E70236803F4C063B3F5806FA5
:102D200005D10399C1EB09035A4263B915E0049D2B
:102D30009DB1059D3246691C38460A2302F068FAA7
:102D4000049D421B059D04F26F139D4228BF04F5AC
:102D5000B77528461949FEF717FF41460022384645
:102D600001F03AFC2268029D12F0020F804689466B
:102D70002B6802D01A1D2A6006E0029D12F0040F93
:102D800003F104022A6003D01B68C3E900890BE049
:102D90001D6801F0C5FB10B901F0E4FB03E04046FB
:102DA000494603F077FA2860E3680133E36000E006
:102DB0000026304607B0BDE8F08F00BFA56F0000C9
:102DC00070B50E461446054618B183690BB9FEF777
:102DD000CDFC224B9C4201D16C6808E0204B9C4208
:102DE00001D1AC6803E01F4B9C4208BFEC68A369AB
:102DF000A360A3891A0709D523693BB12369206819
:102E0000F6B2C01A636998420FDB08E028462146F3
:102E100000F03CF80028F1D04FF0FF3070BD28469C
:102E20002146FEF713FC0028F6D1A3680130013BD0
:102E3000A36023685A1C22601E706369984204D004
:102E4000A389DB0707D50A2E05D128462146FEF7C0
:102E5000FDFB0028E0D1304670BD00BFFC6E0000D5
:102E60001C6F00003C6F000038B5074C0546002081
:102E70002060084611461A46FEF7ACF9431C02D101
:102E8000236803B12B6038BDD8030010324B70B5F6
:102E90001D6806460C4625B1AB6913B92846FEF7F6
:102EA00065FC2E4B9C4201D16C6808E02C4B9C4287
:102EB00001D1AC6803E02B4B9C4208BFEC68A289AF
:102EC00093B2190720D4DD0605D4092342F040024D
:102ED0003360A2813BE0580712D5616B41B104F128
:102EE0004403994202D03046FEF78EFD002363630F
:102EF000A38923F02403A381002363602369236053
:102F0000A38943F00803A38123694BB9A38903F480
:102F10002073B3F5007F03D030462146FEF7E6FC70
:102F2000A38913F0010205D00022A2606269524217
:102F3000A26103E0990758BF6269A26022694AB999
:102F400003F0800080B230B143F04003A3814FF022
:102F5000FF3070BD002070BD30010010FC6E00001D
:102F60001C6F00003C6F000038B5064C002305467E
:102F700008462360FEF716F9431C02D1236803B10B
:102F80002B6038BDD80300102DE9F74F03690C6999
:102F90008046A342C0F28380013CA20001F11407E5
:102FA00000F114059146009257F824602A440192DA
:102FB00055F824200136B2FBF6F6B944002E3BD07A
:102FC0004FF0000E3A462846F34652F804CB036809
:102FD0001FFA8CFA4FEA1C4C0AFB06EA0CFB06FCB3
:102FE0000CEB1A4C1FFA8AFACAEB0B0B4FEA1C4E79
:102FF0001FFA83FA1FFA8CFCDA44CCEB134C0CEB6F
:103000002A4C1FFA8AFA4AEA0C4A4A454FEA2C4BE4
:1030100040F804ABD9D9009AAB586BB9019A131F89
:10302000AB421A4602D8C8F8104005E01268043BCB
:10303000002AF8D1013CF3E7404601F084F800286B
:103040002BDB01362B46002057F804CB1A681FFAF9
:103050008CF1411A1FFA82FA4FEA1C4C5144CCEB16
:10306000124202EB214289B210144F4541EA02425A
:1030700043F8042BE8D955F8242005EB840362B902
:10308000043BAB421A4602D8C8F8104005E012686B
:10309000043B002AF8D1013CF3E7304600E0002071
:1030A00003B0BDE8F08F00002DE9F04F456A9BB0FA
:1030B0008246279CCDE9042345B91020FEF762FC27
:1030C000CAF82400456085600560C560DAF82430E0
:1030D000196861B15B6801224B6002FA03F3504644
:1030E0008B6000F00EFEDAF8243000221A6005989A
:1030F000002805DA012320F000412360059101E05A
:1031000000232360059F9C4A27F000431B0D1B05ED
:1031100093421DD1269A42F20F731360049B43B968
:10312000964B974AC7F3130000280CBF1046184669
:1031300000E09248289F002F00F07185C37813B1FA
:1031400000F1080300E0C31C289F3B6000F067BD4E
:10315000DDE90445002220462946002303F020F83B
:10316000804658B1269F01233B60289F002F00F026
:10317000538584483860013800F051BD19AB009385
:1031800018AB0193504622462B4601F0CEF8C7F308
:103190000A5683465EB1C5F3130343F07F512046C0
:1031A00041F44011A6F2FF36CDF854801CE0199B83
:1031B000189E1E446FF482639E4209DB04991F33FC
:1031C00006F212409B1B21FA00F09F40384304E0B6
:1031D0006D48049A801B02FA00F002F003FD0127FB
:1031E000A1F1F871013E15970022684B02F0BCFB7B
:1031F0005BA3D3E9002302F06BFD5BA3D3E90023BB
:1032000002F0B4FB044630460D4602F0FBFC58A326
:10321000D3E9002302F05CFD02460B462046294616
:1032200002F0A4FB04460D4602F0ECFF294681465D
:1032300000222046002302F0BDFF58B1484602F0AC
:10324000E1FC02460B462046294602F0A9FF08B9D8
:1032500009F1FF39B9F1160F0DD84D4B03EBC90336
:10326000D3E90001DDE9042302F0C2FF30B109F126
:10327000FF39002700E00127149700E01490189B05
:103280009E1B013E099604D57742089700270997AF
:1032900001E000270897B9F1000F07DB099FCDF87F
:1032A00044904F44099700270E9708E0089FC9EB08
:1032B00007070897C9F100070E9700271197249F69
:1032C000092F29D8052FC4BF043F2497249FC8BFC6
:1032D0000025A7F10203D8BF0125032B21D8DFE881
:1032E00003F0060F0204012702E0012709E000278E
:1032F0000F97259F002F1EDD0B9707973B461FE07A
:1033000000270F97259F4F440B9701373B460797A0
:10331000012BB8BF012313E00125002724970F9547
:1033200001E001270F974FF0FF370B970797002712
:103330001223259704E001270B9707973B46259713
:10334000DAF8244000226260042101F114029A425A
:1033500020D86268490001326260F6E7AFF300806E
:1033600061436F63A787D23FB3C8608B288AC63F8B
:10337000FB799F501344D33F0000F07FB4700000EE
:10338000AB700000826F0000EEFBFFFF0000F83F13
:10339000C07000005046616800F07EFCDAF824300E
:1033A0002060079F1B680E2F0A9300F26B81002D8F
:1033B00000F06881B9F1000FDDE90401CDE91201E7
:1033C00031DD814A09F00F0302EBC3034FEA2914F0
:1033D000D3E90001CDE90C01E0060CD5DDE91201CD
:1033E0007A4B04F00F04D3E9082302F09BFD032776
:1033F000CDE9040100E00227744D6CB1E10708D566
:10340000DDE90C01D5E9002302F062FCCDE90C01F5
:10341000013764100835F0E7DDE90401DDE90C232C
:1034200002F080FD1BE0C9F10004DCB1664B04F042
:103430000F0203EBC203DDE91201D3E9002302F01E
:1034400047FC624D241102274CB1E20704D5D5E9AF
:103450000023013702F03CFC64100835F4E7CDE9A5
:10346000040100E002271499E9B1DDE904450022D6
:1034700020462946564B02F09DFEC8B1079AE2B19C
:103480000B9B002B40F3FA8009F1FF301090294686
:10349000204600224F4B02F01BFCCDE904010B99A2
:1034A00001370C910DE0079ACDF840900C9208E09E
:1034B000079BCDF840900C9303E00798CDF840901F
:1034C0000C90384602F09EFBDDE9042302F000FC7C
:1034D0000022414B02F04AFA0C9F0446A1F15075BC
:1034E000CFB900223D4BDDE9040102F03DFA22464E
:1034F0002B4606460F4602F07BFE002840F0538222
:10350000224605F100433046394602F053FE0028BA
:1035100040F03F82B2E00C9F2B4B7A1E0F9F03EBD3
:10352000C203002F5ED0D3E9002300202C4902F013
:10353000F9FC22462B4602F017FADDE90467DDF8B4
:10354000288004460D463946304602F05BFE029064
:1035500002F058FB02460B463046394602F004FAA8
:10356000DDF808C022460CF1300308F8013B2B4679
:1035700006460F4602F01EFE002840F03B8332460E
:103580003B460020124902F0EFF922462B4602F09A
:1035900011FE002840F0D5800A980C99C0EB080372
:1035A0008B426BDA2046294600220A4B02F090FB40
:1035B000002204460D4630463946064B02F088FB91
:1035C00006460F46BFE700BFC070000088710000CC
:1035D0000000F03F0000244000001C4000001440A8
:1035E0000000E03F2246D3E900012B4602F070FBC9
:1035F000DDE90467DDF828800C9ACDE916010A9C04
:1036000090443946304602F0FDFD054602F0FAFAD4
:1036100002460B463046394602F0A6F9303504F82A
:10362000015B444506460F4621D10022874BDDE968
:10363000160102F09BF902460B463046394602F06D
:10364000D7FD00287DD1DDE9162300207F4902F057
:103650008BF902460B463046394602F0ABFD68B1A5
:10366000A04618F8013C013C302BF9D0C2E2002200
:10367000774B02F02DFB06460F46C2E7DDE912014B
:10368000CDE90401199B002B7CDBB9F10E0F79DC2D
:10369000704B259F03EBC903002FD3E9004514DAD3
:1036A000079F002F11DC40F076812046294600223A
:1036B000694B02F00DFBDDE9042302F08FFD079D4D
:1036C0002C46002840F0698171E1DDF82880DDE9B1
:1036D000046722462B463046394602F023FC02F0AE
:1036E00091FD049002F08EFA22462B4602F0F0FA89
:1036F00002460B463046394602F036F9049F024630
:1037000007F130060A9F08F8016BC7EB0806079F10
:103710000B46BE4229D102F029F922462B46064625
:103720000F4602F065FD70B93046394622462B46F9
:1037300002F036FD002800F05F82049FFB0702D4F0
:103740005AE2DDF840904346984618F8012C013BB8
:10375000392A06D10A9F9F42F6D1302209F1010988
:103760003A701A7801321A7046E20022384B02F0A1
:10377000AFFA0022002306460F4602F011FD002892
:10378000A7D039E20F9F002F30D0249F012F0ADCF1
:10379000159F17B103F2334302E0189BC3F13603C0
:1037A0000E9D089E16E0079F7D1E0E9FAF4201DB17
:1037B0007D1B06E00E9F0E95EB1B119F00251F44FD
:1037C0001197079F002F03DA08980023C61B01E01A
:1037D000089E079B089F50461F440897099F012198
:1037E0001F44099700F06DFB044602E00E9D089E01
:1037F0000F9C6EB1099F002F0ADD3B46089FB34224
:10380000A8BF3346FF1A0897099FF61AFF1A0997AF
:103810000E9F002F28DD0F9F07B3002D10DD2146DE
:103820002A46504600F0EEFB04465A4621465046D2
:1038300000F050FB59460746504600F062FABB467E
:103840000E9F7A1B10D0504659460AE00000E03F18
:1038500000002440C0700000000014400E9A504642
:10386000594600F0CFFB83465046012100F029FB6A
:10387000119F0546002F05DD294650463A4600F0C7
:10388000C1FB0546249F012F12DC049880B90599DD
:10389000C1F3130373B921F000473F0D3F0557B142
:1038A000089F01370897099F01370997012702E010
:1038B000002700E0049F119840B12B6905EB8303BA
:1038C000186900F0B1FAC0F1200000E00120099B66
:1038D000034413F01F030FD0C3F12002042A09DDB3
:1038E0000899099AC3F11C0319441A4408911E440B
:1038F000099209E008D01346089809991C33184426
:10390000194408901E440991089A002A04DD59467A
:10391000504600F0C5FB8346099B002B05DD294678
:1039200050461A4600F0BCFB05461498E0B15846D4
:10393000294600F008FC002816DA594650460A22AB
:10394000002300F0F5F90F9909F1FF39834649B1D9
:1039500021460A225046002300F0EAF90B9A044659
:10396000079201E00B9B07930798002829DC249914
:10397000022926DD88B929460522079B504600F01A
:10398000D7F905462946584600F0DDFB00280EDC35
:1039900003E00C9D00E000252C46259FDDF82880E3
:1039A0006FEA07090AE00C9DDDF840902C460A9F5B
:1039B000312307F101083B7009F101092746002472
:1039C00007E10F98002800F0BB80002E05DD21469E
:1039D0005046324600F064FB04469FB16168504691
:1039E00000F05AF922690646023204F10C019200F5
:1039F0000C30FDF7DDFF50463146012200F050FB50
:103A0000074600E027460A9E29465846FFF7BCFABB
:103A1000214600F1300C80465846CDF808C000F031
:103A200092FB3A4608902946504600F0A9FBC3682D
:103A30000246DDF808C04BB911465846039200F023
:103A400082FB039A0346DDF808C000E001235046DC
:103A500011460393CDF808C000F053F9039BDDF83D
:103A600008C063B9249951B9049800F0010232B931
:103A7000BCF1390F35D0089B002B24DC25E00898D9
:103A8000002802DA002B08DC1FE023D1249909BBAF
:103A9000049800F00102EAB9F4E7594601225046C1
:103AA000CDF808C000F0FCFA2946834600F04BFB35
:103AB0000028DDF808C003DC07D11CF0010F04D09A
:103AC000BCF1390F0DD008F1310C06F1010886F870
:103AD00000C07EE0002B06F1010809DDBCF1390FC2
:103AE00003D13923337001365BE00CF1010368E048
:103AF0000A99079AC1EB08034646934206F801CC9F
:103B00003CD059460A220023504600F011F9BC422D
:103B10008346214650464FF00A024FF0000304D17D
:103B200000F006F9044607466EE700F001F9394651
:103B300004460A225046002300F0FAF8074663E7DD
:103B40000F9E58462946FFF71FFA0A9F00F1300CD6
:103B500007F806C0079F0136BE4207DB0A9E012F09
:103B6000ACBFF61901362746002407E059465046F7
:103B70000A22002300F0DCF88346E2E759460122DE
:103B80005046CDF808C000F08BFA2946834600F075
:103B9000DAFA0028DDF808C003DC14D11CF0010FAC
:103BA00011D016F8013CB046392B06F1FF3607D18B
:103BB0000A98B042F5D1312309F10109037008E0F8
:103BC0000133337005E0B04618F8013C013E302B5C
:103BD000F9D05046294600F094F86FB12CB1BC42A0
:103BE00003D05046214600F08CF85046394600F08C
:103BF00088F801E0DDF840905046594600F081F821
:103C00000023269F88F8003009F101033B60289FBC
:103C100027B1C7F8008001E0024800E00A981BB015
:103C2000BDE8F08F816F000038B5074C00230546D2
:103C3000084611462360FDF73FFB431C02D1236871
:103C400003B12B6038BD00BFD803001038B5064C57
:103C50000023054608462360FDF706FB431C02D1FE
:103C6000236803B12B6038BDD803001000487047AB
:103C70003801001038B5074C054600202060084682
:103C800011461A46FDF704FB431C02D1236803B119
:103C90002B6038BDD803001070B5456A04460E4647
:103CA0003DB91020FDF76EFE6062456085600560DD
:103CB000C560656AEB6843B1636ADA6852F826004A
:103CC00078B1016842F8261017E02046042121222D
:103CD00000F0DFFB636AE860DB68002BECD10020BA
:103CE00070BD012101FA06F56A1D2046920000F020
:103CF000D0FB0028F3D04660856000220261C260DC
:103D000070BD70B5446A06460D463CB91020FDF7FB
:103D100039FE7062446084600460C4603DB1736ABF
:103D20006A68DB6853F82210296043F8225070BD9E
:103D30002DE9F0410C461E460D690746143100235B
:103D4000086801331FFA80FC000C02FB0C6C504326
:103D500000EB1C401FFA8CFC060CAB420CEB004045
:103D600041F8040BECDBD6B1A3689D4212DB61681D
:103D700038460131FFF790FF226904F10C0102324D
:103D8000804692000C30FDF713FE21463846FFF7BF
:103D9000B8FF444604EB850301355E61256120468A
:103DA000BDE8F0812DE9F8431446984603F1080276
:103DB00009230D4692FBF3F20646012300219A42A5
:103DC00002DD5B000131FAE73046FFF765FF089B33
:103DD000092C43614FF001030146036111DD05F138
:103DE00009094F46254417F8013B30460A22303B6B
:103DF000FFF79EFFAF420146F5D109EB0407083FEC
:103E000002E005F10A0709242546454509DA3B1B6E
:103E10005B5D30460A22303BFFF78AFF01350146E1
:103E2000F3E70846BDE8F883030C1B0413B900044C
:103E3000102300E0002310F07F4F04BF000208337E
:103E400010F0704F04BF0001043310F0404F04BF66
:103E500080000233002803DB420003D5581C704762
:103E60001846704720207047036813F007020BD0F4
:103E7000D90722D49A0703D55B0803600120704755
:103E80009B0803600220704799B209B91B0C1022ED
:103E900013F0FF0F04BF1B0A0832190704BF1B09E8
:103EA0000432990704BF9B080232D90702D45B0889
:103EB00005D0013203601046704700207047202073
:103EC000704710B50C460121FFF7E6FE0122446160
:103ED000026110BD2DE9F04F164633690A6985B0BD
:103EE0009A420D4601DA35460E46D5F810803769FC
:103EF000AB68696808EB07049C42C8BF0131FFF753
:103F0000CBFE00F1140303EB840101911A46DDF8A6
:103F100004A0524503D2002142F8041BF7E705F143
:103F2000140106F1140201EB880802EB8707CDF8B3
:103F300008800397039E1546B24256D2B5F800C0DA
:103F40000432BCF1000F25D00F461D46002657F85D
:103F5000049BD5F800801FFA89FB1FFA88FA0CFB36
:103F60000BAA4FEA19494FEA18480CFB0988B244DA
:103F700008EB1A481FFA8AFA4AEA084A4FEA184632
:103F8000DDF80880AB46B8454BF804AB01D95D4677
:103F9000DDE76E6032F8028CB8F1000F23D01E68A6
:103FA0000F461D464FF00009B7F800A0B5F802C053
:103FB000B6B208FB0ACCE14446EA0946AC464CF8E6
:103FC000046B57F8046BB5F804A0360C08FB06A682
:103FD000DDF808A006EB194657454FEA164901D20D
:103FE0006546E1E76E600433A4E7019B002C03DC27
:103FF000046105B0BDE8F08F53F8042D002AF7D115
:10400000013CF3E712F003032DE9F04105460E46AB
:10401000174607D0214A013B52F823200023FFF71F
:1040200087FE0646BF1035D06C6A3CB91020FDF7FC
:10403000A9FC6862446084600460C460D5F8248090
:10404000D8F808407CB9284640F27121FFF739FFC3
:104050000023C8F808000446036004E07F1019D06C
:10406000206870B10446FB07F8D531462246284641
:10407000FFF730FF314680462846FFF742FE4646AE
:10408000ECE7284621462246FFF724FF0023206064
:104090000360E7E73046BDE8F08100BFB071000083
:1040A0002DE9F0470C4623694FEA621A0AEB03092F
:1040B0004968A3688046154609F101079F4202DD61
:1040C00001315B00FAE74046FFF7E6FD00230646B4
:1040D00000F11402534504DA002142F823100133A1
:1040E000F8E720692AEAEA7104F1140315F01F0CBD
:1040F00002EB810103EB800E16D0CCF1200A0025E3
:1041000018680A4600FA0CF0054342F8045B53F8BD
:10411000045B734525FA0AF501D21146F0E74D60BC
:1041200045B109F1020705E053F8042B734541F846
:10413000042BF9D3013F404637612146FFF7E1FDEB
:104140003046BDE8F08702690B6910B5D21A13D169
:104150009C00143001F114020319224453F8044D59
:1041600052F8041D8C4203D008D24FF0FF3010BD2E
:104170009842F3D3002010BD104610BD012010BDA1
:104180002DE9F04706460C46084611461546FFF74E
:10419000DAFF071E08D130463946FFF77DFD0123BF
:1041A00003614761BDE8F08701DB002703E0234698
:1041B00001272C461D4661683046FFF76DFD2269D8
:1041C0002B69143405F1140606EB830AC76004EB6F
:1041D000820C00F11403002154F8047B56F8049B70
:1041E0001FFA87F81FFA89F541444FEA1949C5EBD0
:1041F0000108C9EB174707EB28471FFA88F839145D
:10420000B24548EA0747254643F8047BE4D86545AC
:104210000DD255F8044BA6B20E44240C04EB2644F0
:10422000B6B2211446EA044443F8044BEFE753F8CE
:10423000041D09B9013AFAE70261BDE8F087000000
:104240000F4B0B40A3F15073002B01DD194609E021
:104250005B421B15132B4FF0000105DC4FF40022CD
:1042600042FA03F100207047322B4FF00102DABF0F
:10427000C3F1330302FA03F313461846704700BF35
:104280000000F07F2DE9F041066900F1140707EB0B
:10429000860656F8044C88462046FFF7C5FDC0F157
:1042A00020030A28A6F10405C8F8003014DCBD423A
:1042B000C0F10B0188BF56F8085C24FA01FC98BFD6
:1042C0000025153025FA01F184404CF07F5343F46A
:1042D000401341EA040224E0BD4286BFA6F108056E
:1042E00056F8081C0021B0F10B0615D0B440C0F1FF
:1042F0002B0021FA00FC44F07F5444F44014BD42EA
:1043000044EA0C038CBF55F8044C002424FA00F056
:10431000B14040EA010204E044F07F5343F440130B
:104320000A4610461946BDE8F0812DE9F743012100
:104330001D46DDF82890DDF82C801446FFF7ACFC14
:10434000C5F30A570646C5F313030FB143F48013B0
:104350000193D4B102A840F8084D6846FFF784FDE8
:10436000009B48B1019AC0F1200102FA01F1C2405C
:104370000B437361019200E07361019B002B0CBF42
:1043800001240224B361346107E001A8FFF76CFD4A
:10439000019B01247361346120303FB1A7F23347A0
:1043A0000744C9F80070C0F135000AE0A0F23240BD
:1043B00006EB8403C9F800001869FFF735FDC0EB70
:1043C0004410C8F80000304603B0BDE8F0832DE982
:1043D000F3410E4669468046FFF754FF0D460446FA
:1043E00001A93046FFF74EFF009F0B460199024698
:1043F0007F1AD8F810003169411A07EB41110029E2
:10440000CCBF05EB0155A3EB01532046294601F033
:1044100089FD02B0BDE8F08110B5013902F1140345
:1044200049111269013100EB810103EB82029342D1
:1044300004D253F8044B40F8044BF8E7884203D207
:10444000002340F8043BF9E710BD00F114020069B5
:104450004B11834210B50CDC0CDA11F01F0109D0AE
:1044600052F8230020FA01F404FA01F181420ED13E
:1044700000E0034602EB83039342194605D951F845
:10448000041C043B0029F7D001E0002010BD0120EE
:1044900010BD38B502FB01F42146FDF7F9FA0546D7
:1044A00018B100212246FDF7A7FA284638BDF8B515
:1044B000064614460D4621B91146BDE8F840FDF701
:1044C000E7BA1AB9FDF7A0FA2046F8BD01F03EFAA6
:1044D000A0420ED230462146FDF7DAFA074650B127
:1044E00029462246FDF764FA30462946FDF78CFA44
:1044F00001E02846F8BD3846F8BD000038B5074C45
:10450000054600202060084611461A46FCF78AFE40
:10451000431C02D1236803B12B6038BDD8030010BF
:1045200031F0004310B500D178B10C4AA3F58014E6
:1045300094420CD9B3F5801F0BD3094A93420AD198
:10454000D0F1010038BF002010BD022010BD0420B2
:1045500010BD032010BD002010BD00BFFFFFDF7F96
:104560000000F07F004870470000C07F30B502684F
:1045700011F8015B541C55B153782246A3F1410454
:10458000192C98BF2033AB42F2D0002030BD04601C
:10459000012030BD2DE9F0410D469046FFF750FE59
:1045A00006460F46B8F1000F0FD0C5F30A53C3F10A
:1045B0006B03002B09DD1C0504F17F5303F5401349
:1045C000002201F085FBBDE8F08130463946BDE8A8
:1045D000F0810000000000002DE9F04F00239FB0A3
:1045E0008146049115921A934FF0000A4FF0000B88
:1045F0001991199A13780D2B05D8092B14D2002B79
:1046000000F0B18113E02B2B07D02D2B02D0202BF3
:104610000DD109E00126099601E000270997531CF6
:10462000199353782BB99EE101321992E1E70026E4
:104630000996199C2378302B5AD16378582B01D0D6
:10464000782B49D1099F1AAB00930197484619A9C5
:104650009C4A1BAB00F0A8FE10F00706054600F0D0
:10466000AD85062E02D1013419947EE11A9A3AB131
:104670001CA83521FFF7D0FE48461A99FFF741FBE9
:104680001B9A062E21D8DFE806F0040D08171C0D32
:1046900004004FF0000BDA4617E0DDF870A0DDF8FB
:1046A00074B012E01D9B02F2334223F48013DDF854
:1046B00070A043EA025B08E0DFF80CB24FF0000A9A
:1046C00003E06FF0004B4FF0FF3A2B0740F1768587
:1046D0004BF0004B00F072BD199B5A1C19925B788D
:1046E000302BF9D0002B00F069850123059301E000
:1046F00000260596199F4FF000080797CDF80C800B
:104700004446199E3578A5F13003DAB2092A10D84B
:10471000082CD8BF039F4FF00A02D8BF02FB07370F
:1047200006F10106D4BF039702FB0838013419963D
:10473000E7E74846FFF79AFA07684846FFF796FA10
:104740000068FDF788FA394602463046FDF78BFAD5
:10475000064628B100232A46194625460A935FE0FB
:104760004846199DFFF782FA0068FDF774FA2B1886
:1047700019932A5C002C45D12346302A05D1199A79
:104780000133511C19915278F7E7A2F13101082940
:1047900042D8199E1946002307961D46303A03F168
:1047A000010029D001446E1C771B874210DA771E66
:1047B000082F06DC039F4FF00A0C0CFB07F703974A
:1047C00004E0102EDCBF0A2707FB08F80136EBE7F0
:1047D000002BACBFEB182B1C082B03F1010505DCEB
:1047E000039E0A2303FB0626039604E0102DDCBF7C
:1047F0000A2303FB08280020199B5A1C19925A7897
:10480000034602E0254633463146A2F1300009282E
:10481000C4D901270A9703E00025012029460A9000
:1048200022F02006452E53D125B91BB9059E002E36
:1048300000F09980199F7A1C19927A7804972B2A94
:1048400004D02D2A05D000260F9608E000200F90F6
:1048500001E001270F97049EB21C1992B278A2F1D1
:104860003007092F32D8302A04D1199A571C1997CA
:104870005278F8E7A2F13107082F29D81998A2F148
:1048800030070690199A561C199652780E96A2F186
:104890003006092E05D84FF00A0C0CFB0727303FD5
:1048A000F0E70E98069EC6EB000CBCF1080F44F62C
:1048B0001F6C02DC6745B8BFBC460F9F57B1CCF1F7
:1048C000000C07E0E87100000000F07F049E1996DC
:1048D0004FF0000C002D4CD1002B40F06F84059F51
:1048E000002F40F06B840A9800283CD14E2A1BD040
:1048F00002DC492A05D036E0692A02D06E2A13D09C
:1049000031E019A8AC49FFF731FE60B3199B19A833
:10491000013BAA491993FFF729FE10B9199B0133EE
:104920001993DFF8B4B21AE019A8A549FFF71EFEE3
:10493000C8B1199B1B78282B0FD119A8A1491CAA13
:1049400000F074FF052808D11D9BDDF870A043F02E
:10495000FF4B4BF4E00B00F031BCDFF880B24FF0BE
:10496000000A00F02BBC049B19930026099600F066
:1049700025BCC1EB0C010398102DB4BFAC464FF021
:10498000100CCDF808C0069101F02CF9DDF808C034
:10499000002C08BF2C46BCF1090F82468B4615DD62
:1049A000894B03EBCC0353E9122301F091F906463E
:1049B00040460F4601F016F902460B46304639468E
:1049C00000F0D4FFDDF808C082468B460F2D37DC9F
:1049D000069F002F00F0F28323DD162F07DC7A49B3
:1049E000524601EBC701D1E900015B4614E0069E87
:1049F000C5F125039E4223DC734CC5F10F0504EB82
:104A0000C503751BD3E9000152465B4604EBC504A0
:104A100001F05EF9D4E9002301F05AF982468B4691
:104A2000CCE3069F16370BDBDDF818C0664F504607
:104A3000A7EBCC075946D7E9002301F073FAEDE75D
:104A4000069ECCEB0508B044B8F1000F61DD18F00C
:104A50000F030AD05C4A02EBC303D3E900015246BC
:104A60005B4601F035F982468B4638F00F0800F0BE
:104A7000C880B8F59A7F13DD4FF00008CDF80C80A0
:104A8000CDF81C80CDF81480079F2223C9F8003090
:104A9000DFF844B14FF0000A002F40F07B838DE334
:104AA0004FEA2818504659460026B8F1010F0DDD8F
:104AB00018F0010F06D0454B03EBC603D3E90023E2
:104AC00001F006F901364FEA6808EEE73F4B8246EF
:104AD000A1F1547B03EBC60652465B46D6E90001C2
:104AE00001F0F6F821F000438B461B0D38491B05F9
:104AF0008B428246C0D8A1F580118B4206D9002690
:104B0000DFF8DCB04FF0FF3A04967CE00BF1547B09
:104B100077E076D0C8F1000818F00F030AD02A4ACF
:104B2000504602EBC3035946D3E9002301F0FAF9DA
:104B300082468B465FEA281863D0B8F11F0F08DD64
:104B40004FF00008CDF80C80CDF81C80CDF8148013
:104B50001EE118F0100F14BF6A26002604961D4EA1
:104B600050465946B8F1000F0ADD18F0010F03D086
:104B7000D6E9002301F0ACF84FEA68080836F1E7FF
:104B8000049F82468B469FB3C1F30A53C3F16B0364
:104B9000002B2DDD1F2B25DD342B4FF0000A02DD0D
:104BA0004FF05C7B24E0203B4FF0FF3101FA03F330
:104BB00003EA0B0B1CE000BF766F0000AE70000034
:104BC0007E6F0000FC710000C07000008871000062
:104BD0000000A07CC07100000000F07F0000F8FF22
:104BE000FFFFEF7F4FF0FF3202FA03F303EA000A00
:104BF000504659460022002301F0D2FA00289FD1E6
:104C000001E000270497039E484600960799224634
:104C10002B46FFF7C7F8079000283FF42DAF069FFB
:104C20004FF000087B42002FA8BF00230E93CDF861
:104C30000C80079E48467168FFF72EF80590002803
:104C40003FF422AF326906F10C01023292000C30BF
:104C5000FCF7AEFE1BAB00931CAB019348465246DB
:104C60005B46CDE90AABFFF760FB1A9000283FF4E2
:104C70000BAF48460121FFF724F9039000283FF4C9
:104C800003AF1B9BDDF818C0002B2CEAEC77C0F2B9
:104C90008B800E9C3A461C44049E1C9D9B1B5919FC
:104CA0006FF47F739942C5F1360580F287805B1AF5
:104CB0001F2BC3EB05054FF0010078DC9840002363
:104CC00014900F93049866191544A642B4BF334656
:104CD00023460544AB42A8BF2B46002B02DDF61A43
:104CE000ED1AE41A0E9900296FD1002E00F3878087
:104CF000002F40F08E80002D00F39580002C00F3F3
:104D00009C8048461A99059AFFF73AFA804600288F
:104D10003FF4BAAEC6680023C36003990896FFF754
:104D200012FA002880F29880002E40F02082BAF11A
:104D3000000F40F01C82CBF31303002B40F01782CE
:104D40002BF000431B0D1B05B3F1D66F40F20F8211
:104D5000D8F81430002B7AD0414601224846FFF79C
:104D60009FF903998046FFF7EEF9002840F3FF8191
:104D70002BF00043049F1B0D1B05002F00F09C80AF
:104D8000B3F1D66F00F29880B3F15C7F00F2F1814D
:104D9000079E22234FF0000A4FF0000BC9F80030A5
:104DA000002E40F0F78109E2FA1A0E9C74E7844E57
:104DB0001490761A00FA06F60F9683E700264FF055
:104DC000010C0F96CDF850C07CE7484603990E9A27
:104DD000FFF718F9039000283FF456AE48460399B0
:104DE0001A9AFFF777F8034600283FF44DAE48467D
:104DF0001A990293FEF785FF029B1A9375E74846BE
:104E00001A993246FFF74CF91A9000287FF470AFD8
:104E10003AE6484605993A46FFF7F4F80590002827
:104E20007FF469AF30E6484605992A46FFF738F91E
:104E3000059000287FF462AF26E648460399224693
:104E4000FFF72EF9039000287FF45BAF1CE6D8F83B
:104E50001030012B80DC8AE163D1089FCBF3130370
:104E60002FB358495A468B422FD1049E51466EB1FA
:104E7000554B0BEA0303B3F1D46F07D81B0DC3F1F5
:104E80006B034FF0FF3000FA03F301E04FF0FF3304
:104E900099421AD14D4B9A4202D101313FF4F4ADFF
:104EA000494B4FF0000A134003F5801B5FE163B9E3
:104EB000BAF1000F09D15BE7A3F580136FEA135B2A
:104EC0006FEA0B5B4FF0FF3A51E10F9B13B113EA0E
:104ED0000B0F02E0149E16EA0A0F00F04881089FAB
:104EE00050465946049A57B1FFF754FB02460B4609
:104EF000DDE90A0100F03AFD82468B4637E1FFF713
:104F000049FB02460B46DDE90A0100F02DFD0022B7
:104F1000002382468B4601F043F900287FF438AF26
:104F200025E140460399FFF752FA00224FF08043F3
:104F300004460D4601F048F9002832D0089E26B1FB
:104F4000234F002634463D464CE0BAF1000F03D112
:104F5000CBF313033BB90BE0BAF1010F03D1BBF163
:104F6000000F3FF415AF00261A4F0024184D39E00A
:104F7000204629460022164B01F01CF940B9204674
:104F800029460022144B00F0A3FE04460D4601E022
:104F9000114D002405F1004716941797DDE91667B7
:104FA00020E02046294600220B4B00F091FE089E8F
:104FB00004460D4696B901F10047109011970FE095
:104FC000E3FBFFFFFFFF0F000000F07FFFFFEF7F1D
:104FD0000000F03F0000F0BF0000E03FCDE91045C9
:104FE000DDE910672BF0004C4FEA1C5C844B4FEA64
:104FF0000C5C9C4531D1DDE90A01ABF1547BCDE974
:105000000C0150465946CDF808C0FFF719F9024681
:105010000B463046394600F05BFE02460B465046D2
:10502000594600F0A3FC21F000431B0D754A1B05F7
:1050300093428246DDF808C00CD9734B0D99994212
:1050400003D10C9A01323FF41FADDFF8BCB14FF031
:10505000FF3A7BE001F1547B42E0049B53B3BCF187
:10506000D46F27D85EA3D3E9002320462946CDF884
:1050700008C001F0A9F8DDF808C0B8B129462046FB
:1050800001F0E8F8002808BF012000F0ABFD089E01
:1050900004460D46DDF808C026B901F1004712901C
:1050A000139701E0CDE91245DDE9126707F1D663F8
:1050B000CCEB0307DDE90A01CDF808C0FFF7C0F823
:1050C00002460B463046394600F002FE02460B46C9
:1050D000DDE90A0100F04AFCDDF808C082468B4693
:1050E000049F002F32D12BF000431B0D1B059C4564
:1050F0002CD12946204601F085F800F083FD0246B8
:105100000B462046294600F02FFC089F04460D461A
:105110002FB9BAF1000F02D1CBF3130686B12046A6
:10512000294631A3D3E9002301F044F8002831D106
:10513000204629462EA3D3E9002301F059F804E0C4
:105140002DA3D3E9002301F035F818BB48461A997E
:10515000FEF7D7FD48460599FEF7D3FD484603996B
:10516000FEF7CFFD48464146FEF7CBFD61E5049EC4
:1051700086B1264F00200C900D9750465946DDE928
:105180000C2300F0A5FD82468B4619B910B92223E5
:10519000C9F8003048461A99FEF7B3FD484605990C
:1051A000FEF7AFFD48460399FEF7ABFD4846079969
:1051B000FEF7A7FD48464146FEF7A3FD159E0EB13A
:1051C000199B3360099F1FB150460BF1004101E06C
:1051D000504659461FB0BDE8F08F00BFAFF30080C6
:1051E0000000C0FFFFFFDF419535A094FFFFDF3FC8
:1051F00035E5AF350000E03F9535A094FFFFCF3F88
:105200000000E07FFFFF9F7CFFFFEF7F0000503931
:1052100084463F482DE9F04FD0F800800E463446D2
:1052200014F8015B08EB0500407800F0080000F07E
:10523000FF0708B12646F2E72D2D03D1B41C75787F
:10524000012703E02B2D04BF7578B41C33F0100048
:105250000DD1302D08D1207800F0DF00582851D131
:1052600065781023023402E0002B08BF0A23002FC8
:105270000CBF6FF0004A4FF0004ABAFBF3F903FB92
:1052800019AA0026304608EB050B9BF801B01BF06D
:10529000040F01D0303D0BE01BF0030B1BD0BBF122
:1052A000010F14BF4FF0570B4FF0370BCBEB050539
:1052B0009D4210DAB6F1FF3F0AD0484506D801D129
:1052C000554503DC03FB0050012601E04FF0FF369B
:1052D00014F8015BD7E7731C0CD1002F4FF02203A9
:1052E0000CBF6FF000404FF00040CCF800302AB9FE
:1052F000BDE8F08F07B1404242B106B1611E1160B6
:10530000BDE8F08F002B08BF0823B0E7BDE8F08FA1
:1053100034010010F0B506694B11B34200F11402DC
:1053200026DA11F01F0102EB860602EB830401D19D
:10533000134616E052F82350C1F1200CCD4004343E
:105340001346B44209D2276807FA0CF73D4343F8E5
:10535000045B54F8045BCD40F3E71D604DB10433AA
:1053600007E0B44205D254F8041B43F8041BF8E7E5
:1053700013469B1A9B10036103B94361F0BDA0F172
:105380003003092B01D820380AE0A0F16103052B76
:1053900001D8473804E0A0F14103052B02D8273893
:1053A000C0B27047002070472DE9F04F89B00591D9
:1053B000069390460390FEF759FC00684FF0000BEF
:1053C0000490FCF748FC049B0599034413F8013C46
:1053D000029007930B6802331F4613F8010B302825
:1053E00002D10BF1010BF7E7FFF7C9FF0646F8B949
:1053F00038460499029AFCF736FC002839D1029B02
:10540000029DF85C3D44FFF7BAFF002833D02B46DD
:1054100018781F46302803F10103F9D0FFF7AFFFDA
:10542000D0F1010438BF00242E464FF0010B01E0FB
:1054300000242646B9464D46287809F10109FFF7B0
:105440009EFF0028F7D128460499029AFCF70BFC2E
:1054500058B95EB9029E2E44B1464D46287809F1EE
:105460000109FFF78CFF0028F7D136B1761BB60093
:1054700003E03D4600E0064601242B78502B01D086
:10548000702B34D16B782B2B05D02D2B05D005F14B
:105490000109002104E0002100E0012105F10209D9
:1054A00099F800000191FFF76AFF431EDBB2182B49
:1054B00001991CD8A0F1100A09F10103994699F845
:1054C0000000013301910093FFF759FF421ED2B251
:1054D000182A0199009B05D80A2202FB0A0AAAF1A0
:1054E000100AEBE709B1CAF1000A564400E0A946E8
:1054F0000599C1F800902CB1BBF1000F0CBF06203C
:1055000000207DE1EB1B013B2146072B02DD013131
:105510005B10FAE70398FEF7BFFB4FF0000900F1BC
:10552000140A04465346CB46BD4233D96A1E05923F
:10553000079915F8012C8A4209D0BBF1200F17D129
:10554000C3F800904FF000090433CB4610E0029AF4
:105550000599C2F1010C8C44BC45EED36046049918
:105560008DE80810FCF77FFB9DE8081080B1E4E7A8
:1055700015F8010C0093FFF702FF00F00F0000FA8E
:105580000BF0DDF814C0009B49EA00090BF1040B95
:105590006546C9E743F8049BCAEB03039B102361EC
:1055A00048465F01FEF740FCD8F80050381AA84280
:1055B00026DD471B39462046FEF747FFC8B17B1E54
:1055C00003F01F014FF0010909FA01F15A115AF8CD
:1055D000222011420ED04B4502DC4FF0020909E0B7
:1055E0002046B91EFEF731FF0028F6D04FF0030920
:1055F00000E0814620463946FFF78CFE3E440CE031
:1056000009DA2F1A214603983A46FEF749FDF61BA0
:10561000044600F1140A4FF00009D8F808309E4201
:1056200008DD03982146FEF76CFB129A00231360F5
:10563000A320E5E0D8F804309E4254DA9E1BAE4227
:105640002EDBD8F80C30022B1AD0032B1CD0012BE8
:105650001DD1AE421BD1012D0BDCD8F804300699C8
:1056600062200B6001232361CAF80030129B1C608A
:10567000C6E02046691EFEF7E8FE0028EDD106E0F0
:10568000139B002BE9D002E0139B002BE5D103987C
:105690002146FEF736FB129900230B605020AFE045
:1056A000771EB9F1000F07D1002F07DD20463946DC
:1056B000FEF7CBFE814601E04FF001097B1101228C
:1056C00007F01F0702FA07F75AF8233031461F4246
:1056D000204618BF49F00209AD1BFFF71BFE022749
:1056E000D8F8046000E00127B9F1000F00F08380D2
:1056F000D8F80C30022B0ED0032B10D0012B78D110
:1057000019F0020F75D0DAF8003049EA030919F0F0
:10571000010F07D16DE0139BC3F101031393139B9A
:10572000002B66D0D4F8109004F114034FEA890AD4
:1057300003EB0A01184653F8042BB2F1FF3F02D0E5
:105740000132026021E000228B4243F8042CF1D3A5
:10575000A368994512DB616803980131FEF79CFA52
:10576000226904F10C010232834692000C30FCF7EE
:105770001FF921460398FEF7C4FA5C4623695A1CB8
:10578000226104EB830301225A61022F04F1140306
:1057900011D1D8F80020013A954227D16A11012190
:1057A00005F01F0501FA05F553F822301D420CBF24
:1057B00002270F461AE022694A450ADD20460121E8
:1057C000FFF7A8FDD8F8083001369E423FF729AF11
:1057D0000BE015F01F0508D0534453F8040CFEF7F6
:1057E00023FBC5F12005A842E8DB012747F020078D
:1057F00001E047F01007129B38461C60069B1E60B4
:1058000009B0BDE8F08FC2F10802920070B5C2F194
:105810002004056850F8043F03FA04F6D3403543EA
:10582000884240F8045C0360F3D370BD2DE9F04F6B
:105830000B6885B05E11039013F01F0302EB860620
:105840000293039B18BF0436A6F104081546D3F84B
:105850000090002246F8042C474644469246934660
:1058600099F8011000293AD008468DE80600FFF7A4
:1058700086FD9DE80600D8B9202912D8DA452BDA32
:10588000BC4205D2072A03DC20463946FFF7BBFF9E
:10589000AC4220D9271F002244F8042CDA463C46AB
:1058A0001AE029294CD1039B09F10201196016E085
:1058B0000132082A0BF1010B06DDAC420CD90022A3
:1058C00044F8042C043C0122216800F00F0040EA57
:1058D0000111216000E0082209F10109C0E7BBF1D4
:1058E000000F2DD0BC4205D2072A03DC20463946E2
:1058F000FFF789FFAC420CD92B4654F8042B4445E2
:1059000043F8042BF9D9002243F8042B4345FAD974
:105910000DE0029B5BB1C3F120094FF0FF3323FA86
:1059200009F956F8043C03EA090346F8043C56F822
:10593000043C043E33B9B542F9D101232B6001E0A8
:10594000042000E0052005B0BDE8F08F51F8040CFC
:10595000002802DA04390B58184404387047000054
:1059600081F0004102E000BF83F0004330B54FEA10
:1059700041044FEA430594EA050F08BF90EA020F7D
:105980001FBF54EA000C55EA020C7FEA645C7FEA10
:10599000655C00F0E2804FEA5454D4EB5555B8BF33
:1059A0006D420CDD2C4480EA020281EA030382EAA4
:1059B000000083EA010180EA020281EA0303362D36
:1059C00088BF30BD11F0004F4FEA01314FF4801C09
:1059D0004CEA113102D0404261EB410113F0004F1B
:1059E0004FEA03334CEA133302D0524263EB4303D2
:1059F00094EA050F00F0A780A4F10104D5F1200E70
:105A00000DDB02FA0EFC22FA05F2801841F10001CA
:105A100003FA0EF2801843FA05F359410EE0A5F19E
:105A200020050EF1200E012A03FA0EFC28BF4CF0CF
:105A3000020C43FA05F3C01851EBE37101F0004585
:105A400007D54FF0000EDCF1000C7EEB00006EEB92
:105A50000101B1F5801F1BD3B1F5001F0CD349081C
:105A60005FEA30004FEA3C0C04F101044FEA445273
:105A700012F5800F80F09A80BCF1004F08BF5FEAFA
:105A8000500C50F1000041EB045141EA050130BDDA
:105A90005FEA4C0C404141EB010111F4801FA4F17D
:105AA0000104E9D191F0000F04BF01460020B1FAD2
:105AB00081F308BF2033A3F10B03B3F120020CDA0A
:105AC0000C3208DD02F1140CC2F10C0201FA0CF0E8
:105AD00021FA02F10CE002F11402D8BFC2F1200C4D
