:10000000008000108D110000BD110000BF11000024
:10001000C1110000C3110000C51100000000000064
:10002000000000000000000000000000C7110000F8
:10003000C911000000000000CB110000CD1100002C
:10004000CF110000CF110000CF110000CF11000030
:10005000CF110000CF110000CF110000CF11000020
:10006000CF110000CF110000CF110000CF11000010
:10007000CF110000CF110000CF110000CF11000000
:10008000CF110000CF110000CF110000CF110000F0
:10009000CF110000CF110000CF110000CF110000E0
:1000A000CF110000CF110000CF110000CF110000D0
:1000B000CF110000CF110000CF110000CF110000C0
:1000C000CF110000CF110000CF11000010B5054C7A
:1000D000237833B9044B13B10448AFF300800123F4
:1000E000237010BD800100100000000068A0000017
:1000F00008B5064B1BB106480649AFF30080064819
:10010000036813B1054B03B1984708BD0000000018
:1001100068A00000840100108001001000000000B1
:10012000154B002B08BF134B9D46A3F5803A0021C9
:100130008B460F461348144A121A03F0B5FB0F4BB7
:10014000002B00D098470E4B002B00D09847002082
:10015000002104000D000D48002802D00C48AFF328
:10016000008003F0EDFA2000290000F087F801F08C
:10017000B3FB00BF0000080000800010000000007A
:100180000000000080010010D407001000000000F3
:1001900000000000014B0360704700BF8092000028
:1001A00010B5034B0446036002F099FD204610BDD4
:1001B00080920000074B10B503F1180203604C3326
:1001C00004468264C364483001F0ACFA024B204616
:1001D000236010BDE899000080920000A0F14C005F
:1001E000FFF7E8BFA0F14800FFF7E4BF10B50446F1
:1001F000FFF7E0FF204602F072FD204610BDA0F19F
:100200004C00F3E7A0F14800F0E7000010B5084CFF
:100210002368013304D1074807492C2201F0E0FA92
:1002200063691A6863681A420CBF0020012010BD80
:10023000FC01001088920000A092000010B5044656
:10024000FFF7E4FFFFF7E2FF8CB1012001F081FD31
:100250000748012102F0F8F9064B054806491A78CB
:1002600002F09FFABDE81040014802F00ABA10BD42
:100270008402001082020010140200107FB50123D6
:1002800000930193029320480B214FF6FF72022343
:1002900002F09BF91C481D4902F0A7F91C4801F027
:1002A00007FAF8B11B4C002323702546184801F0CB
:1002B000FFF958B118482E7801F088FA174B985575
:1002C0002B780133DBB26E2B2B70EFD90E48012156
:1002D00002F0BAF90C481149227802F062FA0A4891
:1002E00002F0CFF9084802F09DF90028D6D0064860
:1002F00002F098F90028D1D0034802F07EF90146B7
:10030000054801F057FAF2E7840200103D020000B0
:100310009C01001082020010E40100101402001081
:1003200030B5174B85B000933733164D0193013329
:10033000029301330393144C3E3B28461349144A5D
:1003400002F094F82846134D2246134902F0CBFCE4
:10035000002328461149124A01F066F92246114C41
:100360002846114902F0BFFC20460021182203F064
:100370009BFA0E49204605B0BDE8304001F007BBAE
:1003800014C0092084020010C800001012C0092007
:1003900011C009209C010010C127000002C00920E3
:1003A00003C00920FC010010B501000032C0092083
:1003B000431C10B5044604D106480749152201F034
:1003C0000FFA2046002100F05FF904F01F0401201D
:1003D000A04010BD8D9200002293000038B5044665
:1003E0004B1C0D4621600FD00846FFF7E1FF25F0BA
:1003F0001F0505F11803E36005F11C03236105F1F6
:10040000140360606361A56038BD006800F064B9E2
:1004100038B50368044601330D4604D10A480B4938
:100420002C2201F0DDF915B1012D06D038BDA368ED
:1004300061681A6822EA010203E0A3686268196829
:100440000A431A6038BD00BF889200002293000062
:100450002DE9F843364BD3F804809F685E6A9C6AA6
:100460001D46B8F1000F27D0B8FA88F9314BC9F111
:100470001F095FFA89F953F8290018B12E4B0121A1
:100480001B689847012303FA09F3EB60C3EB0808E4
:10049000E7E7B7FA87F8274BC8F11F085FFA88F833
:1004A00053F8280018B1244B02211B6898470123F8
:1004B00003FA08F3EB60FF1A002FEAD10BE0B6FA5B
:1004C00086F7C7F11F07FFB20F2F07D9012303FAE1
:1004D00007F7EF62F61B002EF1D117E0154B07F17D
:1004E000200253F822000028F0D0134B01211B6892
:1004F0009847EBE7B4FA84F6C6F11F06F6B20F2E62
:1005000007D9012303FA06F6EE62A41B002CF1D1F1
:100510000BE0084B06F1200253F822000028F0D02F
:10052000054B02211B689847EBE7BDE8F88300BF45
:1005300080800240040500100005001070B51D46C3
:100540004B1C044623D0134B1A6021F01F03124AA0
:10055000036001F01F0321F05F01914243601646E2
:1005600002D00E4801F0A8F921686268B14218BFB4
:1005700020320B4BA26015200A4943F8225000F0AC
:1005800027FE094B4FF400121A60002070BD084688
:1005900070BD00BF0005001000C00920A19300003D
:1005A000040500105104000000E100E08268024BE5
:1005B000002143F8221070470405001010B52F4C9D
:1005C0000368A34209D04034A3420CD143680124FC
:1005D00004FA03F32A4CE36205E04368012404FAB9
:1005E00003F3274CE36001290368244C1FD1A34285
:1005F00003D04034A3420DD010BD4068204B1AB147
:1006000081401A69114303E081401A6922EA01011D
:10061000196110BD40681A4B1AB181401A6B114321
:1006200003E081401A6B22EA0101196310BDA34265
:1006300003D014498B4210D010BD01244168104BE7
:1006400022B104FA01F15A69114304E004FA01F1FC
:100650005A6922EA0101596110BD01244168084B21
:1006600022B104FA01F15A6B114304E004FA01F1DA
:100670005A6B22EA0101596310BD00BF00C0092076
:100680008080024040C0092038B5431C04460D4616
:1006900004D10F480F49152201F0A2F804F160407F
:1006A000A0F51C2000F00F0252000321914005FA32
:1006B00002F203099B0003F1804303F5303318680D
:1006C00020EA0101196019680A431A6038BD00BFA9
:1006D0008D920000CE93000038B5431C05460C46B1
:1006E00004D119481949202201F07AF805F1604037
:1006F000A0F51C20C4F3800200F01F0102FA01F1F2
:1007000043099B0003F1804303F530339D6E25EAD6
:1007100001059D669D6E294399669AB900F00F0206
:1007200052000321914004FA02F203099B0003F1F5
:10073000804303F53033186C20EA01011964196C09
:100740000A431A6438BD00BF8D920000CE930000AA
:10075000012810B50B4602D002280FD010BD01466B
:1007600038204343124AD058D418F8B111B994F83C
:100770003630DBB10F4B1B68984710BD0C49382051
:1007800000FB03104468013409D004690430406858
:100790002060382000FB031191F8361009B10021C8
:1007A000DEE7506820F001005060D9E710BD00BFBF
:1007B000CC050010C8050010034A00219068C0F362
:1007C0004200FFF7C5BF00BF00C00040034A01213F
:1007D0009068C0F34200FFF7BBBF00BF00000140BC
:1007E000034A02219068C0F34200FFF7B1BF00BF87
:1007F00000800940034A03219068C0F34200FFF7DC
:10080000A7BF00BF00C0094070B5294C0368A342D0
:1008100011D006DCA4F58044A34212D1254C052555
:1008200011E0254CA34209D004F58044A34208D12D
:10083000224C082507E0224C062504E0214C072520
:1008400001E0002425467AB1012606FA01F16DB2D5
:10085000284606FA05F55A6811435960214600F00A
:10086000B7FC194B1D6070BD01290AD04468174AB6
:10087000382606FB042292F8354030329279E24263
:1008800015D1012202FA01F6D1F1010138BF002190
:1008900002FA01F15C6824EA06045C6003685B68A4
:1008A000194204D102FA05F5074BC3F8805070BD18
:1008B00000000140B907000000800940F507000072
:1008C000CD070000E107000000E100E0CC050010CA
:1008D0002DE9F04F694A036887B0934205460C46FC
:1008E00004DD674867499B2200F07AFF2B68664A5F
:1008F000934223D00FDCA2F58042934239D1634B5F
:10090000D3F8A82122F0C002C3F8A821D3F8A82167
:1009100042F040021DE05E4A93421DD002F5804243
:10092000934226D1594BD3F8AC2122F44022C3F88C
:10093000AC21D3F8AC2142F4802218E0534BD3F819
:10094000A82122F44072C3F8A821D3F8A82142F4C8
:100950008072C3F8A8210CE04C4BD3F8AC2122F4F0
:100960004032C3F8AC21D3F8AC2142F48032C3F852
:10097000AC21484B2701D3F80090B9FBF7F307FBF4
:1009800013971FFA83FC002F57D0012100208DE818
:100990000300A2464E4602947300B700CAB2049305
:1009A0000597D0460020049FC3B2002F039303DABB
:1009B000B7FBF8F31B0904E0DDF814B0BBFBF8F358
:1009C0005B090133C3F34F03039F002B08BF0123CF
:1009D00017B1012B98BF022300EB010B0BFB03FBAC
:1009E0004FEACB0BB6FBFBFB0BF1010BC4EB5B0B34
:1009F000029FBBF1000FB8BFCBF1000BBB4507DA7C
:100A0000A3450DD0039FCDF808B0019200979C46F6
:100A10000130C3B29342A044C5D3019A002304E03D
:100A200003989C460294009001230F2907D00131BE
:100A30004E44A2441BB90192AEE7012200972B68F5
:100A4000DDF800B0197B4BEA021241F08001197306
:100A50002B68CCF3072119712B685FFA8CFC83F8A3
:100A600000C02B68D2B283F828202B681A7B02F0D2
:100A70007F021A7307B0BDE8F08F00BF00C00940C5
:100A8000DC940000F59400000000014000C00F401D
:100A900000800940CC000010F8B55D1E012D07460E
:100AA0000C46164604D914481449FB2200F098FE5F
:100AB000053C032C04D912481049FC2200F090FE9A
:100AC000042E04D90F480D49FE2200F089FE013E94
:100AD000F6B2032E03D80C4B9A57012301E00022F3
:100AE000134644EA850444EAC303396843EA021220
:100AF000D2B20A73F8BD00BF76950000F5940000ED
:100B00009B950000BE95000052960000034B1960B3
:100B1000436838214B430249CA507047C80500104A
:100B2000CC05001010B502680346117DC907FCD53D
:100B300010785968084A382404FB01225168C0B271
:100B4000013108D05169043252680A601B685A6842
:100B500042F001025A6010BDCC0500100368187DF8
:100B600000F001007047000038B543683821594350
:100B7000164A04465318D869013015D001F11803FC
:100B800013441D1D5B68013304D1114811492C2207
:100B900000F026FE6B691A686B681A4214D123684C
:100BA000187DC0F3801038BD22683033127D12F0FA
:100BB000200F03D000221A71012038BD18790F28A8
:100BC0008CBF0020012038BD002038BDCC050010AE
:100BD00088920000A092000038B504460D462046D9
:100BE000FFF7C2FF0028FAD02368EDB21D706368DA
:100BF000044A382101FB032393F83420013283F89F
:100C0000342038BDCC0500102DE9F84F98463A4CF9
:100C100003680546A34218BF00240E461746D0F8C5
:100C200004901CB1237C03F03F032374DFF8D4A0AD
:100C3000382303FB09A24FF0FF31D16151606A688C
:100C4000002103FB02A3284683F835100A46FFF76C
:100C5000DBFD002E4ED02949384600F0CBFE284956
:100C60008346404600F0C6FEB31E012B17D8B8F1EC
:100C7000FF3F3DD0204B984209D144B1237C4046F0
:100C800043F0800323741E4900F086FE30E03820D4
:100C900000FB09A041461C3000F05FFE28E0012E59
:100CA00028D17B1C26D02B6807221A72124B9B4539
:100CB0000AD14CB1237C384643F0400323740F49DA
:100CC000BDE8F84F00F068BE382404FB09A039469F
:100CD0000430002200F044FE6B68012204FB03A4F0
:100CE00084F8352028460021BDE8F84FFFF78CBD79
:100CF000032ED5E7BDE8F88F000001404C940000BA
:100D0000C4960000CC0500102DE9F84304460F46B8
:100D100008464D49164600F079FE4C4905463046D6
:100D200000F074FE0146284600F052FE411C0546C4
:100D300004D1474847495C2200F052FD464B2560EC
:100D40009D4217D009D8A3F580439D421FD1434B44
:100D5000D3F8C42042F0080217E0414B9D420FD067
:100D600003F580439D4212D13C4BD3F8C42042F09E
:100D700000720AE0394BD3F8C42042F0100204E0BC
:100D8000364BD3F8C42042F08072C3F8C4202368E5
:100D90004FF0010983F8089023684FF00008C3F86A
:100DA000048020464FF41651FFF792FD42464B4611
:100DB00020460821FFF770FE3846234900F0ECFD7D
:100DC0003046224900F0E8FD7A1C03D038464146FF
:100DD000FFF782FC731C03D030460021FFF77CFC38
:100DE0001D4B9D420FD005D8A3F580439D420ED1E7
:100DF00000230BE01A4B9D4207D003F580439D4230
:100E000005D1032302E0012300E00223636062684E
:100E1000144B382101FB02304FF0FF324260606812
:100E200001FB00332046DA6100211346FFF7ECFE98
:100E30000D4B9D4206D10D4B01221A6020680C4BD0
:100E4000616803C3BDE8F883589600007094000001
:100E500042960000F59400000000014000C00F40E1
:100E600000800940CC05001000C00040C4050010FF
:100E7000AC060010F8B5154602681F4653680446D4
:100E800023F0020353600B1F0C2B0E4601D8032DD9
:100E900004D912481249642200F0A2FC216805F02E
:100EA00001030A68013E46EAC316120CC5F3400569
:100EB000120446EA85152A430A602268002F536807
:100EC0000CBF0021042123F00D030B435360236862
:100ED0005A6842F002025A60F8BD00BF60970000F5
:100EE0009A9700002DE9F041036804465A680E46BF
:100EF00022F002025A6003682D4A934211D002F593
:100F0000B02293421AD12B4BD3F8AC2122F4406289
:100F1000C3F8AC21D3F8AC2142F48062C3F8AC2111
:100F20000CE0244BD3F8A82122F44012C3F8A821E6
:100F3000D3F8A82142F48012C3F8A8211E4B022541
:100F40001F68B7FBF5F007F0D7FF8046304607F083
:100F5000D3FF0146404608F0D7F84FF07C5107F028
:100F600017FF07F089FB01F0E3FF07F073FEFF288E
:100F700015DC236801381D612268136823F47F03A0
:100F800023F47F43136023681A6842EA0020186044
:100F900023685A6842F002025A60BDE8F0810235C7
:100FA000B5F5807FCDD10548BDE8F04100F084BCA7
:100FB0000000034000C00F40CC0000101898000053
:100FC0002DE9F74F044688460846364917461E461F
:100FD0000C9D00F01BFD344903463846019300F098
:100FE00015FD32498146304600F010FD30498346F8
:100FF000284600F00BFD019B49468246184600F04A
:10100000E7FC51468146584600F0E2FC014648465E
:1010100000F0DEFC2060013004D12648264944223D
:1010200000F0DEFB2368254A934209D002F5B02286
:1010300093420CD1224BD3F8C42042F4001204E0B6
:101040001F4BD3F8C42042F48062C3F8C4206B1C49
:101050004FF000020CBF1346012320460821FFF782
:1010600009FF20461749FFF73DFF236840465A68AD
:101070000C4942F002025A6000F08EFC38460A49E0
:1010800000F08AFC3046094900F086FC6B1C06D053
:101090000749284603B0BDE8F04F00F07DBC03B01F
:1010A000BDE8F08F54980000E896000024970000F7
:1010B000909800003F9800009A97000000000340BD
:1010C00000C00F4040420F000368DA689207FCD569
:1010D00099600368DA685207FCD598687047000089
:1010E00008B5114B1A68EAB9012119600F4BD3F802
:1010F000C40040F40000C3F8C400A3F5D0231A676D
:101100000B4A0220126858600A489208B2FBF0F2BB
:10111000013ADA6004205960074900F059F8074B9A
:1011200010221A6008BD00BFB406001000C00F40B6
:10113000CC00001040420F00E51C000000E100E080
:1011400008B5044B1B680BB9FFF7CAFF024B986840
:1011500008BD00BFB406001000400940034B986171
:101160005A6942F001025A61704700BF00400940CD
:10117000024B5A6922F001025A617047004009404F
:10118000014B01221A607047004009400649074A96
:10119000074B9A42BEBF51F8040B42F8040BF8E724
:1011A000044880470448004774A00000C8000010AD
:1011B000800100101112000021010000FEE7FEE78F
:1011C000FEE7FEE7FEE7FEE7FEE7FEE7FEE7FEE7F7
:1011D00010B50C4A946892682346B2F1805F0DD234
:1011E000094B04F170420432D25843F8042F074AE5
:1011F0009342F6D1034A4FF080539360103043F886
:10120000201010BD00ED00E0FCFFFF0FC00000103B
:10121000264B2022C3F8A021D3F8A021910603D5A4
:10122000D3F8A0215206FBD50222C3F804210022E4
:10123000C3F8A8210120C3F8AC210B22C3F80C018C
:10124000AA21C3F884205522C3F88C10C3F88C203F
:10125000C3F88000C3F88C10C3F88C20134AD2F86E
:1012600088305B01FAD50323C2F88030AA23C2F884
:101270008C305523C2F88C30D2F888100B4B11F00B
:10128000407FF9D00522C3F80821094AC3F8C420D9
:101290000022C3F8C8211A6822F4704222F03A02F0
:1012A00042F4405242F03A021A60704700C00F40C8
:1012B000DE872804094B036083686BB1084A136812
:1012C000834202D14368136070475A68824201D05A
:1012D0001346FAE742685A60704700BFE89800007A
:1012E000B806001010B50446FFF7E4FF204601F0F1
:1012F000F6FC204610BD0000054B81600360002312
:101300004360027319B1034B1A681860426070475A
:10131000E8980000B8060010F8B50B4B07461C68AB
:101320000E4674B1A56855B128463946324602F0DA
:10133000AAFD20B9284602F09EFDB04201D06468A3
:10134000EFE72046F8BD00BFB8060010007B7047ED
:1013500070B5036800211B69012204469847431CAD
:1013600005460ED0236820461B69002102229847BB
:10137000236806461B6920462946002298473046C6
:1013800070BD70BD10B5074B044603F1080234333D
:10139000026040F8043FFFF78DFF204600F046FB57
:1013A000204610BD30990000A0F10400FFF7EABF0D
:1013B00010B50446FFF7E6FF204601F090FC2046FA
:1013C00010BDA0F10400FFF7F3BF0000074B10B5FC
:1013D0000022044640F8043BFFF78EFF044B2046F2
:1013E00003F1080234332260636010BD709B00007B
:1013F0003099000010B50023036043600A7804466A
:101400002F2A13D14A788AB1481C206019462368D4
:101410001A782F2A02D10133236004E01AB1013374
:1014200001312360F3E7FFF777FF6060204610BDCE
:101430000068704708B5406820B1FFF787FF431E7A
:101440005842584108BD10B50446FFF7F3FF00B1FC
:10145000606810BD08B5406828B1FFF777FFD0F18C
:10146000010038BF002008BD10B50446FFF7F2FFA9
:1014700010B1606800B1043810BD4068003018BF7A
:10148000012070470022426082610160704708B508
:10149000036801460BB1984708BD406810B18B69DD
:1014A0000831984708BD000010B5044A044640F8CA
:1014B0001C2BFFF77BF8204610BD00BF8099000071
:1014C00010B50446FFF7F0FF204601F008FC204667
:1014D00010BD012902D0022902D07047283000E057
:1014E0004430FFF7D4BF0000F8B5134B064646F86A
:1014F000043B044600250F4618223046002102F026
:10150000D3F92946E5612562656204F12800FFF7F9
:10151000B9FF294604F14400FFF7B4FF3946074AF2
:10152000234604F11C00FFF709F83046394600F065
:1015300014FA2046F8BD00BF80990000D3140000C3
:10154000014B0360704700BFB099000010B5034B1A
:101550000446036001F0C3FB204610BDB0990000B3
:1015600073B504460E48002620600820A0600D4890
:10157000251D20614FF0FF30009066602846E66030
:10158000FFF71EFD2846A168E2683346FFF772FCAC
:1015900028462169FFF7A6FC204602B070BD00BFB7
:1015A000B099000040420F0070B5094D04462B6809
:1015B00083420BD0061D3046A168E2680023FFF786
:1015C00059FC30462169FFF78DFC2C6070BD00BFCF
:1015D000BC060010034BC260816000221A60FFF756
:1015E000E3BF00BFBC060010024B002201611A607D
:1015F000FFF7DABFBC06001038B504460D46FFF70A
:10160000D3FF201D2946BDE83840FFF75DBD00F03F
:1016100052B8A0F14800FFF7FABF00F04FB8A0F1B0
:101620004800FFF7FABF000038B504461D4600F039
:1016300019F804F14800294600F098F8054B2046B7
:1016400003F10802226003F120025433A264E36430
:1016500038BD00BFE09900001C2303FB01000C30E3
:10166000FFF715BFF8B5104B0025044603600E4682
:101670004560856029460C301746FFF703FF294671
:1016800004F12800FFF7FEFE251D4FF41653636496
:10169000284631463A46FFF737FB2846034922469B
:1016A000FFF734FA2046F8BD80920000591600007A
:1016B0000430FFF753BA0430FFF734BA10B50430E2
:1016C0000C46FFF789FA204610BD00207047F8B598
:1016D00006460D468F180C46BC4207D0336830468C
:1016E0005B6A14F8011B98470130F5D1601BF8BD07
:1016F000F8B506460D468F180C46BC4205D0336837
:1017000030469B6A9847431C01D1601BF8BD04F822
:10171000010BF2E70020704700207047002070475F
:101720000020704710B5074B044603F108023C3314
:1017300002604360406901F0F3FC2046FFF722FE9F
:10174000204610BD609A0000A0F10400FFF7EABF38
:1017500010B50446FFF7E6FF204601F0C0FA204628
:1017600010BDA0F10400FFF7F3BF000030B585B055
:101770000446FFF72BFE0C4B002503F108023C3317
:10178000636022606561224601A8084902F0D6FA2A
:1017900001A8074901F0C0FE2946606102F03EFA47
:1017A000204605B030BD00BF609A0000A89A000036
:1017B000AC9A000038B50D460446406901F066FD5C
:1017C00028466169BDE8384001F0E6BE10B5044620
:1017D000406901F05BFD6069BDE8104001F094BD17
:1017E00013B50B460649044609680092C8682246AC
:1017F000044901F09BFE02B0BDE8104000F01AB8A9
:1018000034010010CB9A000038B503680446013358
:101810000D4604D1054806492422FFF7E1FF63681D
:101820000DB1E26800E02269136038BD88920000C3
:10183000A092000000B599B072B61B49684600F04E
:10184000A6F806A8194900F0A2F80CA8184900F05B
:101850009EF812A8174900F09AF868460121FFF790
:10186000D3FF06A80021FFF7CFFF0CA80021FFF748
:10187000CBFF12A80121FFF7C7FF962000F069FAFD
:1018800068460021FFF7C0FF06A80121FFF7BCFF53
:101890000CA80121FFF7B8FF12A80021FFF7B4FF41
:1018A000962000F056FAD8E732C0092034C009204B
:1018B00035C0092037C009200FB407B5054B04AA6D
:1018C0001B6852F8041BD868019202F049FF0120FE
:1018D00000F002F83401001008B50A4C05462368F0
:1018E000986801F0D3FC2368D86801F0CFFC00F0C1
:1018F00051F808B100F0E2F905B9FEE7FFF79AFFE9
:10190000FBE700BF3401001038B50368044601331B
:101910000D4604D1054806492422FFF761FF63689C
:101920000DB1E26800E02269136038BD88920000C2
:10193000A092000070B50E4604461546FEF74EFD17
:10194000013609D020460021FEF762FD20462946D7
:10195000BDE87040FEF759BD70BD0322FFF7EABF36
:1019600070B50D4604461646FEF738FD01350DD01C
:1019700020463146FFF7C8FF20460121FEF748FD0B
:1019800020460221BDE87040FEF73FBD70BD002239
:10199000FFF7E6BF00F09EB910B50446013001D153
:1019A00010BD0C310B685A1C0BD0A342F9D1204654
:1019B0008968FEF769FE20460221BDE81040FEF767
:1019C0008BBE0248BDE81040FFF776BFFC9A0000CE
:1019D000884208B50AD0431C07D0013106D004481C
:1019E000FFF76AFF4FF0FF3008BD084608BD00BF93
:1019F0000D9B00000B685A1C05D0834201D148683A
:101A000070470C31F6E7184670470000421C10B5CD
:101A1000044607D0FFF7EEFF431C044602D10248FC
:101A2000FFF74AFF204610BD1E9B0000064B0360D7
:101A30000023064A9958814204BF0021995004337B
:101A4000B3F5807FF5D17047709B0000C006001091
:101A500010B50446FFF7EAFF204601F040F92046A2
:101A600010BD0000044B1B6823B904480449054A13
:101A7000FFF74AB9704700BFC4050010AC0600105C
:101A800002C0092003C009202DE9F3410F462D496A
:101A9000054602F0E6F9044610B9FFF7E3FF4DE012
:101AA0002846294902F0DDF918B9FFF7DBFF0124C8
:101AB00044E02846254902F0D4F918B9FFF7D2FFCF
:101AC00002243BE00024224B53F824201E4672B12E
:101AD0000134402CF7D107E068462946FFF78AFC1D
:101AE0006846FFF7CAFC60B94FF0FF3426E02B7858
:101AF0003A2BF1D1284617496A4602F043F900987B
:101B000017E06846FFF7A6FC18B16846FFF7ACFC83
:101B10000FE06846FFF797FC05460028E4D003680D
:101B20006846D3F80880FFF783FC3A46014628460A
:101B3000C0470028D8D046F824000334204602B01D
:101B4000BDE8F0813E9B0000579B0000459B0000D4
:101B5000C0060010A89A0000022808B54FF0000344
:101B60000ADD084AC11E52F8210042F8213028B18E
:101B700003685B68984708BD184608BD4FF0FF3002
:101B800008BD00BFC0060010022870B50C461546FF
:101B90000FDC0E4B1B680BB9FFF764FF6619B442EC
:101BA00005D00B4814F8011BFFF716F8F7E7284695
:101BB00070BD084B033853F8200018B103681B6848
:101BC000984770BD4FF0FF3070BD00BFC4050010D6
:101BD000AC060010C0060010022810B50C460ADC46
:101BE0000B4B1B680BB9FFF73DFF0A48FEF79AFF46
:101BF0002070012010BD084B033853F8200018B1A5
:101C000003689B68984710BD4FF0FF3010BD00BFC0
:101C1000C4050010AC060010C0060010022808B56C
:101C200008DD074B033853F8200028B10368DB6850
:101C3000984708BD012008BD4FF0FF3008BD00BF28
:101C4000C0060010022808B508DD074B033853F81A
:101C5000200028B103681B69984708BD002008BD13
:101C60004FF0FF3008BD00BFC0060010022808B5C5
:101C700004D84FF400534B60002008BD01F0F8F980
:101C8000092303604FF0FF3008BD08B50120FFF7BE
:101C900023FE0000074A13681844EFF308818842C6
:101CA00005D3054B0C221A604FF0FF3070471060CF
:101CB00018467047D0000010D007001030B585B02E
:101CC0006D46182420462946ABBE0446204605B082
:101CD00030BD0000024B186800F00100704700BFE3
:101CE000F0ED00E070B5FFF74BFA124E33681BB908
:101CF000BDE87040FFF73CBAD3E90045FFF720FA92
:101D0000221A65F1000310461946012871F10003FB
:101D100009DA3268D3683360074B1B68002BE4D0C4
:101D200090689847E1E73368BDE87040D3E9000167
:101D3000FFF714BAC0070010C407001038B50446F6
:101D4000FFF7FEF90546FFF7FBF9401BA042FAD367
:101D500038BD4FF47A735843FFF7F0BF38B50368C6
:101D6000044601330D4604D1054806492422FFF7F5
:101D700037FD63680DB1E26800E02269136038BD89
:101D800088920000A09200007FB50721044600F071
:101D900043FAE168227C0DF10F030646204600F06D
:101DA000B3FA0621054680222046072300F051FAA7
:101DB000D0F1010038BF002076B201909DF80F30BD
:101DC0000096204605F07F01E26800F029FDE06002
:101DD00004B070BD37B504460274C16004F140051B
:101DE000204900F0CFF928460021FFF7B7FF002176
:101DF00004F15800FFF7B2FF0620FFF79FFF2846C7
:101E00000121FFF7ABFF002220460E2100F0EAF986
:101E10000F21204600F000FA0823009320460221FB
:101E20001F22002300F01EFA4FF4FF70FFF786FF19
:101E3000204601211F22002300F00BFA0828F7D1C9
:101E400001230093204605230421202200F00AFAF2
:101E500020460E210C2200F0C5F90023E371237205
:101E600003B030BD40420F0070B586B08DF80F1042
:101E70009DF80F300446052B14D8DFE803F0160553
:101E80000309070B062311E009230FE016230DE0D9
:101E900019230BE008238DF8163003238DF8153035
:101EA000012508E0042100F0ADFC08238DF8163070
:101EB00000258DF81530E379052B28D1002D5AD156
:101EC00004F158002946FFF749FF4FF4FA70FFF775
:101ED00035FF64260023204601211F2200F0B9F9B6
:101EE0008DF817009DF81730082B08D19DF8173092
:101EF000082B0CD02046012100F084FC07E03220A2
:101F0000013EFFF71BFF16F0FF06E3D1EEE79DF859
:101F100015302046009302211F22002300F0A2F971
:101F20008C261F2200232046012100F092F98DF813
:101F300017009DF816209DF817309A420AD19DF897
:101F400016209DF817309A420CD02046012100F04F
:101F500059FC07E02020013EFFF7F0FE16F0FF06D7
:101F6000DFD1ECE725B104F158000121FFF7F6FEBF
:101F70009DF80F30E37106B070BD00000B0770B51F
:101F800004460E461FD5C579022D01D0042D03D17C
:101F90002046FFF7F9FE16E0012D08BF00210CD006
:101FA000032D10D102210523E02200F052F905286B
:101FB00096BF084B2946195C204600F04DFC204690
:101FC000217AFFF751FF20463146BDE8704000F00E
:101FD00020BC00BFAC9B000073B504461546082921
:101FE0005AD8DFE801F00560122B20323A4753003F
:101FF000D5B2A5F10B030F2B4ED8009508211F2257
:10200000002300F02FF925714DE0D5B205F1110341
:10201000DBB2142B40D8254A4571D35C05210093CF
:102020000F22002307E0D5B2032D35D88571082192
:1020300000956022052300F015F934E0D1B2017259
:1020400002B0BDE87040FFF70FBF95B22221EAB29F
:1020500000F0C8F82046232106E095B22021EAB21C
:1020600000F0C0F8204621212A0A02B0BDE87040E5
:1020700000F0B8B8002606F12401AA5D2046C9B2D6
:10208000013600F0AFF8082EF5D10CE0D1B202B065
:10209000BDE8704000F024B82046022102B0BDE83F
:1020A000704000F0AFBB02B070BD00BFB29B00003B
:1020B000F8B5937800F158060133937005460F4642
:1020C000304601211446FFF749FE30460021FFF754
:1020D00045FE284639462246BDE8F84000F0F0B8F3
:1020E000342970B506460C460FD002D833290AD0E1
:1020F00007E0542903D0942903D1012506E00325E4
:1021000004E0FF2412E0002500E00225032230460F
:10211000022100F067F80C21304600F07DF800F055
:10212000FC020C2130462A4300F05CF8204670BDCA
:1021300038B50368044601330D4604D10548064905
:102140002422FFF74DFB63680DB1E26800E02269CD
:10215000136038BD88920000A092000007B50246C7
:10216000086849686B4603C311F0010F4FEA61002C
:1021700018BF1158009B104418BFCB58984703B0A4
:102180005DF804FB73B504460E4604F114052830CF
:102190000121FFF7CDFF284600220821FFF71AFA98
:1021A00028463146FFF720FA0C4B0022009301929B
:1021B0006B4603CB0A4BC4F8A4100121C4F8A0005D
:1021C000C4F8982004F18C000A46C4F89C40C4F876
:1021D000B03002B0BDE87040FEF7F0B975230000E2
:1021E0005D210000F8B500F1280504460E4628469A
:1021F000143400211746FFF79BFF46F0C00120462C
:10220000FFF7FAF939462046FFF7F6F9284601218B
:10221000BDE8F840FFF78CBF01F03F0170B500F159
:102220002804064641F0800520461436EDB2002110
:10223000FFF77EFF29463046FFF7DEF92946304694
:10224000FFF7DAF9012105462046FFF771FFE8B2F2
:1022500070BD38B514461D46FFF7DEFF204028410B
:10226000C0B238BD2DE970439DF81890144606465B
:102270000D469846FFF7D0FF09FA08F820EA040057
:10228000C2B208EA0404304629462243BDE870433E
:10229000FFF7A8BF38B50368044601330D4604D1E3
:1022A000054806492422FFF79BFA63680DB1E268EE
:1022B00000E02269136038BD88920000A0920000FF
:1022C0002DE9F041054600F128060F463046002171
:1022D00014359046FFF7DEFF60212846FFF78CF9A2
:1022E00028463946FFF788F9002418F804102846D4
:1022F0000134FFF781F9E3B29F42F6D13046012164
:10230000BDE8F041FFF7C6BF2DE9F843054600F1EF
:102310002807384614358946002116469846FFF7A7
:10232000B9FF20212846FFF767F928460021FFF76B
:1023300063F9C4B2B44214D8002628460021FFF73E
:102340005BF909F806000136F3B29C42F5D1B8F109
:10235000000F08D028460021FFF74EF988F800004A
:1023600001E044F0800438460121FFF793FF204646
:10237000BDE8F88338B50F210446FFF74DFF42074B
:10238000054604D520460621FFF746FF20702B079F
:1023900006D5237823B920460621FFF73DFF20709C
:1023A00020462946BDE83840FFF7E8BD10B590F853
:1023B000543204461BB1D0F85C32084698470023DB
:1023C00084F8563210BD73B59DF81C4014B100F26C
:1023D0004F103BE090F8535280F851326DBB072903
:1023E00001D82B4625E009238C1EA342EFDA90F892
:1023F000CF5190F8D0616C1C04F07F04A642E6D067
:10240000D65C0544013385F84F61DBB280F8CF41DB
:10241000EAE790F8CF5190F8D0616C1C04F07F048B
:10242000A642D4D0D65C054485F84F61013380F8CC
:10243000CF41DCB28C42ECD3C9E70094D0F85842CB
:10244000084611461A469DF91830A04702B070BDE3
:1024500038B5182204460D46002101F025FA204621
:102460002946FFF794FA204638BD000030B50446EF
:1024700087B04FF0FF30009004F11400FFF770F8C0
:102480000A9904F12800FFF7E3FF0B9904F14000DB
:10249000FFF7DEFF0C9904F15800FFF7D9FF0D9903
:1024A00004F17000FFF720F8184B00250293039504
:1024B00002AB204693E80600C4F85C52C4F85852B8
:1024C000257084F8605284F8615284F8625284F86E
:1024D000555284F8545284F8535284F8515284F877
:1024E000525284F8505284F8CF5184F8D05100F001
:1024F00073F9074B0595049306AB204613E90600D4
:1025000000F075F9204607B030BD00BFC7230000BA
:10251000AD2300002DE9F34188469DF82C709DF80D
:10252000241016461D469DF828209DF820300446AC
:1025300080F8601280F8612280F8623200F1D001E8
:102540007F2207F00F07FFF745FC04230097204682
:102550002C21F022FFF786FE94F862320BB941235A
:1025600000E0612384F8D131882384F8D231330A22
:1025700084F8D531FF23002784F8D63184F8D73189
:102580002B0A84F8D93120460521324684F8D371CC
:1025900084F8D46184F8D851FFF71EFD2046062147
:1025A0002A46FFF719FD204639465FFA88F2FFF701
:1025B00013FD94F8613220460BB1042100E00221A2
:1025C00002B0BDE8F041FFF74FBC1FB59DF81840C1
:1025D00000949DF81C4001949DF82040029404242E
:1025E0000394FFF797FF04B010BDC0F85C120031F0
:1025F00018BF012180F85412704790F8D03190F83C
:10260000CF219A4209D0C21892F84F21013303F02A
:102610007F0380F8D031104601E04FF6FF7000B222
:102620007047000090F8CF3190F8D02180330548F2
:102630009B1A1840002803DA013860F07F0001304F
:1026400040B270477F000080012380F8D61180F8E7
:102650005532090A092380F8D71180F850327047A3
:1026600082B0ADF8061090F8563243B1BDF806308E
:102670009BB25A1E92B2ADF80620002BF3D102B0E5
:10268000704710B5002380F8553290F85032044658
:10269000023380F850324FF6FF71FFF7E1FF94F8F4
:1026A0006032012184F85612204603B10321FFF75E
:1026B000DBFB94F8D631FF2B04D194F8D13123F011
:1026C000200305E094F862320BB9412300E0612356
:1026D00084F8D1312046002394F8501204F2D1122C
:1026E000FFF7E6FC20464FF6FF71FFF7B9FF94F8BD
:1026F000613220460BB1042100E00221FFF7B4FB58
:10270000002384F8563210BD10B590F855320446B7
:10271000D3B190F850327C2B42D8C2180133DBB2CF
:102720007D2B82F8D11180F8503239D1FFF7A9FF03
:10273000012384F85532FF2384F8D63184F8D73149
:10274000092384F8503210BD80F8DA1180F8DB31AB
:1027500080F8DC314FF6FF71FFF782FF94F86032AA
:10276000012184F85612204603B10321FFF77CFBB8
:10277000002320460A2104F2D112FFF799FC2046DB
:102780004FF6FF71FFF76CFF94F8613220460BB1F2
:10279000042100E00221FFF767FB002384F8563292
:1027A00010BDF8B505460E4617460024E3B2BB42FD
:1027B00005D2315D2846FFF7A7FF0134F6E7F8BDE3
:1027C00010B504467030FEF76FFE024B2046636181
:1027D00010BD00BFB099000013B58DE8060000F5EC
:1027E0001B749DE8030084E8050002B010BD13B51A
:1027F0008DE8060000F51D749DE8030084E80500DF
:1028000002B010BD08B5D0F864320BB10846984745
:1028100008BD08B5D0F868320BB10846984708BD26
:1028200073B5D0F86C42D0F870520CB9EE0710D5E1
:1028300015F0010F4FEA650518BF4659284418BF27
:1028400034599DF9186000969DF81C600196A047C8
:1028500000E0104602B070BD10B5D0F87432D0F868
:1028600078220BB9D40709D512F0010F4FEA6202A2
:1028700018BF8458104418BFE358984710BD000093
:1028800010B5034B0446036000F082FA204610BDE9
:10289000089C000010B50446FFF7F2FF204600F048
:1028A0001EFA204610BD2DE9F347DDF828900446B6
:1028B0004A450F461646984605D1194600F02EFAAD
:1028C00008B1062029E0E36804EBC3045D1E04346C
:1028D0006B1C21D0A06883071BD510F0010A4FEABA
:1028E000202203D0F91C14D033689A586068394606
:1028F0000368CDF80090D3F820C032444346E04747
:10290000032806D9BAF1000F07D040F00100C0B289
:1029100003E0013D083CDBE7012002B0BDE8F087A1
:10292000F7B50D1E089C05DB5019844214BF012029
:10293000062007E0023504D0056800942C6AA04701
:1029400000E0012003B0F0BD2DE9F04F8FB01B9CDB
:102950000593A3688846D90648BF83688146189EB8
:102960001A9848BFA3608642934608D148461999F1
:1029700000F0D4F918B184F805B0002019E14846F8
:10298000059900F0CBF9B8B1189EB8F1000F266098
:1029900084F804B00ADBB0441A9E464514BF4FF0D9
:1029A00001084FF0060884F80680E6E718F1020FE8
:1029B000E3D10123A371E0E7B8F1000FA8BF1A9E8D
:1029C0004FF00007A6BFC8EB0606069606900997CB
:1029D0000126D9F80C30079609EBC30A5E1E08964B
:1029E0000AF1040A089E013600F09E8000230B9332
:1029F0008DF830308DF831308DF83230DAF808301B
:102A0000A568DA070D954FEA232105D5189E4BF0EE
:102A100001023068415800E05A46189E3144069E33
:102A200036B1B142079E94BF00200120B04270D061
:102A30009E0706D418F1020F01D1AD076ED002F047
:102A4000FD02DAF80400199E036801961A9E0091AF
:102A50000BA903910296DD694146059BA84762795F
:102A60009DF831109DF832501143062D03466171D7
:102A700001D0022D06D10B9BA57123609DF830304B
:102A8000237196E0226877B96AB90B9A9DF83050A5
:102A900022602571002A37D0002935D0D9F80820C6
:102AA000D20731D485E052B10B9B9A4205D12379EC
:102AB0009DF830201343237125E01BB910B90B9BFF
:102AC0000BB307B30329A67904D9CB0734D5A36880
:102AD000990731D5002E43D0002D4AD086EA050350
:102AE000DBB2032B2FD9032D06D90B9B2E46236077
:102AF0009DF8303000272371B307A6713FF53DAF35
:102B000016F0010055D03B466279042A04D01F46D6
:102B100004E00126099601E018464AE0089EAAF161
:102B2000080A013E08965DE7099E1EB1079E0EB198
:102B300000264EE738463CE0002E08BF0126002D57
:102B400008BF0125CAE73540EDB20023032D2360FD
:102B500003D90223A37101202BE00123A371D3E742
:102B6000032D13D9EB070DD5D9F808309E0709D5E9
:102B70000CE0032E13D9F10706D5D9F808309A07CF
:102B80000DD401E00126A9E70125A7E71A9E0598C3
:102B900000964146199BFFF7C3FE06469CE71A982C
:102BA000414600900B9A0598199BFFF7B9FE054620
:102BB00094E70FB0BDE8F08F2DE9F04F87B00646DF
:102BC000019117461C4600F0F6F800287DD1D4F894
:102BD0000880F56818F0100F05F1FF3918BFD6F816
:102BE0000880023506EBC505B9F1FF3F66D055F800
:102BF000042C002302938DF80C300593C2F340039C
:102C0000CDF8108002F0010B009313B918F0010FFA
:102C100050D03FB11212BBF1000F01D03B689A585F
:102C20003A4400E03A4655F8080C0DF1080A0368EA
:102C30000199D3F818C05346E04700283AD0059BC5
:102C4000082B05D1BBF1000F02D055F8083C0593C5
:102C50009DF80C30032B02D9009A002A37D0E16886
:102C600099B99AE80F0084E80F002379032B2CD937
:102C70009A0703D5B36813F0010F04E0DB0724D5EE
:102C8000B36813F0020F15D11FE02368029A934234
:102C900002D00023236016E03BB90598082812D023
:102CA000082910D000F03AF868B123799DF80C207B
:102CB0001343237109F1FF39083D95E7207900306E
:102CC00018BF012008E002232371012004E023F053
:102CD00002038DF80C30C2E707B0BDE8F08F08B1F1
:102CE00000F0A8BD704703460846194600F0B0B989
:102CF000014B0360704700BF509C000000207047EC
:102D0000002070470020704710B5034B0446036055
:102D1000FFF7E5FF204610BD509C0000814208B53A
:102D20000FD0406803782A2B0DD049680B782A2BE6
:102D300008BF013101F095F8D0F1010038BF002043
:102D400008BD012008BD002008BDFFF7E7BF7FB523
:102D5000102302930368002415469E6900946B4675
:102D60008DF8044003941268B0479DF8043003F0D6
:102D70000603062B05BF009B012020462B6004B0F4
:102D800070BD0098904214BF0120062070470000DB
:102D900010B5034B04460360FFF7AAFF204610BDA1
:102DA000709C000010B50446FFF7F2FF2046FFF7C5
:102DB00096FF204610BD38B515461C46FFF7AEFFFE
:102DC00028B10823E360062325602371012038BD64
:102DD000F8B505460C4616461F46FFF79FFF40B95B
:102DE000032F07D8236820465B6929463246984757
:102DF000F8BD0120F8BD2DE9F041069E1546089A60
:102E0000074696429846099C03D10799FFF786FF2B
:102E100048B938464146FFF781FF28B101232660B3
:102E20002571A37100E065710020BDE8F08100000C
:102E300010B5034B04460360FFF7AAFF204610BD00
:102E4000D09C000010B50446FFF7F2FF2046FFF7C4
:102E500046FF204610BD2DE9F341089C07469442E9
:102E6000884616461D4605D11946FFF757FF08B19B
:102E7000062007E0B8684146036800941C6A3246A1
:102E80002B46A04702B0BDE8F0812DE9F04F0E4679
:102E900085B019468346904699460E9D109F119C19
:102EA000FFF73CFF824680B1002E256084F8048045
:102EB00006DB3544AF4214BF01270627A7710CE09B
:102EC00002360AD10123A37107E0BD4207D158465B
:102ED0000F99FFF723FF80B901E0002010E0DBF835
:102EE00008000F9A03680192009502970394DC6929
:102EF000314642464B46A04702E084F805805046E2
:102F000005B0BDE8F08FF8B504460F4616461D46DD
:102F1000FFF751FF38B9A068394604683246A46902
:102F20002B46A047F8BD0120F8BD000000000000BE
:102F30002DE9F84FC1F30A57A7F2FF36132E0246C8
:102F40000B4604460D4689468A4680461CDC002E08
:102F500040DB3D4F374107EA010C5CEA000C18D01A
:102F600037A3D3E9002305F029FA0022002305F056
:102F700067FE28B1002D42DB2AEA07094FF000085E
:102F800040464946BDE8F88F332E06DDB6F5806F22
:102F900031D010461946BDE8F88FA7F2134C4FF018
:102FA000FF3B2BFA0CFB1BEA000FF2D024A3D3E962
:102FB000002305F003FA0022002305F041FE00285B
:102FC000DED0002D22DB28EA0B08D14640464946D8
:102FD000BDE8F88F1AA3D3E9002305F0EFF900222A
:102FE000002305F02DFE0028CAD0002D1CDB4FF079
:102FF0000008C146C4E705F0E1F9BDE8F88F4FF4D9
:10300000801A4AFA06F606EB050AB5E7142E14D024
:10301000C7F586670123033703FA07F717EB0408A0
:1030200028BF05EB030ACEE725F00042074B2243F9
:1030300018BF99464FF00008A2E705F1010AC2E760
:103040009C7500883CE4377EFFFF0F000000F0BF56
:1030500070B5064C06460D4613462CB131462A463D
:103060000220AFF3008070BD204670BD000000005C
:10307000014B1868704700BF3401001070B5054659
:103080000C4609B9002070BD18B183690BB900F076
:1030900097F9204B9C4201D16C6808E01E4B9C4282
:1030A00001D1AC6803E01D4B9C4208BFEC68B4F949
:1030B0000C30002BE6D02846214600F0BDF8236BEB
:1030C000064633B12846216A98470028B8BF4FF01A
:1030D000FF36A3891B0603D52846216900F0ECFBC7
:1030E000616B41B104F14403994202D0284600F0DB
:1030F000E3FB00236363A16C21B1284600F0DCFBF5
:103100000023A36400F0C6F90023A38100F0C3F9F3
:10311000304670BD2C9D00004C9D00006C9D000051
:10312000024B01461868FFF7A9BF00BF3401001029
:103130008A892DE9F041054610070C4657D44B68A3
:10314000002B02DC0B6C002B18DDE66AB6B102F432
:103150008052002392B22F682B600AB1626D10E09A
:10316000216A28460123B047411C024609D12B6839
:103170003BB11D2B01D0162B46D12F600020BDE89E
:10318000F081A3895B0705D56368D21A636B0BB125
:10319000236CD21AE66A2846216A0023B047461CEF
:1031A000A28905D12B681BB11D2B01D0162B19D17B
:1031B000002363602369D104236004D5421C01D13C
:1031C0002B6803B96065616B2F600029D6D004F1CC
:1031D0004403994202D0284600F06EFB0020606351
:1031E000BDE8F08142F04002A281BDE8F0810E69A5
:1031F000002EC3D00B680E60C6EB030893070CBF0C
:103200004B6900238B6012E0A3894FF0FF3043F03D
:103210004003A381BDE8F081A76A2846216A3246AF
:103220004346B8470028EFDD0644C0EB0808B8F174
:10323000000FF1DCA2E7000038B50B6905460C462B
:10324000DBB118B183690BB900F0BAF80C4B9C42A2
:1032500001D16C6808E00B4B9C4201D1AC6803E0E3
:10326000094B9C4208BFEC68B4F90C302BB12846DE
:103270002146BDE83840FFF75BBF002038BD00BFE6
:103280002C9D00004C9D00006C9D0000014620B963
:10329000044B0549186800F035BA044B1868FFF76D
:1032A000CBBF00BF8C9D00003932000034010010FC
:1032B00038B50C46054618B183690BB900F080F8A3
:1032C0000E4B9C4201D16C6808E00D4B9C4201D131
:1032D000AC6803E00B4B9C4208BFEC686368013BA1
:1032E000002B636005DA28462146BDE8384000F02F
:1032F00059BC23685A1C2260187838BD2C9D0000E8
:103300004C9D00006C9D0000024B01461868FFF7C1
:10331000CFBF00BF34010010F8B5074600F14804E4
:1033200094B1A5686668013E0CD4AB89012B07D91E
:10333000B5F90E30013303D038462946FFF77CFF3C
:103340006835F0E72468EBE7F8BD0000002310B50E
:10335000044603604360836081814366C2810361E8
:103360004361836119465C30082200F09DFA054BE9
:1033700024626362044BA362044BE362044B236345
:1033800010BD00BFD93D0000FF3D0000373E0000EA
:103390005B3E000070B54B1E68255D430E4605F18F
:1033A000740100F0CDFA044640B1002180E84200EB
:1033B0000C30A06005F1680200F076FA204670BD7E
:1033C000836910B5044633BB8364C3640365124B41
:1033D000124A1B688262984204BF0123836100F095
:1033E0001FF86060204600F01BF8A060204600F047
:1033F00017F80421E06000226068FFF7A7FFA068CB
:1034000009210122FFF7A2FFE06812210222FFF743
:103410009DFF0123A36110BD8C9D000019330000A6
:10342000F8B51B4B07461E68B36913B93046FFF762
:10343000C7FF4836B4687368013B04D4B4F90C5034
:1034400075B16834F8E733682BB938460421FFF7C3
:10345000A1FF306008B13668ECE70C233B60F8BD93
:103460004FF6FF73E3810123A38165662560A560A4
:10347000656025616561A56104F15C00294608224B
:1034800000F012FA6563A563A564E5642046F8BD03
:103490008C9D000070477047F7B50F46114601AA92
:1034A000054603F009F8064608B9002029E0284639
:1034B000FFF7B6FF04460028F7D028463946019AA0
:1034C0004FF4DB7300F090FA002806DA0025FFF7CE
:1034D000E1FFA581FFF7DFFFE7E70B4BE0816362C8
:1034E0000A4BA681A3620A4B2462E362094B236361
:1034F000F30505D5284621460022022300F056F8A0
:10350000204603B0F0BD00BFD93D0000FF3D0000E4
:10351000373E00005B3E00000A4603490346086848
:103520001946FFF7B9BF00BF340100100EB403B550
:10353000014603AB054853F8042B0068019301F0E2
:103540000BF802B05DF804EB03B0704734010010D3
:1035500070B50E461446054618B183690BB9FFF7DE
:103560002FFF0A4B9C4208BF6C6808D0084B9C4256
:1035700008BFAC6803D0074B9C4208BFEC682846E4
:1035800031462246BDE8704000F040BA2C9D000054
:103590004C9D00006C9D00000A46034903460868E4
:1035A0001946FFF7D5BF00BF3401001000F000B886
:1035B0002DE9F8430C4691461E46054618B183692D
:1035C0000BB9FFF7FDFE3E4B9C4201D16C6808E051
:1035D0003C4B9C4201D1AC6803E03B4B9C4208BF92
:1035E000EC68A38903F48473B3F5847F03D1284680
:1035F0002146FFF721FED4F82C801D23B8F1000FDF
:103600002BD0012E04D0022E2BD056B3162324E04B
:1036100028462146FFF710FEA28902F4805292B29A
:103620000AB1606D05E0216A28463346C047411C57
:1036300014D0A3895A0706D56368C01A636B4BB1CF
:10364000236CC01A06E01B0704D5236813B1226956
:103650009B1A18448144002603E02B604FF0FF378B
:103660002BE023691BB92846214600F08FF8284635
:103670002146FFF7E1FD07460028EFD12846216AE1
:103680004A463346C0470130E8D0616B41B104F18E
:103690004403994202D0284600F00EF900236363E8
:1036A000236900212360A389616023F40263A3815D
:1036B00004F15C00082200F0F7F83846BDE8F88312
:1036C0002C9D00004C9D00006C9D00002DE9F041F8
:1036D000884600F1480400268CB1A5686768013F60
:1036E0000BD4AB89012B06D9B5F90E30013302D0CA
:1036F0002846C04706436835F1E72468ECE73046C2
:10370000BDE8F0812DE9F8438046894600F1480480
:10371000002694B1A5686768013F0CD4AB89012BE2
:1037200007D9B5F90E30013303D040462946C847C2
:1037300006436835F0E72468EBE73046BDE8F883D8
:1037400070B50E4B0E4D0024ED1AAD101E46AC4266
:1037500004D056F8242090470134F8E705F070FDB6
:10376000084D094B0024ED1AAD101E46AC4204D0A2
:1037700056F8242090470134F8E770BD740100101A
:10378000740100107C01001074010010F0B58B89E9
:1037900091B09E0705460C4625D4B1F90E100029BC
:1037A00008DAA389002713F0800F14BF40264FF4D6
:1037B00080660DE001AA02F0B7FE0028F1DB029F4F
:1037C0004FF4806607F47047B7F500514F424F4100
:1037D0002846314600F0B4F860B9A3899A051DD493
:1037E00043F00203A38104F1470323602361012313
:1037F000636113E00A4BAB62A389206043F080034E
:10380000A381206166614FB12846B4F90E1002F021
:103810009DFE18B1A38943F00103A38111B0F0BD4F
:1038200019330000024B0146186800F089B800BF48
:1038300034010010024B0146186800F03DB800BF8B
:103840003401001010B5C9B202449042034605D0BD
:103850001C7801308C42F8D1184610BD002010BDF4
:1038600010B50023934203D0CC5CC4540133F9E774
:1038700010BD814270B501D300230EE08C18A04228
:10388000FAD28518134613F1FF3305D35142661857
:10389000F65C2944CE54F6E770BD934203D0CC5C6D
:1038A000C4540133F9E770BD02440346934202D089
:1038B00003F8011BFAE7704730B500293CD051F8F6
:1038C000042C0B1F1D49002AB8BF9B180A680C4620
:1038D00012B95A600B6030BD93420DD21968581866
:1038E000904203D15A581144426819605A602360CB
:1038F00030BD994203D80A4651680029F9D11468AD
:1039000015199D420AD11B682344D01888421360C0
:1039100012D10868034413604B680CE002D90C23F1
:10392000036030BD18681C188C4203D10C684968CC
:10393000204418605960536030BD00BFCC070010B0
:1039400070B5CD1C25F0030508350C2D38BF0C25AE
:10395000002D06463FDB8D423DD3214B1C681846A7
:103960002146A1B10B685B1B0ED40B2B03D90B6056
:10397000CC18CD501FE08C4202D1626802601AE080
:103980004B6863600C4616E00C464968E9E7154C45
:1039900023681BB9304600F031F9206029463046D3
:1039A00000F02CF9431C014615D0C41C24F003047C
:1039B00084420AD1256004F10B00231D20F007008A
:1039C000C31A0BD05A42E25070BD3046611A00F063
:1039D00015F90130EED10C233360002070BD00BF1B
:1039E000CC070010C807001038B5074C054600206A
:1039F0002060084611461A46FEF746F8431C02D1DD
:103A0000236803B12B6038BDD007001070B50E4697
:103A10001446054618B183690BB9FFF7D1FC164B64
:103A20009C4201D16C6808E0144B9C4201D1AC6807
:103A300003E0134B9C4208BFEC68A368013B002BDA
:103A4000A36011DAA269934207DB23681E70236822
:103A500019780A290BD1284601E02846314622462A
:103A6000BDE8704001F0F4BD23681E7023685A1C45
:103A70002260187870BD00BF2C9D00004C9D000096
:103A80006C9D0000838903F00903092B01D1FFF726
:103A9000FDBB002070470000F8B50C46054618B184
:103AA00083690BB9FFF78CFC394B9C4201D16C68E0
:103AB00008E0384B9C4201D1AC6803E0364B9C4295
:103AC00008BFEC68A2890023636093B29E065AD4B3
:103AD00058071AD4D90605D4092342F040022B60B6
:103AE000A28150E01A070BD528462146FFF7A4FB18
:103AF000002848D1A389A06023F00803A381A06116
:103B0000A38943F00403A38110E0616B71B104F158
:103B10004403994202D02846FFF7CEFE236C0020D2
:103B20006063636013B1E36B2360F8BD23691BB965
:103B300028462146FFF72AFEA789BEB2B3070FD059
:103B40000123A381154B1649186806F00906FFF7F3
:103B5000BDFD092EA78103D128462146FFF7E8FACB
:103B60002269666A22602846216A6369B047002894
:103B700060600BDCA38917BF002243F0200343F0F1
:103B800040036260A3814FF0FF30F8BD0020F8BD14
:103B90002C9D00004C9D00006C9D00008C9D000041
:103BA000853A000038B50C46054618B183690BB953
:103BB000FFF706FC0E4B9C4201D16C6808E00D4BF0
:103BC0009C4201D1AC6803E00B4B9C4208BFEC68FF
:103BD00028462146FFF760FF38B96368013B636000
:103BE00023685A1C2260187838BD4FF0FF3038BD6A
:103BF0002C9D00004C9D00006C9D000038B5064CCB
:103C00000023054608462360FEF744F8431C02D112
:103C1000236803B12B6038BDD007001000290CBF0A
:103C2000022200224FF4806300F000B82DE9F04139
:103C30001E463D4B04461D680F46904625B1AB69B4
:103C400013B92846FFF7BCFB384B9C4201D16C6886
:103C500008E0374B9C4201D1AC6803E0354B9C42F5
:103C600008BFEC68B8F1020F59D8002E57DB284680
:103C70002146FFF7E1FA00236360A361A3891B06D5
:103C800003D528462169FFF717FEA389B8F1020F73
:103C900023F08303A38112D037BB002E08BF4FF45B
:103CA00080663046FFF7BEFD0746C8B94FF4806016
:103CB000FFF7B8FD074688B94FF0FF3000E000205D
:103CC000A38943F00203A3810023A36004F1470307
:103CD0002360236101236361BDE8F0814FF48066B6
:103CE000A38943F08003A381B8F1010F05D1A38913
:103CF00043F00103A3817342A3610F4BAB62A3891D
:103D0000276003F0080080B22761666148B113F0B4
:103D1000030F18BF0026A6600020BDE8F0814FF019
:103D2000FF30BDE8F08100BF340100102C9D000081
:103D30004C9D00006C9D0000193300000EB400B5CE
:103D40004FF402719CB0ADF814106FF00041049173
:103D500007914FF6FF711DABADF81610084953F8E7
:103D6000042B02900690086802A9019300F0FEF867
:103D7000029B00221A701CB05DF804EB03B0704780
:103D8000340100100EB430B59CB01FAC4FF401727A
:103D900054F8045BADF814200290069000F06BF824
:103DA0000B4B03900B9300230F9314934FF6FF7369
:103DB000ADF81630074B079002A918682A4623462B
:103DC000019400F019FA1CB0BDE8304003B0704710
:103DD000FB3D00003401001010B50C46B1F90E1087
:103DE00003F00CF8002803DB636D0344636510BD2A
:103DF000A38923F48053A38110BD002070472DE9CF
:103E0000F0411D468B890746DB050C46164605D555
:103E1000B1F90E100022022302F0ACFBA389384650
:103E200023F48053A381B4F90E1032462B46BDE82B
:103E3000F04101F061BC10B50C46B1F90E1002F072
:103E400099FB431CA38903D123F48053A38110BDA4
:103E500043F48053A381606510BDB1F90E1001F0E9
:103E6000CBBC10F8012B11F8013B012A28BF9A4264
:103E7000F7D0D01A7047034613F8012B002AFBD164
:103E8000181A0138704770B58AB10B4605461C7880
:103E900010F8016B0131B44201D1012A03D1287815
:103EA0001B78C01A70BD013A002CEED1F7E710461E
:103EB00070BD2DE9F0478D688146AB420C469246B5
:103EC0001F4643D38B8913F4906F3DD02668096950
:103ED0000222C1EB0608666906EB460696FBF2F67F
:103EE00008F101023A44964238BF16465B050FD5E9
:103EF0003146FFF725FD054698B121694246FFF797
:103F0000AFFCA38923F4906343F08003A38113E003
:103F1000324602F04CFF054670B948462169FFF76A
:103F2000CBFC0C23C9F80030A3894FF0FF3043F0DD
:103F30004003A381BDE8F087256166614544C8EB75
:103F400006062560A6603D46AF4200D23D462A46A1
:103F500020685146FFF78DFCA36800205B1BA3601F
:103F600023681D442560BDE8F08700002DE9F0437B
:103F70009DB003938B8907461C060D4616460CD54B
:103F80000B6953B94021FFF7DBFC2860286110B9A9
:103F90000C233B60C7E040236B610023099320237F
:103FA0008DF8293030238DF82A3033461C4613F81B
:103FB000012B1AB9B4EB06090FD002E0252AF5D17E
:103FC000F8E73846294632464B46FFF772FF013084
:103FD00000F0A480099B4B4409932378002B00F048
:103FE0009D8000234FF0FF320493079305920693C0
:103FF0008DF853301A9304F101094D4E4C4630466A
:1040000021780522FFF71EFC09F10109049B28B164
:10401000861B0120B04003430493EEE7D90644BF5A
:1040200020228DF853201A0744BF2B228DF85320ED
:1040300022782A2A02D0079B21460EE0039A111DFE
:1040400012680391002A01DB079204E0524243F018
:1040500002030792049301340AE00C4622780131EE
:10406000303A092A03D80A2000FB0323F5E7079317
:1040700023782E2B19D163782A2B09D1039B023484
:104080001A1D1B680392002BB8BF4FF0FF330BE0E3
:10409000611C00230C4622780131303A092A03D8EA
:1040A0000A2000FB0323F5E70593224E21783046D2
:1040B0000322FFF7C7FB30B1861B4020B040049BB2
:1040C00001340343049321781B480622661C8DF8B3
:1040D0002810FFF7B7FB88B1184B33B9039B0733A0
:1040E00023F007030833039314E003AB009338462F
:1040F00004A92A46124B00F0D5FB07E003AB00935E
:10410000384604A92A460E4B00F04CFEB0F1FF3FA2
:10411000804603D0099B4344099346E7AB895B067D
:1041200001D4099801E04FF0FF301DB0BDE8F083E5
:10413000909D0000969D00009A9D0000A5480000FB
:10414000B33E000038B54B1C144602D14FF0FF308F
:1041500038BD9389CDB223F020039381536B52680D
:1041600083B1A36B9A4207DA23685A1E226003F8D0
:10417000015C636801331FE0214600F08BF90028E1
:10418000F2D0E3E72169236851B18B4208D913F8D3
:10419000010CA84204D1013B01322360626038BDAA
:1041A000E36304F1440363630323A36323462264AC
:1041B00003F8465F236001236360284638BD10B5CD
:1041C0000C46496B69B104F14403994201D0FFF7F1
:1041D00073FB236C00206063636013B1E36B2360A7
:1041E00010BD23694FF0FF30236000236360A38973
:1041F00043F02003A38110BD2DE9F047ADF5247DE8
:1042000001930023469347939D4B0DF10C09A29314
:104210009C4B07460C469046CDF82091A39398F806
:104220000050002D00F0248197490B688A462B44EA
:104230005A7802F0080202F0FF03EAB16368002B2B
:1042400010DD2368DAF8002019780A44527815073F
:104250000ED5479A01330132479262682360013AD2
:104260006260EBE7A39B3846214698470028E8D0D8
:1042700008F10106B046D2E7252D08F101064FD11D
:104280004593439398F801302A2B03D1102343938D
:1042900008F1020631783546A1F13003092B06F109
:1042A000010606D8459B0A2202FB0313303B4593C7
:1042B000F0E7DFF8DC8103224046FFF7C3FA40B1A4
:1042C000C8EB0008012000FA08F0439B3546034381
:1042D00043936E1C2D78672D0FD8652D78D25B2DFA
:1042E00054D005D8002D00F0C580252D18D071E0E0
:1042F000632D57D0642D3FD06CE0702D32D007D89D
:104300006E2D55D03AD8692D64D10023449339E0FD
:10431000752D31D0782D29D0732D5BD102233FE04C
:104320006368002B0DDD23681A78AA4240F0A08054
:10433000013362682360479B013A0133626047930F
:1043400098E7A39B3846214698470028EBD046982B
:10435000002800F08F80A38913F0400F18BF4FF0A2
:10436000FF3089E0439B43F020034393439B43F496
:1043700000734393102302E00A2300E008236E2D0C
:10438000449301DC03230BE0042309E03146484653
:1043900002F068FD439B064643F04003439301232C
:1043A00049931BE0439B43F0400343930023F7E70B
:1043B000439AD0063FF55EAF12F0010F019A479B7A
:1043C00002F104010191126814BF1380136051E7D8
:1043D0000523E5E7032349930A2344936368002BED
:1043E00003DD439B590611D518E0A39B38462146AF
:1043F00098470028F5D0AAE7479A013247926268A9
:10440000013A002A626013DD013323602368DAF881
:10441000002019780A4452781207EDD4499B022BE8
:104420000DDC384643A9224601AB00F0BBFF19E082
:10443000A39B3846214698470028E7D087E7042BFE
:1044400006DC384643A9224601AB01F00BF809E02F
:104450000E4B002B3FF40EAF384643A9224601AB6A
:1044600000F0B4FD012803D002287FF403AF6EE70B
:10447000469801E04FF0FF300DF5247DBDE8F08750
:1044800045410000BF41000038010010CD4F000041
:10449000969D00002DE9F0410C46496B04F1440360
:1044A00099421AD14FF48061FFF74AFA18B94FF0D8
:1044B000FF30BDE8F0814FF48063A36394F8463089
:1044C000606380F8FF3394F8453000F2FD304370AC
:1044D00094F844300370206012E0A66B77003A46EF
:1044E00002F065FC05460028E1D000EB06084046D6
:1044F00029463246FFF7B4F9C4F800806563A76324
:104500000020BDE8F081936810B5013B002B93605B
:1045100005DA9469A34208DBCBB20A2B05D01368F5
:10452000581C10601970C8B210BDBDE8104001F0F1
:104530008FB8F8B505460E461446D718BC4208D0C9
:10454000284614F8011B3246FFF7DDFF431CF5D166
:1045500000E00020F8BD00002DE9F0439DB00D46BD
:1045600017460393064618B183690BB9FEF728FF77
:10457000734B9D4201D1756808E0724B9D4201D199
:10458000B56803E0704B9D4208BFF568AB8918071A
:104590000AD52B6943B10023099320238DF82930D4
:1045A00030238DF82A3038E03046294601F0B6F83D
:1045B0000028F0D04FF0FF30BEE0039A111D1268C2
:1045C0000391002A70DB0792013423782E2B7DD0D3
:1045D0005E4F217838460322FFF734F930B1C71B0C
:1045E0004020B840049B0134034304932178584889
:1045F0000622671C8DF82810FFF724F9002800F028
:104600008980544B002B7CD1039B073323F0070395
:1046100008330393099B434409933B461C4613F814
:10462000012B1AB9B4EB07090ED002E0252AF5D107
:10463000F8E7304629463A464B46FFF77AFF013005
:1046400075D0099B4B4409932378002B6FD000232E
:104650004FF0FF3204930793059206938DF8533081
:104660001A9304F101093C4F4C4638462178052243
:10467000FFF7E8F809F10109049B28B1C71B0120E5
:10468000B84003430493EEE7D90644BF20228DF8D7
:1046900053201A0744BF2B228DF8532022782A2A50
:1046A0008BD0079B214605E0524243F0020307925C
:1046B000049389E70C4622780131303A092A03D85D
:1046C0000A2000FB0323F5E707937EE763782A2B94
:1046D00009D1039B02341A1D1B680392002BB8BF3B
:1046E0004FF0FF330BE0611C00230C4622780131B0
:1046F000303A092A03D80A2000FB0323F5E7059383
:1047000066E703AB0093304604A92A46134B00F03A
:10471000C9F807E003AB0093304604A92A460F4BC3
:1047200000F040FBB0F1FF3F80467FF473AFAB89F0
:104730005B063FF53FAF09981DB0BDE8F08300BFB1
:104740002C9D00004C9D00006C9D0000969D00007B
:104750009A9D0000A5480000909D00003345000090
:1047600030B51346044A05460C46106829462246D1
:10477000BDE83040FFF7F0BE340100102DE9F047EE
:10478000002B88B014461D46109E1299139F05DA1F
:1047900005F100431D4614462D2300E000230B7055
:1047A000149B23F0200ABAF1460F04D0BAF1450F4A
:1047B00003D1013601E0032300E002238DE8C800A5
:1047C00006AB039307AB049322462B4601F0B4F8E3
:1047D000BAF1470F804602D1119BDB0725D5BAF10C
:1047E000460F08EB06090FD198F80030302B09D19D
:1047F000204629460022002304F0FAF910B9C6F138
:1048000001063E603B689944204629460022002369
:1048100004F0EEF908B1CDF81C90079B4B4504D28B
:104820005A1C079230221A70F7E7079B4046C8EBE4
:104830000302159B1A6008B0BDE8F08773B5034604
:10484000002903F8022B03DA49421A462D2401E01D
:104850001A462B24092944701BDD0DF106040A2693
:1048600091FBF6F506FB1511092D01F130012346E8
:1048700004F801192946F2DC05F1300103F8011DA5
:104880000DF107018B420AD213F8011B02F8011B3C
:10489000F6E730241A46214402F8024B5970101AE8
:1048A00002B070BD2DE9F04F8FB00C4616461F4682
:1048B000DDF86090054601F059FED0F800A05046A2
:1048C000FFF7D9FA00230C93D9F800300990073389
:1048D00023F0070303F10802D3E9000194F81880DC
:1048E000C9F80020C4E9120102F09AFA0128D4E9BB
:1048F000120117D10022002304F084F910B12D23F6
:1049000084F84330904B914AB8F1470F8CBF9146E1
:10491000994603232361236823F0040323604FF0A7
:10492000000B86E002F07CFA236848B9884A89497E
:10493000B8F1470F8CBF8946914603222261EBE70D
:10494000626828F0200B511C01D1062204E0BBF163
:10495000470F02D10AB901226260606843F48061A6
:104960008DE80300D4E912230DF12B0002900BA86F
:1049700003900CA80590002021600690CDF81080CF
:104980002846FFF7FBFEBBF1470F81460B9909D183
:10499000C81C02DB6368994230DDA8F102085FFAA7
:1049A00088F802E0B8F1650F12D80139424604F1E7
:1049B00050000B91FFF742FF0C9A83468318012A9F
:1049C000236102DC2268D2072DD5013323612AE05E
:1049D000B8F1660F14D10029636807DD216113B9AE
:1049E0002268D0071CD501330B4418E013B92268A4
:1049F000D20701D5023312E0012310E04FF067081F
:104A00000C9A914205DB23682161D80708D54B1C1D
:104A100005E00029D4BFC1F102030123134423613F
:104A2000A1654FF0000B9DF82B3013B12D2384F8B6
:104A300043300097284621460DAA334600F040F93E
:104A4000013002D14FF0FF3036E123685A0504D41B
:104A5000284631464A46236908E1B8F1650F40F21D
:104A6000CB80D4E912010022002304F0C1F8002811
:104A70002AD028463146384A0123B8470130E1D0D0
:104A80000C9B0B9A9A4207DB2368D80704D423684F
:104A90009B0700F1F880FDE0284631465246099B0D
:104AA000B8470130CED04FF000080C9B013B984531
:104AB000EDDA2846314604F11A020123B8470130E5
:104AC000C0D008F10108F0E70B9B002B28DC28463A
:104AD0003146214A0123B8470130B3D00B9B23B99B
:104AE0000C9B13B92368D907D1D5284631465246C5
:104AF000099BB8470130A5D04FF000080B9B284612
:104B00005B429845314608DA04F11A020123B8479E
:104B1000013097D008F10108F0E74A460C9BA5E068
:104B2000A36D0C9A9A42B4BF93469B46BBF1000F0B
:104B300002DC4FF000081CE0284631464A465B463E
:104B4000B8470130F5D17DE7A19D0000A59D00008B
:104B5000A99D0000AD9D0000FA9D00002846314649
:104B600004F11A020123B84701303FF46BAF08F19A
:104B70000108A36D2BEAEB729A1A9045EEDB09EB64
:104B800003080B9A0C9B9A420FDB2368DA070CD4BC
:104B90000C9B0B9A9944C8EB09099B1A9945A8BF2D
:104BA0009946B9F1000F08DC0FE02846314652461D
:104BB000099BB8470130EBD144E7284631464246CD
:104BC0004B46B84701303FF43DAF4FF000080AE0D4
:104BD0002846314604F11A020123B84701303FF458
:104BE00031AF08F101080B9B0C9A29EAE971D31A3D
:104BF0005B1A9845ECDB4AE70C9A012A01DCDB07DB
:104C000039D5284631464A460123B84701303FF49A
:104C100019AF284631465246099BB84701303FF448
:104C200011AFD4E912010022002303F0E1FF10B11B
:104C30004FF0000811E00C9B2846314609F10102B3
:104C4000013B1CE02846314604F11A020123B84713
:104C500001303FF4F7AE08F101080C9B013B984589
:104C6000F0DB2846314604F150025B46B84701307C
:104C70007FF40DAFE6E6284631464A460123B847A1
:104C80000130EED1DEE64FF00008E2680D9BD31A4A
:104C9000984505DBE0680D9B9842B8BF18460BE0CD
:104CA0002846314604F119020123B84701303FF488
:104CB000C9AE08F10108E8E70FB0BDE8F08F00BF0A
:104CC0002DE9F84315461F468A680B6906469A4245
:104CD000A8BF13462B6091F843200C46DDF82080D6
:104CE0000AB101332B602368990602D52B68023381
:104CF0002B60236813F006091DD094F84330226816
:104D0000003318BF012392061FD5E118302081F827
:104D100043005A1C94F845102244023382F8431091
:104D200013E03046394604F119020123C04701302F
:104D300007D009F10109E2682B68D31A9945F0DB25
:104D4000DBE74FF0FF30BDE8F8833046394604F129
:104D50004302C0470130F4D023682A6803F00603F9
:104D6000E168042B08BFC2EB01052369A2680CBFF0
:104D700025EAE57500259A42C4BFC3EB0203ED188E
:104D80004FF00009A9450ADA3046394604F11A0203
:104D90000123C0470130D4D009F10109F2E7002016
:104DA000BDE8F8832DE9FF470E7E80466E2E0C4647
:104DB00091469A460C9D01F1430000F0A58011D860
:104DC000632E22D009D8002E00F0AF80582E40F07C
:104DD000BF8081F845607B4A4FE0642E1ED0692E6B
:104DE0001CD0B5E0732E00F0A48009D86F2E2BD014
:104DF000702E40F0AD800B6843F020030B6038E06C
:104E0000752E21D0782E34D0A2E02B6801F1420714
:104E10001A1D1B682A6081F842309DE022682B68C9
:104E200012F0800F03D01A1D2A601D6805E051069C
:104E3000F9D51A1D2A60B3F90050002D39DA2D2357
:104E40006D4284F8433034E022682B6812F0800F02
:104E500003D01A1D2A601D6804E05206F9D51A1DF8
:104E60002A601D88237E574A6F2B14BF0A2308230C
:104E70001BE07823544A84F845302368296813F0EE
:104E8000800F01F104062E6001D00D6802E05F067C
:104E9000FBD50D88DE0744BF43F0200323601DB916
:104EA000236823F0200323601023002184F843109B
:104EB00001E0444A0A236668002EA66003DB2168ED
:104EC00021F00401216005B96EB104F14201B5FB86
:104ED000F3F603FB1655555D0F4601F801593546AB
:104EE000002EF4D100E00746082B0AD12368DD0725
:104EF00007D5626823699A4203DC302307F8013C36
:104F0000013FC01B20612CE009682B6811F0800F65
:104F1000626904D0191D29601B681A6005E0490602
:104F2000F8D5191D29601B681A80002323610746E4
:104F300017E02B681A1D2A601F683846FEF79BFF92
:104F400063682061984288BF23612369636005E03C
:104F500004F1420784F8426001232361002384F8AE
:104F60004330CDF800A04046214603AA4B46FFF748
:104F7000A7FE013002D14FF0FF301FE04046494606
:104F80003A462369D0470130F5D023689B0705D402
:104F9000E068039B9842B8BF18460FE00025E2681E
:104FA000039BD31A9D42F3DA4046494604F11902A5
:104FB0000123D0470130DED00135F0E704B0BDE871
:104FC000F08700BFB19D0000C29D00002DE9F04FA9
:104FD00016468A6887B00293531EB3F5AE7F074624
:104FE0000C4606D96FF4AE731A4440F25D138B6021
:104FF00000E000222368A04643F4F0634FF0000B6A
:1050000048F81C3B4546DA46CDF814B0CDF810B050
:10501000D946CDF80CB0A168002900F0E9803368CA
:105020001B78492B75D016D8392B0DD8312B3ED291
:105030002D2B45D002D82B2B42D0D9E02E2B00F0BF
:105040009780302B23D0D3E0452B00F09A80462B5D
:105050007CD0412B0CE0652B00F093800AD8542BB8
:105060007AD002D84E2B33D0C2E0592B7AD0612BA4
:1050700049D0BDE06E2B2BD004D8662B66D0692BAF
:1050800047D0B5E0742B67D0792B6BD0B0E02068A7
:1050900010F4807F0BD020F08000206009F101091E
:1050A000002A00F08C800131013AA16087E00AEB10
:1050B0000B01002940F09C80216821F4C07105E0BB
:1050C0002168080640F1948021F08001216074E09D
:1050D000BAF1000F0ED1B9F1000F0ED1216801F421
:1050E000E060B0F5E06F08D121F4F06121604FF08D
:1050F000010A62E0BAF1020F5DD0BBF1010F20D0CE
:10510000BBF1040F1CE0BAF1010F71D14FF0020A9C
:1051100053E0BBF1000F0ED1B9F1000F6BD1216844
:1051200001F4E060B0F5E06F69D121F4F061216035
:105130004FF0010B41E0BBF1030F02D0BBF1050FB3
:1051400056D10BF1010B5FFA8BFB36E0BBF1020F7E
:105150004ED14FF0030B30E0BBF1060F48D14FF0BA
:10516000070B2AE0BBF1070F42D14FF0080B24E0F8
:10517000216888053CD521F420712160CDF80C9080
:105180001BE0216801F4A060B0F5806F04D04805F1
:105190002ED5B9F1000F32D0880504D403980595B7
:1051A000C0EB0900049021F4F06141F4C07121606A
:1051B0004FF0000901E04FF0030A2B700135A3689E
:1051C000013BA3602369013323617368013B002B1A
:1051D000736003DD3368013333601CE70192D4F858
:1051E0008031384631469847019A00283FF413AF82
:1051F000B9F1000F03D0236823F4807323600AF110
:10520000FF3ABAF1010F10D845452A460BD9D4F818
:105210007C3112F8011C3846324698472369013D1B
:10522000013B2361F0E70126B5E00BF1FF33062BCC
:105230002CD8BBF1020F1AD9ABF1030B5FFA8BFB31
:10524000AA46CBEB050CE2450ED0D4F87C311AF817
:10525000011D3846CDF804C0324698472369DDF871
:1052600004C0013B2361EEE7CBEB05050EE04545AD
:105270002A46D8D9D4F87C3112F8011C3846324677
:1052800098472369013D013B2361F0E72368DA0574
:105290002ED55B050ED545452A46C4D9D4F87C31B8
:1052A00012F8011C3846324698472369013D013BFC
:1052B0002361F0E715F8011C2369652903F1FF3329
:1052C00005F1FF3A23610DD045290BD0D4F87C318C
:1052D000384632469847236915F8021C013BA5F170
:1052E000020A2361D4F87C31384632469847554645
:1052F000266816F010064DD12E70236803F4C063A3
:10530000B3F5806F05D10399C1EB09035A4263B924
:1053100015E0049D9DB1059D3246691C38460A235F
:1053200002F026FC049D421B059D04F26F139D4272
:1053300028BF04F5B77528461949FEF7FFFC41461A
:105340000022384601F0F8FD2268029D12F0020F9B
:10535000804689462B6802D01A1D2A6006E0029D0D
:1053600012F0040F03F104022A6003D01B68C3E9A2
:1053700000890BE01D6801F053FD10B901F0A4FD98
:1053800003E04046494603F0ADFC2860E368013382
:10539000E36000E00026304607B0BDE8F08F00BFB4
:1053A000D39D00002DE9F04115468A6880460C46E1
:1053B00032B98A69002A14BF4FF0FF3201228A6095
:1053C0002268D10603D41A68111D196017680026D7
:1053D000A069E0B923680136DA0604D42B680137E6
:1053E0001B7807F8013C2A686B6801322A60A268C2
:1053F000013B013A6B60A26012B3002BE8DCD4F8E9
:1054000080314046294698470028E1D018E001281D
:1054100007D12A6811786269525C002ADAD1EEB1AC
:105420000EE0022801D04EB10AE02A680C49127839
:1054300009680A4452781307CCD5F4E701280DD047
:10544000236813F0100305D1E2680132E260A2691B
:1054500002B13B70236900201E442661BDE8F08143
:10546000380100102DE9F04F89B00C46984605A987
:10547000734B02918146164693E80700029B83E82E
:105480000700A3696F4A7049032B08BF1146A36840
:1054900003915A1EB2F5AE7F07D96FF4AE7503EBD8
:1054A000050A40F25D13A36001E04FF0000A236893
:1054B00004F11C0743F450632360BB4600233268A9
:1054C00005A951F82300117802220193FEF7BAF9D9
:1054D000019B002835D0012B0BD162682AB9082224
:1054E0006260226842F400722260226822F4A062A4
:1054F0000BE0022B0AD1226802F4C061B1F5007FF3
:105500001FD11021616042F480722260A268511E96
:10551000A160B2B132680BF10105511C3160127803
:105520008BF800207268013A002A726008DC01934F
:10553000D4F88021484631469047019B002841D14C
:10554000AB460133032BBAD163680BB90A236360FE
:1055500063683E496069C91A01F084FC5D464FF0FA
:10556000000BA368002B2FD0326860691178405C73
:1055700050B3302921680BD1080509D50BF1010B77
:10558000BAF1000F0BD001330AF1FF3AA36006E035
:1055900021F4106121601378013505F8013C73682E
:1055A000013B002B736003DD33680133336005E09A
:1055B000D4F8803148463146984728B9A368013B62
:1055C000A360CEE74FF0000B2368D9050DD5BD428F
:1055D00009D915F8011CD4F87C3148463246984761
:1055E00005F1FF3A5546BD4226D0226812F010025E
:1055F0001BD12A70636848463946039EB04722682B
:10560000D8F8003012F0200F07D1D20705D51A1DA7
:10561000C8F800201B68188004E01A1DC8F8002094
:105620001B681860E3680133E3602369ED1BAB443A
:105630005B442361002000E0012009B0BDE8F08F49
:10564000D89D0000717B0000757C0000F49D000077
:1056500070B50E461446054618B183690BB9FDF7BF
:10566000AFFE224B9C4201D16C6808E0204B9C426B
:1056700001D1AC6803E01F4B9C4208BFEC68A369F2
:10568000A360A3891A0709D523693BB12369206860
:10569000F6B2C01A636998420FDB08E0284621463B
:1056A00000F03CF80028F1D04FF0FF3070BD2846E4
:1056B0002146FDF7C1FD0028F6D1A3680130013B6A
:1056C000A36023685A1C22601E706369984204D04C
:1056D000A389DB0707D50A2E05D128462146FDF709
:1056E000ABFD0028E0D1304670BD00BF2C9D00000E
:1056F0004C9D00006C9D000038B5074C054600200D
:105700002060084611461A46FCF73EFA431C02D1B7
:10571000236803B12B6038BDD0070010324B70B541
:105720001D6806460C4625B1AB6913B92846FDF73E
:1057300047FE2E4B9C4201D16C6808E02C4B9C42EA
:1057400001D1AC6803E02B4B9C4208BFEC68A289F6
:1057500093B2190720D4DD0605D4092342F0400294
:105760003360A2813BE0580712D5616B41B104F16F
:105770004403994202D03046FEF79EF8002363634B
:10578000A38923F02403A38100236360236923609A
:10579000A38943F00803A38123694BB9A38903F4C8
:1057A0002073B3F5007F03D030462146FDF7EEFFAE
:1057B000A38913F0010205D00022A260626952425F
:1057C000A26103E0990758BF6269A26022694AB9E1
:1057D00003F0800080B230B143F04003A3814FF06A
:1057E000FF3070BD002070BD340100102C9D000002
:1057F0004C9D00006C9D000038B5064C002305460A
:1058000008462360FCF7A8F9431C02D1236803B1C2
:105810002B6038BDD00700102DE9F74F03690C69E4
:105820008046A342C0F28380013CA20001F114072C
:1058300000F114059146009257F824602A44019221
:1058400055F824200136B2FBF6F6B944002E3BD0C1
:105850004FF0000E3A462846F34652F804CB036850
:105860001FFA8CFA4FEA1C4C0AFB06EA0CFB06FCFA
:105870000CEB1A4C1FFA8AFACAEB0B0B4FEA1C4EC0
:105880001FFA83FA1FFA8CFCDA44CCEB134C0CEBB6
:105890002A4C1FFA8AFA4AEA0C4A4A454FEA2C4B2C
:1058A00040F804ABD9D9009AAB586BB9019A131FD1
:1058B000AB421A4602D8C8F8104005E01268043B13
:1058C000002AF8D1013CF3E7404601F0BCF800287B
:1058D0002BDB01362B46002057F804CB1A681FFA41
:1058E0008CF1411A1FFA82FA4FEA1C4C5144CCEB5E
:1058F000124202EB214289B210144F4541EA0242A2
:1059000043F8042BE8D955F8242005EB840362B949
:10591000043BAB421A4602D8C8F8104005E01268B2
:10592000043B002AF8D1013CF3E7304600E00020B8
:1059300003B0BDE8F08F00002DE9F04F456A9BB041
:105940008246279CCDE9042345B91020FDF76AFF64
:10595000CAF82400456085600560C560DAF8243027
:10596000196861B15B6801224B6002FA03F350468B
:105970008B6000F046FEDAF8243000221A600598A9
:10598000002805DA012320F000412360059101E0A1
:1059900000232360059F9C4A27F000431B0D1B0535
:1059A00093421DD1269A42F20F731360049B43B9B0
:1059B000964B974AC7F3130000280CBF10461846B1
:1059C00000E09248289F002F00F07185C37813B142
:1059D00000F1080300E0C31C289F3B6000F067BD96
:1059E000DDE90445002220462946002303F000F9A2
:1059F000804658B1269F01233B60289F002F00F06E
:105A0000538584483860013800F051BD19AB0093CC
:105A100018AB0193504622462B4601F006F9C7F316
:105A20000A5683465EB1C5F3130343F07F51204607
:105A300041F44011A6F2FF36CDF854801CE0199BCA
:105A4000189E1E446FF482639E4209DB04991F3343
:105A500006F212409B1B21FA00F09F40384304E0FD
:105A60006D48049A801B02FA00F002F0E3FD012762
:105A7000A1F1F871013E15970022684B02F09CFCE1
:105A80005BA3D3E9002302F04BFE5BA3D3E9002321
:105A900002F094FC044630460D4602F0DBFD58A3AC
:105AA000D3E9002302F03CFE02460B46204629467D
:105AB00002F084FC04460D4603F0CCF829468146EA
:105AC00000222046002303F09DF858B1484602F01A
:105AD000C1FD02460B462046294603F089F808B965
