:10000000008000103510000065100000671000002F
:10001000691000006B1000006D100000000000006F
:100020000000000000000000000000006F10000051
:100030007110000000000000731000007510000037
:100040007710000077100000771000007710000094
:100050007710000077100000771000007710000084
:100060007710000077100000771000007710000074
:100070007710000077100000771000007710000064
:100080007710000077100000771000007710000054
:100090007710000077100000771000007710000044
:1000A0007710000077100000771000007710000034
:1000B0007710000077100000771000007710000024
:1000C00077100000771000007710000010B5054C85
:1000D000237833B9044B13B10448AFF300800123F4
:1000E000237010BD1803001000000000380001004C
:1000F00008B5064B1BB106480649AFF30080064819
:10010000036813B1054B03B1984708BD0000000018
:10011000380001001C030010140300100000000050
:10012000154B002B08BF134B9D46A3F5803A0021C9
:100130008B460F461348144A121A0AF04CF80F4B1C
:10014000002B00D098470E4B002B00D09847002082
:10015000002104000D000D48002802D00C48AFF328
:10016000008009F075FF2000290001F059FE01F020
:10017000DFF900BF00000800008000100000000050
:100180000000000018030010F83F001000000000FD
:100190000000000038B504460D461048104901F033
:1001A00051F823888BB1362B03D000232380032002
:1001B00038BD882D10D10B4D072009F0C1FB2878E0
:1001C00009F0B6FB2B7801332B7007484FF47A7196
:1001D00002F0F6FC36232380012038BD38030010DE
:1001E000ED01000034030010B003001038B50E4CD0
:1001F0002368013304D10D480D492C2201F01CF96C
:1002000063691D6863681D402368013304D1074892
:100210000749242201F010F90DB9E36800E02369D1
:1002200062681A6038BD00BF9803001080F20000B9
:1002300098F2000010B50B4C0B49204600F0C4FFAB
:1002400020460A4C0A490B4A09F088FB2046002147
:10025000182209F0C0FF20460749BDE8104001F010
:10026000C2B900BF3803001009C00920980300106C
:1002700089110000C800001046C00920431C10B5B9
:10028000044604D106480749152201F0D5F8204656
:10029000002100F05FF904F01F040120A04010BD10
:1002A00085F200002DF3000038B504464B1C0D46C6
:1002B00021600FD00846FFF7E1FF25F01F0505F18B
:1002C0001803E36005F11C03236105F1140360606A
:1002D0006361A56038BD006800F064B938B5036893
:1002E000044601330D4604D10A480B492C2201F083
:1002F000A3F815B1012D06D038BDA36861681A684E
:1003000022EA010203E0A368626819680A431A60DE
:1003100038BD00BF80F200002DF300002DE9F84346
:10032000364BD3F804809F685E6A9C6A1D46B8F11C
:10033000000F27D0B8FA88F9314BC9F11F095FFACD
:1003400089F953F8290018B12E4B01211B689847F1
:10035000012303FA09F3EB60C3EB0808E7E7B7FAF8
:1003600087F8274BC8F11F085FFA88F853F8280070
:1003700018B1244B02211B689847012303FA08F3A4
:10038000EB60FF1A002FEAD10BE0B6FA86F7C7F14F
:100390001F07FFB20F2F07D9012303FA07F7EF62F8
:1003A000F61B002EF1D117E0154B07F1200253F890
:1003B00022000028F0D0134B01211B689847EBE77F
:1003C000B4FA84F6C6F11F06F6B20F2E07D9012340
:1003D00003FA06F6EE62A41B002CF1D10BE0084BE9
:1003E00006F1200253F822000028F0D0054B02212C
:1003F0001B689847EBE7BDE8F88300BF80800240A8
:10040000C4030010C003001070B51D464B1C044609
:1004100023D0134B1A6021F01F03124A036001F02E
:100420001F0321F05F0191424360164602D00E483F
:1004300001F06EF821686268B14218BF20320B4BA0
:10044000A26015200A4943F8225000F015FE094B1E
:100450004FF400121A60002070BD084670BD00BF46
:10046000C003001000C00920ACF30000C40300105A
:100470001D03000000E100E08268024B002143F808
:1004800022107047C403001010B52F4C0368A3421C
:1004900009D04034A3420CD14368012404FA03F389
:1004A0002A4CE36205E04368012404FA03F3274C75
:1004B000E36001290368244C1FD1A34203D04034D8
:1004C000A3420DD010BD4068204B1AB181401A697B
:1004D000114303E081401A6922EA0101196110BD4C
:1004E00040681A4B1AB181401A6B114303E08140F6
:1004F0001A6B22EA0101196310BDA34203D014490B
:100500008B4210D010BD01244168104B22B104FA77
:1005100001F15A69114304E004FA01F15A6922EA2F
:100520000101596110BD01244168084B22B104FA50
:1005300001F15A6B114304E004FA01F15A6B22EA0B
:100540000101596310BD00BF00C009208080024036
:1005500040C0092038B5431C04460D4604D10F485D
:100560000F49152200F068FF04F16040A0F51C203F
:1005700000F00F0252000321914005FA02F2030934
:100580009B0003F1804303F53033186820EA010132
:10059000196019680A431A6038BD00BF85F200006F
:1005A000D9F3000038B5431C05460C4604D1194860
:1005B0001949202200F040FF05F16040A0F51C2001
:1005C000C4F3800200F01F0102FA01F143099B000D
:1005D00003F1804303F530339D6E25EA01059D66E6
:1005E0009D6E294399669AB900F00F0252000321CB
:1005F000914004FA02F203099B0003F1804303F5E2
:100600003033186C20EA01011964196C0A431A642A
:1006100038BD00BF85F20000D9F30000012810B5F5
:100620000B4602D002280FD010BD014638204343AC
:10063000124AD058D418F8B111B994F83630DBB159
:100640000F4B1B68984710BD0C49382000FB031066
:100650004468013409D004690430406820603820BF
:1006600000FB031191F8361009B10021DEE7506854
:1006700020F001005060D9E710BD00BF8C040010CD
:1006800088040010034A00219068C0F34200FFF77D
:10069000C5BF00BF00C00040034A01219068C0F3FD
:1006A0004200FFF7BBBF00BF00000140034A022128
:1006B0009068C0F34200FFF7B1BF00BF008009405F
:1006C000034A03219068C0F34200FFF7A7BF00BFB1
:1006D00000C0094070B5294C0368A34211D006DC64
:1006E000A4F58044A34212D1254C052511E0254CE8
:1006F000A34209D004F58044A34208D1224C082526
:1007000007E0224C062504E0214C072501E00024E7
:1007100025467AB1012606FA01F16DB2284606FA9D
:1007200005F55A6811435960214600F0A5FC194BA4
:100730001D6070BD01290AD04468174A382606FB9F
:10074000042292F8354030329279E24215D10122EA
:1007500002FA01F6D1F1010138BF002102FA01F1DC
:100760005C6824EA06045C6003685B68194204D193
:1007700002FA05F5074BC3F8805070BD0000014038
:100780008506000000800940C106000099060000AF
:10079000AD06000000E100E08C0400102DE9F04FF0
:1007A000694A036887B0934205460C4604DD6748F2
:1007B00067499B2200F040FE2B68664A934223D093
:1007C0000FDCA2F58042934239D1634BD3F8A821C4
:1007D00022F0C002C3F8A821D3F8A82142F04002B9
:1007E0001DE05E4A93421DD002F58042934226D11D
:1007F000594BD3F8AC2122F44022C3F8AC21D3F8F2
:10080000AC2142F4802218E0534BD3F8A82122F403
:100810004072C3F8A821D3F8A82142F48072C3F82B
:10082000A8210CE04C4BD3F8AC2122F44032C3F8A1
:10083000AC21D3F8AC2142F48032C3F8AC21484B50
:100840002701D3F80090B9FBF7F307FB13971FFAC2
:1008500083FC002F57D0012100208DE80300A24621
:100860004E4602947300B700CAB204930597D0466F
:100870000020049FC3B2002F039303DAB7FBF8F301
:100880001B0904E0DDF814B0BBFBF8F35B0901338E
:10089000C3F34F03039F002B08BF012317B1012BA4
:1008A00098BF022300EB010B0BFB03FB4FEACB0BC2
:1008B000B6FBFBFB0BF1010BC4EB5B0B029FBBF127
:1008C000000FB8BFCBF1000BBB4507DAA3450DD035
:1008D000039FCDF808B0019200979C460130C3B247
:1008E0009342A044C5D3019A002304E003989C4698
:1008F0000294009001230F2907D001314E44A244F5
:100900001BB90192AEE7012200972B68DDF800B019
:10091000197B4BEA021241F0800119732B68CCF36A
:10092000072119712B685FFA8CFC83F800C02B68D3
:10093000D2B283F828202B681A7B02F07F021A7348
:1009400007B0BDE8F08F00BF00C00940E8F4000028
:1009500001F500000000014000C00F400080094088
:10096000DC000010F8B55D1E012D07460C4616464A
:1009700004D914481449FB2200F05EFD053C032C09
:1009800004D912481049FC2200F056FD042E04D967
:100990000F480D49FE2200F04FFD013EF6B2032E36
:1009A00003D80C4B9A57012301E00022134644EA76
:1009B000850444EAC303396843EA0212D2B20A73D7
:1009C000F8BD00BF82F5000001F50000A7F50000AA
:1009D000CAF500005EF6000010B502680346117DFE
:1009E000C907FCD510785968084A382404FB01224D
:1009F0005168C0B2013108D05169043252680A60AE
:100A00001B685A6842F001025A6010BD8C04001045
:100A100038B5436838215943164A04465318D869F3
:100A2000013015D001F1180313441D1D5B6801331B
:100A300004D1114811492C2200F0FEFC6B691A68A0
:100A40006B681A4214D12368187DC0F3801038BD3A
:100A500022683033127D12F0200F03D000221A7169
:100A6000012038BD18790F288CBF0020012038BD27
:100A7000002038BD8C04001080F2000098F20000C5
:100A800038B504460D462046FFF7C2FF0028FAD0CD
:100A90002368EDB21D706368044A382101FB03230B
:100AA00093F83420013283F8342038BD8C040010D0
:100AB0002DE9F84F98463A4C03680546A34218BF03
:100AC00000240E461746D0F804901CB1237C03F096
:100AD0003F032374DFF8D4A0382303FB09A24FF0AF
:100AE000FF31D16151606A68002103FB02A32846EF
:100AF00083F835100A46FFF7EDFD002E4ED0294948
:100B0000384600F0A3FD28498346404600F09EFD8C
:100B1000B31E012B17D8B8F1FF3F3DD0204B9842B0
:100B200009D144B1237C404643F0800323741E491D
:100B300000F05EFD30E0382000FB09A041461C308B
:100B400000F037FD28E0012E28D17B1C26D02B6831
:100B500007221A72124B9B450AD14CB1237C3846AE
:100B600043F0400323740F49BDE8F84F00F040BD47
:100B7000382404FB09A039460430002200F01CFD93
:100B80006B68012204FB03A484F835202846002169
:100B9000BDE8F84FFFF79EBD032ED5E7BDE8F88FFF
:100BA0000000014058F40000D0F600008C04001052
:100BB0002DE9F84304460F4608464D49164600F015
:100BC00051FD4C490546304600F04CFD0146284693
:100BD00000F02AFD411C054604D1474847495C22E4
:100BE00000F02AFC464B25609D4217D009D8A3F59A
:100BF00080439D421FD1434BD3F8C42042F00802EA
:100C000017E0414B9D420FD003F580439D4212D126
:100C10003C4BD3F8C42042F000720AE0394BD3F8C1
:100C2000C42042F0100204E0364BD3F8C42042F056
:100C30008072C3F8C42023684FF0010983F808903C
:100C400023684FF00008C3F8048020464FF4165183
:100C5000FFF7A4FD42464B4620460821FFF782FEDF
:100C60003846234900F0C4FC3046224900F0C0FC5D
:100C70007A1C03D038464146FFF794FC731C03D01E
:100C800030460021FFF78EFC1D4B9D420FD005D84A
:100C9000A3F580439D420ED100230BE01A4B9D42E9
:100CA00007D003F580439D4205D1032302E00123D1
:100CB00000E0022363606268144B382101FB0230BC
:100CC0004FF0FF324260606801FB00332046DA617A
:100CD00000211346FFF7ECFE0D4B9D4206D10D4B54
:100CE00001221A6020680C4B616803C3BDE8F883D9
:100CF00064F600007CF400004EF6000001F50000F0
:100D00000000014000C00F40008009408C0400102A
:100D100000C00040840400106C050010F8B51546B2
:100D200002681F465368044623F0020353600B1FFA
:100D30000C2B0E4601D8032D04D912481249642207
:100D400000F07AFB216805F001030A68013E46EADB
:100D5000C316120CC5F34005120446EA85152A4352
:100D60000A602268002F53680CBF0021042123F081
:100D70000D030B43536023685A6842F002025A6025
:100D8000F8BD00BF6CF70000A6F700002DE9F041A8
:100D9000036804465A680E4622F002025A6003684D
:100DA0002D4A934211D002F5B02293421AD12B4B17
:100DB000D3F8AC2122F44062C3F8AC21D3F8AC21C3
:100DC00042F48062C3F8AC210CE0244BD3F8A82194
:100DD00022F44012C3F8A821D3F8A82142F48012CB
:100DE000C3F8A8211E4B02251F68B7FBF5F00EF0D3
:100DF00073F8804630460EF06FF8014640460EF01C
:100E000073F94FF07C510DF0B3FF0DF025FC08F0A5
:100E1000CBFE0DF00FFFFF2815DC236801381D61A4
:100E20002268136823F47F0323F47F43136023684D
:100E30001A6842EA0020186023685A6842F00202E9
:100E40005A60BDE8F0810235B5F5807FCDD1054807
:100E5000BDE8F04100F05CBB0000034000C00F4063
:100E6000DC00001024F800002DE9F74F0446884606
:100E70000846364917461E460C9D00F0F3FB3449E0
:100E800003463846019300F0EDFB32498146304677
:100E900000F0E8FB30498346284600F0E3FB019B65
:100EA00049468246184600F0BFFB514681465846E7
:100EB00000F0BAFB0146484600F0B6FB2060013066
:100EC00004D126482649442200F0B6FA2368254A70
:100ED000934209D002F5B02293420CD1224BD3F8B1
:100EE000C42042F4001204E01F4BD3F8C42042F4A3
:100EF0008062C3F8C4206B1C4FF000020CBF134685
:100F0000012320460821FFF709FF20461749FFF774
:100F10003DFF236840465A680C4942F002025A607D
:100F200000F066FB38460A4900F062FB304609498A
:100F300000F05EFB6B1C06D00749284603B0BDE8F5
:100F4000F04F00F055BB03B0BDE8F08F60F8000033
:100F5000F4F6000030F700009CF800004BF80000A9
:100F6000A6F700000000034000C00F4040420F0001
:100F70000368DA689207FCD599600368DA6852075B
:100F8000FCD598687047000008B5114B1A68EAB99B
:100F9000012119600F4BD3F8C40040F40000C3F8DE
:100FA000C400A3F5D0231A670B4A022012685860C8
:100FB0000A489208B2FBF0F2013ADA600420596064
:100FC000074900F059F8074B10221A6008BD00BF0E
:100FD0007405001000C00F40DC00001040420F00FC
:100FE0004918000000E100E008B5044B1B680BB98C
:100FF000FFF7CAFF024B986808BD00BF74050010D8
:1010000000400940034B98615A6942F001025A615D
:10101000704700BF00400940024B5A6922F00102AC
:101020005A61704700400940014B01221A60704725
:10103000004009400649074A074B9A42BEBF51F893
:10104000040B42F8040BF8E70448804704480047C3
:1010500044000100C800001014030010B910000083
:1010600021010000FEE7FEE7FEE7FEE7FEE7FEE700
:10107000FEE7FEE7FEE7FEE710B50C4A94689268CB
:101080002346B2F1805F0DD2094B04F17042043265
:10109000D25843F8042F074A9342F6D1034A4FF03F
:1010A00080539360103043F8201010BD00ED00E035
:1010B000FCFFFF0FC0000010264B2022C3F8A02128
:1010C000D3F8A021910603D5D3F8A0215206FBD571
:1010D0000222C3F804210022C3F8A8210120C3F88A
:1010E000AC210B22C3F80C01AA21C3F8842055229D
:1010F000C3F88C10C3F88C20C3F88000C3F88C10A0
:10110000C3F88C20134AD2F888305B01FAD5032348
:10111000C2F88030AA23C2F88C305523C2F88C3034
:10112000D2F888100B4B11F0407FF9D00522C3F89C
:101130000821094AC3F8C4200022C3F8C8211A684C
:1011400022F4704222F03A0242F4405242F03A0253
:101150001A60704700C00F40DE87280400224260FA
:10116000826101607047002301604360704708B5E9
:10117000036801460BB1984708BD406810B18B6900
:101180000831984708BD000010B5044A044640F8ED
:101190001C2BFFF771F9204610BD00BFE8F80000D6
:1011A00010B50446FFF7F0FF204608F0D3FB2046B9
:1011B00010BD012902D0022902D07047283000E07A
:1011C0004430FFF7D4BF0000F8B5134B064646F88D
:1011D000043B044600250F4618223046002108F043
:1011E000FAFF2946E5612562656204F12800FFF7F0
:1011F000B5FF294604F14400FFF7B0FF3946074A1E
:10120000234604F11C00FFF7FFF83046394600F092
:10121000D0F92046F8BD00BFE8F80000B311000087
:1012200010B50A4600F11C0431B12830FFF79BFFCE
:10123000012120460A4601E020460121BDE8104078
:10124000FFF722B910B50A4600F11C0431B1443051
:10125000FFF789FF20460221012201E020460221FA
:10126000BDE81040FFF710B9014B0360704700BFA5
:1012700018F9000010B5034B0446036008F06AFB40
:10128000204610BD18F9000073B504460E4800262C
:1012900020600820A0600D48251D20614FF0FF3020
:1012A000009066602846E660FFF7DEFD2846A168EC
:1012B000E2683346FFF732FD28462169FFF766FDF5
:1012C000204602B070BD00BF18F9000040420F0078
:1012D00070B5094D04462B6883420BD0061D30467D
:1012E000A168E2680023FFF719FD30462169FFF786
:1012F0004DFD2C6070BD00BF78050010034BC2602F
:10130000816000221A60FFF7E3BF00BF780500107C
:10131000024B002201611A60FFF7DABF7805001066
:1013200038B504460D46FFF7D3FF201D2946BDE81A
:101330003840FFF71DBE70B5D0E90645D0E902235D
:101340001219064643EB050300F06AF806F1200087
:10135000BDE87040FFF70BBF10B5044600F068F819
:1013600004F120000021BDE81040FFF7FCBE0000A2
:1013700010B5054B04460360FFF7EEFF204600F072
:1013800025F8204610BD00BF58F9000010B50446EE
:10139000FFF7EEFF204608F0DDFA204610BD70B5DD
:1013A000064614461D4600F043F8C6E90645FFF719
:1013B0001BFE221845F100033046BDE8704000F0E6
:1013C0002FB808B503689B68984708BD10B5044A54
:1013D000044640F8082B00F087FA204610BD00BFF5
:1013E00078F9000010B50446FFF7F0FF204608F03A
:1013F000B1FA204610BD000010B5074B0022036073
:101400000023C0E90223002304460361436103482B
:1014100000F010FA204610BD78F90000C313000058
:1014200007B50090083000F03BFA03B05DF804FB0C
:10143000083000F059BA000013B50B4606490446BF
:1014400009680092C8682246044908F0D1FD02B03C
:10145000BDE8104000F01AB8C00200109CF900006E
:1014600038B50368044601330D4604D105480649E2
:101470002422FFF7E1FF63680DB1E26800E0226912
:10148000136038BD80F2000098F2000000B599B0FA
:1014900072B61B49684600F0A6F806A8194900F084
:1014A000A2F80CA8184900F09EF812A8174900F0FD
:1014B0009AF868460121FFF7D3FF06A80021FFF73D
:1014C000CFFF0CA80021FFF7CBFF12A80121FFF7E7
:1014D000C7FF962000F031FA68460021FFF7C0FFF1
:1014E00006A80121FFF7BCFF0CA80121FFF7B8FFF8
:1014F00012A80021FFF7B4FF962000F01EFAD8E7EB
:1015000032C0092034C0092035C0092037C0092065
:101510000FB407B5054B04AA1B6852F8041BD86822
:10152000019209F041FB012000F002F8C002001016
:1015300008B50A4C05462368986808F089FC2368BA
:10154000D86808F085FC00F051F808B100F05EF9A9
:1015500005B9FEE7FFF79AFFFBE700BFC0020010E6
:1015600038B50368044601330D4604D105480649E1
:101570002422FFF761FF63680DB1E26800E0226991
:10158000136038BD80F2000098F2000070B50E467E
:1015900004461546FEF788FE013609D02046002194
:1015A000FEF79CFE20462946BDE87040FEF793BE3C
:1015B00070BD0322FFF7EABF70B50D46044616461C
:1015C000FEF772FE01350DD020463146FFF7C8FF09
:1015D00020460121FEF782FE20460221BDE8704030
:1015E000FEF779BE70BD0022FFF7E6BF00F01AB922
:1015F00010B50446013001D110BD0C310B685A1CE6
:101600000BD0A342F9D120468968FEF7A3FF2046FC
:101610000221BDE81040FEF7C5BF0248BDE81040FA
:10162000FFF776BFCDF90000884208B50AD0431C09
:1016300007D0013106D00448FFF76AFF4FF0FF30B2
:1016400008BD084608BD00BFDEF900000B685A1C43
:1016500005D0834201D1486870470C31F6E718463F
:1016600070470000421C10B5044607D0FFF7EEFF9C
:10167000431C044602D10248FFF74AFF204610BD32
:10168000EFF90000044B1B6823B904480449054ADC
:10169000FFF78EBA704700BF840400106C0500107D
:1016A00002C0092003C00920022808B54FF000033A
:1016B0000ADD084AC11E52F8210042F8213028B143
:1016C00003685B68984708BD184608BD4FF0FF30B7
:1016D00008BD00BF7C050010022870B50C461546F9
:1016E0000FDC0E4B1B680BB9FFF7CCFF6619B44239
:1016F00005D00B4814F8011BFFF7C2F9F7E728469D
:1017000070BD084B033853F8200018B103681B68FC
:10171000984770BD4FF0FF3070BD00BF84040010CB
:101720006C0500107C050010022810B50C460ADC80
:101730000B4B1B680BB9FFF7A5FF0A48FFF74CF9E5
:101740002070012010BD084B033853F8200018B159
:1017500003689B68984710BD4FF0FF3010BD00BF75
:10176000840400106C0500107C050010022808B5E8
:1017700008DD074B033853F8200028B10368DB6805
:10178000984708BD012008BD4FF0FF3008BD00BFDD
:101790007C050010022808B508DD074B033853F814
:1017A000200028B103681B69984708BD002008BDC8
:1017B0004FF0FF3008BD00BF7C050010022808B5BF
:1017C00004D84FF400534B60002008BD08F08CFA99
:1017D000092303604FF0FF3008BD08B50120FFF773
:1017E000A7FE0000074A13681844EFF308818842F7
:1017F00005D3054B0C221A604FF0FF307047106084
:1018000018467047E0000010F43F001030B585B076
:101810006D46182420462946ABBE0446204605B036
:1018200030BD0000024B186800F00100704700BF97
:10183000F0ED00E010B50446FFF7A6FB014B1C607D
:1018400010BD00BF8006001070B5FFF7EDFB124E13
:1018500033681BB9BDE87040FFF7DEBBD3E9004534
:10186000FFF7C2FB221A65F1000310461946012852
:1018700071F1000309DA3268D3683360074B1B68E3
:10188000002BE4D090689847E1E73368BDE87040EA
:10189000D3E90001FFF7B6BB7C06001080060010FC
:1018A000F8B5074672B60699C0E9002381600D4875
:1018B000002106685EB1D6E90045141B63EB0505FF
:1018C000002C75F1000C02DB3146F668F2E729B90D
:1018D000076019461046FFF795FB00E0CF60FE60F9
:1018E00062B6F8BD7C06001008B572B60C4A1368E3
:1018F00083420ED1DB68136013B9FFF78DFB0DE057
:10190000D3E90001FFF77EFB08E0DA68824203D0EA
:101910001346002BF9D101E0C268DA6062B608BD57
:101920007C06001038B50446FFF75EFB0546FFF75E
:101930005BFB401BA042FAD338BD4FF47A73584387
:10194000FFF7F0BF00207047813801288CBF0020CE
:101950000120704708B5074801F0F7FA40B1054883
:101960003E2101F0E0FABDE80840034807F0AABFB5
:1019700008BD00BF8C06001018FA0000812810B5C1
:101980000FD1094C51B10948002101F0CCFA0848A7
:101990000849FFF757FC0120206010BD216001209D
:1019A00010BD002010BD00BF880600108C0600107E
:1019B000940600105519000010B5064C0649204643
:1019C000FFF702FC20460549054ABDE8104007F034
:1019D000C5BF00BF9406001048C00920891100004F
:1019E000C800001010B5084C2368013304D1074823
:1019F00007492C22FFF720FD63691A6863681A42C1
:101A00000CBF0020012010BDF406001080F2000081
:101A100098F2000038B5084C05462368013304D11C
:101A2000064807492422FFF707FD0DB1E36800E0EF
:101A3000236962681A6038BDF406001080F2000065
:101A400098F2000010B5012104460F48FEF746FC4D
:101A5000012C4FF0000009D1FFF7DCFF0A20FFF74F
:101A600061FF2046FFF7D6FF372008E0FFF7D2FFDF
:101A70004120FFF757FF0120FFF7CCFF0520BDE80D
:101A80001040FFF74FBF00BFF406001038B5104CF0
:101A900001212046FEF722FC0020FFF7BBFF0320B8
:101AA000FFF740FF0120FFF7B5FF0A20FFF73AFFDD
:101AB00020460021FEF712FCFFF794FF01210546A6
:101AC0002046FEF70BFC3520FFF72CFF284638BDDB
:101AD000F406001038B500242546FFF7D7FF18B1EB
:101AE0000123A3401D43EDB20134082CF5D1284653
:101AF00038BD000070B537483749FEF7D5FB35488B
:101B00000021FEF7E8FB01213248FEF7E7FB002049
:101B1000FFF780FF4FF40770FFF704FF0120FFF786
:101B200079FF00212B48FEF7D9FB4120FFF7FAFE91
:101B3000FFF758FF012104462648FEF7CFFB4FF47C
:101B40000770FFF7EFFE14F0FF0F3BD10824332599
:101B500005F00100FFF776FF013C4FEA5505F7D18C
:101B6000FFF7B8FF07260446FFF7B4FF1B4DA85543
:101B7000013E012EF8D1FFF7ADFF012C22D1082341
:101B800014F0010F4FEA540418BF84F08C04013B99
:101B9000F6D10723EA5C5440082214F0010F4FEA03
:101BA000540418BF84F08C04013AF6D1013B012B98
:101BB000F0D1844206D12A701A226A704C22AA708F
:101BC000184670BD00210822044808F004FB0020DC
:101BD00070BD00BFF40600103DC009200C070010C6
:101BE00038B50368044601330D4604D1054806495B
:101BF0002422FFF721FC63680DB1E26800E022694E
:101C0000136038BD80F2000098F2000008B5094862
:101C10000949FFF7E8FC09480949FFF7E4FC0948CE
:101C20000949FFF7E0FCBDE8084008480849FFF70C
:101C3000DABC00BF1407001032C009202C070010C6
:101C400034C009204407001035C009205C0700108B
:101C500037C0092010B5044604F004010948FFF715
:101C6000BFFF04F001010848FFF7BAFF04F00201CA
:101C70000648FFF7B5FF04F008010548BDE810402D
:101C8000FFF7AEBF44070010140700102C07001028
:101C90005C0700102DE9FF41344B1B689847002377
:101CA00002A80293039300F0C7F810B1304808F07F
:101CB000FBFB304A02AB03CB1060516002A807F077
:101CC00083F9002102AA4AF6CD3000F061FC2A4CCB
:101CD0001A2000F001FC294D002000F023FD07F040
:101CE00057FC636898476B689847254B4FF47A77A1
:101CF0005B6898472E68256800F0E8FBE469804639
:101D0000A04718B1A04797FBF0F400E03C4600F074
:101D10000BFD2A464346314600940190194808F0CD
:101D2000FBFA194808F0C0FB184808F0BDFB002179
:101D3000174801F0ABF8174808F0EEFA4FF0FF3003
:101D400004F04CFD002405462B1913489978DA78E5
:101D5000023408F0E1FA0E2CF6D1297C6A7C0F4897
:101D600008F0DAFA04B0BDE8F08100BF24FB0000FF
:101D700028FA0000F521001074FB00009CFB000015
:101D8000D8FB000047FA000079FA000085FA00004D
:101D90000002001095FA0000B8FA0000C2FA000034
:101DA00010B5184B1C785CBB01221A7000F0A0FD26
:101DB00000F0B2FD00F05AFD1349144808F0ACFAE7
:101DC00007F0A8FD01F086F800F0C4FF2146104896
:101DD00001F05CF8FFF78EFE07F004FD07F000FD50
:101DE00000F0F0FDFFF756FF21460A4801F04EF8DB
:101DF000094800F09DFDBDE81040084808F054BBBC
:101E000010BD00BF74070010E7FA0000CCFA000014
:101E10000C0100104C02001078F20000F3FA0000F0
:101E200008B5FFF7BDFF042007F082FD00F0AAFF10
:101E300000F077FDFAE700000023044A9A5CC254E0
:101E40000133082BF9D10020704700BF00FB0000D0
:101E50001FB50B4B0B4C00933733019301330293A7
:101E60000133039320460849084A3E3B00F048F8F6
:101E70000749084A204604B0BDE8104007F06EBD8F
:101E800014C009207807001012C0092011C00920D1
:101E9000551F0000C800001038B5182204460D4632
:101EA000002108F098F920462946FFF79CFB2046C0
:101EB00038BD000070B5436F044601330E4604D1AF
:101EC0000C480D492422FFF7B7FAD4F88030A26FEE
:101ED00004F160051A60284608210022FFF70EFA77
:101EE00028463146FFF714FA20460449BDE8704001
:101EF000FFF796B980F2000098F20000052100007B
:101F0000F7B50D460B9904461E461746FFF75CF9D8
:101F10004FF0FF333A4600932946334604F1600000
:101F2000FFF7B2F9089904F17400FFF7B5FF0999BA
:101F300004F18C00FFF7B0FF0A9904F1A400FFF749
:101F4000ABFF20460249FFF7B5FF204603B0F0BDC6
:101F500000093D0010B5034B04460366FFF714F972
:101F6000204610BD18F9000038B5094C0546636FCE
:101F7000013304D1074808492422FFF75DFA15B15F
:101F8000D4F8803001E0D4F88430A26F1A6038BDF4
:101F90007807001080F2000098F2000037B500F0DA
:101FA0003F0040F0800572B60B4C0020FFF7DCFFCD
:101FB00029462046FFF7B4F900212046FFF7B0F983
:101FC000C0B28DF807000120FFF7CEFF62B69DF882
:101FD000070003B030BD00BFD807001070B506463B
:101FE0000D4672B6084C0020FFF7BEFF46F0C00158
:101FF0002046FFF795F929462046FFF791F9012081
:10200000FFF7B2FF62B670BDD807001038B50C46B6
:102010001546FFF7C3FF20402841C0B238BDF7B5D1
:102020000C4616461F460546FFF7B8FF07FA06F6A8
:102030008DF807009DF80730284623EA04038DF841
:1020400007309DF8071034402143FFF7C7FF03B066
:10205000F0BD0000F8B5044672B60020FFF784FF1B
:1020600020211648FFF75CF914480021FFF758F9C2
:10207000C6B2F31E7C2B04D90023237084F8803071
:1020800014E026700D480021FFF74AF9671CC0B222
:102090000025785500210948FFF742F90135EBB2D8
:1020A0009E42C0B2F5D184F88000012384F88130CB
:1020B0000120FFF759FF62B6F8BD00BFD807001036
:1020C00038B504460D4672B60020FFF74DFF60217B
:1020D0000B48FFF725F929460948FFF721F9033D89
:1020E000EDB20135254414F8011B0548FFF718F936
:1020F000AC42F8D10120FFF737FF62B638BD00BF10
:10210000D807001013B572B60020FFF72DFF0F207F
:10211000FFF744FF04460120FFF726FF62B663077E
:1021200039D4200717D50120FFF738FF00F01F0032
:102130008DF807009DF80730112B1BD09DF8073054
:10214000062B17D09DF80730012B13D09DF80730D0
:10215000162B20D10EE061061DD4A2071BD1230649
:1021600019D50E20FFF71AFF00F07F010E20FFF7B0
:1021700035FF10E0094C0A4B2278822000FB023028
:10218000FFF768FF23780133DBB2022B00D900236D
:10219000237000F037FA02B010BD00BF37080010FE
:1021A000BB080010014B1878704700BF34080010BE
:1021B0000A460231090608B5034605D41946044803
:1021C00007F0E5FF002008BD4FF0FF3008BD00BF5D
:1021D0003808001038B50368044601330D4604D1B1
:1021E000054806492422FFF727F963680DB1E26824
:1021F00000E02269136038BD80F2000098F2000010
:1022000010B50A4CD4F8A430013304D10848094968
:102210002C22FFF711F9D4F8B8301A68D4F8A83096
:102220001A420CBF0020012010BD00BF780700102B
:1022300080F2000098F2000008B5FFF7E1FF30B12E
:1022400008480021FFF7C6FF0620FFF76BFB0220BE
:1022500003231F210022FFF7E2FEBDE80840012012
:10226000FFF760BB1C08001010B50446FFF7C8FF5D
:10227000024648B90F218C4234BF23460B46052045
:10228000BDE81040FFF7CBBE10BD08B5FFF7B8FFA3
:10229000024648B91F210120FFF7B8FE00F0EF0009
:1022A000431E5842584108BD002008BD10B5FFF735
:1022B000A7FF0446012084B91F212246FFF7A6FE8E
:1022C0001F2808D020F010000138C0B2012894BFA8
:1022D0000020012010BD204610BD10BD08B5FFF73D
:1022E0008FFF18B9FFF7E2FF0028F8D008BD000003
:1022F00008B50A4B00221A70FFF782FF60B9FFF79A
:10230000EDFFFFF77DFF38B9FFF796FFBDE8084006
:1023100003480121FFF75EBF08BD00BFB9080010E8
:102320001C08001008B5044B1B781BB1FFF7BEFF5B
:10233000FFF7DEFF002008BDB908001001201F21B3
:102340000022FFF763BE38B50446FFF7C7FFFFF76B
:10235000F5FF8442054632D0082C04D1FFF750FF28
:10236000FFF76AFF1CE0192C01D1162802E0162C99
:102370000AD1192808D102201F2100220923FFF7C2
:102380004EFE0120FFF7CEFA02201F210022234635
:10239000FFF745FE082D0CBFB4200120FFF7C2FA5D
:1023A000FFF7CCFFA0420AD0062C01D1012802E0A1
:1023B000162C06D111280CBF4020432038BD4020E8
:1023C00038BD432038BD000008B50C4B01221A70FF
:1023D000FFF716FF38B10A480021FFF7FBFE4FF464
:1023E000DC60FFF79FFAFFF70BFF10B91620FFF72D
:1023F000AAFFBDE80840FFF771BF00BFB908001091
:102400001C08001008B5034B1B780BB9FFF7DCFF65
:10241000012008BDB908001038B5174B1B784BB127
:10242000FFF7EEFE054608B1002038BDFFF73EFF7E
:1024300018B9F9E7FFF7E6FF012572B6FFF74EFF7F
:102440000820802107220123FFF7E9FD8C20FFF7F8
:1024500069FA0024230602D4FFF7D2FE20B162B647
:102460003DB1FFF75FFF04E00120FFF797FD044651
:10247000F0E7C4F3801038BDB908001008B50E208D
:102480000C21FFF7ABFD2C20F02104220123FFF7E4
:10249000C6FD012205232C200E21FFF7C0FD80215F
:1024A0002F20FFF79BFD0620FFF778FD01462D202A
:1024B000FFF794FD0420012320210522FFF7AFFD43
:1024C000BDE808400020FFF7CFBE0000014B1878A0
:1024D000704700BF3608001010B50446FFF7FEFE37
:1024E000044B08201C701F2123460022BDE8104029
:1024F000FFF795BD3608001038B5204B00241C703E
:1025000083F8824083F804411D4B1E4D1C701E4B06
:10251000284621461C70FFF75DFE214605F1180094
:10252000FFF758FE0620FFF7FDF928460121FFF7C7
:1025300051FE21460E20FFF751FD0F20FFF72EFD23
:10254000224603231F210220FFF769FD4FF4FF708D
:10255000FFF7E8F91D20FFF721FD1E20FFF71EFD04
:10256000FFF78CFF2146094800F090FCFFF72CFF95
:102570001A20FFF7B1FF012038BD00BFBB080010D3
:10258000BA0800100408001037080010EC00001012
:1025900070B506460D462220F1B21446FFF71EFD27
:1025A0002320C6F30721FFF719FD2020E9B2FFF72A
:1025B00015FD2120C5F30721FFF710FD0CB321788D
:1025C0002B20FFF70BFD61782A20FFF707FDA1788C
:1025D0002920FFF703FDE1782820FFF7FFFC217990
:1025E0002720FFF7FBFC61792620FFF7F7FCA17994
:1025F0002520FFF7F3FCE1792420BDE87040FFF7C8
:10260000EDBC70BD08B5034800F058FC024B01203A
:10261000187008BDEC000010340800102DE9F843D4
:10262000274F4FF082093E78264B09FB06F69A5D4C
:1026300003EB060C98460024002A3DD0150604D46E
:10264000022A02D9951E8D4202DD9C55254634E0B2
:102650000CF1010107F09BFD3B781B4E09FB03F9D0
:102660000133DBB2022B08EB090292F8802094BF01
:102670003B703C703B7832708222534308F809402B
:1026800018F8033013B1FFF7BDFF01E00F4A1370D4
:102690000720FFF783FC0E4B0E4A18701378014693
:1026A0000BB1984200D21170042006F04FFF317830
:1026B000032006F04BFF00E015462846BDE8F883EE
:1026C000BA080010BB080010410A001034080010BE
:1026D00035080010420A001010B503880446D3B133
:1026E00040F22B52934203D000230380032010BDFD
:1026F000822913D106F0CCFE72B606F063FE80216B
:10270000FFF78CFF62B6002805DD80B206F054FEAC
:10271000034B1B69984740F22B532380012010BDC7
:1027200074FB0000FFF7A0BD08B5FFF769FD024686
:1027300028B905200F21BDE80840FFF767BC10202D
:1027400008BD000038B50446FFF75AFD50B12E48C9
:102750000021FFF73FFD2D4807F0A6FE4FF4DC6097
:10276000FFF7E0F8FFF7BAFDFFF74AFD10B91920AF
:10277000FFF7E9FD062006F0F1FE50B1FFF7D4FFA8
:102780000546062006F0EAFE0138C0B2FFF76CFDF0
:1027900000E0054672B61C480121FFF71BFD1A48F0
:1027A0000021FFF717FDA11C1948C9B2FFF788FCEB
:1027B00062B6FFF793FD0220E0210522FFF726FC19
:1027C0000446062006F0CAFE10B1E8B2FFF74CFD41
:1027D000104B1B7813B1FFF7F7FD01E0FFF788FD01
:1027E000012C04D80C2006F0B9FE00240AE0032CCA
:1027F00005D0052C05D0072C08BF012402E00224D7
:1028000000E00324204638BD1C0800100DFB00002A
:1028100038080010B908001010B50C46FFF7C8FCC6
:1028200020B92046BDE81040FFF78CBF10BD000066
:1028300008B50C4B1A6801321A601A684FF47A73A3
:10284000B2FBF3F103FB11231BB9074B1A680132EA
:102850001A6000F0D9F918B1BDE8084000F040B99D
:1028600008BD00BF880A0010440A001010B5074CCC
:10287000074904F12000FEF776FC20464FF47A72F7
:102880000023BDE81040FEF78ABD00BF480A0010D3
:1028900031280000034B19681A689142FAD1186870
:1028A000704700BF880A0010014B1868704700BFCE
:1028B000440A001010B5094C2046FEF79DFD084B58
:1028C0002046002140F8203BFEF748FC2046054901
:1028D000054ABDE8104007F041B800BF480A0010A3
:1028E00058F9000071130000C80000107047000084
:1028F00010B501234FF080442361064B186800098E
:102900000CF0E6FA4FF081410CF03AFB0CF088FC39
:10291000606010BDDC00001003224FF080431A708D
:1029200070474FF08043AA221A7255221A727047DC
:1029300010B5041F54F8040F18B1002100F0A6FAD6
:10294000F8E710BDF8B50388054616462BB14A2BAB
:1029500015D0002303800320F8BD174806F0B9FE08
:1029600004462CB1201DA16800F02AF92468F8E77C
:10297000124B01221A704A232B800120F8BD8829AE
:10298000FBD10D4806F0A5FE0446002CF3D0231D14
:102990009E420ED10848214606F0A4FE084B62690B
:1029A0001F681A60A2691E460AB1E0699047376045
:1029B000E1E72468E9E700BF8C0A0010900A0010E4
:1029C000A40A001010B5064B002406481C7006F03F
:1029D0007DFE21460448BDE8104000F057BA00BF14
:1029E000900A00108C0A0010FC00001070B504461C
:1029F0000C4DE3610C4B2E681B786661A26133B10C
:102A00000A4B201D2B6000F0DBF82E6000E0A16077
:102A10002146074806F066FE21460548BDE870409D
:102A200006F074BEA40A0010900A0010FC0000100A
:102A30008C0A001070B50B4B04461B783BB10A4D55
:102A40000A4B2E6804302B6000F0C3F82E6021463C
:102A5000074806F047FE21460548BDE8704006F0ED
:102A600055BE00BF900A0010A40A0010FC00001020
:102A70008C0A001010B5084B04461B781BB10430BB
:102A800000F0CAF801E0C360036121460348BDE8D5
:102A9000104006F027BE00BF900A00108C0A0010FC
:102AA00010B50D4C236813B90C4A136010BDFFF725
:102AB000F1FE236893E806000A44121A9B683BB1B2
:102AC00093E812002144091A8A4228BF0A46F5E712
:102AD000024B1044186010BD940A0010980A0010B0
:102AE000014800F0EBB900BF0C010010F8B50388F5
:102AF00005462BB1592B09D0002303800320F8BDD4
:102B00001E4A136059232B800120F8BD872920D04D
:102B10008229F7D1194F00263C68002CF2D02046BC
:102B200000F013FA90B1E0688821224600F082F9A3
:102B300050B9E060A3680EB1B36000E03B600023D1
:102B4000A360FFF7ADFFE5E7FFF7CAFF2646A468DD
:102B5000E3E70A490B680BB90B60D3E7D8689042EA
:102B600001D19B68F7E70B6099680029CAD0C86853
:102B700090420ABF89680B469960F5E7940A0010F5
:102B800010B50446FFF7ACFFE3680B4A4BB113687E
:102B90003BB1A34203D1094A1268DA6007E09B689F
:102BA000F6E7064B1B68E36013681460A360BDE89A
:102BB0001040FFF775BF00BF940A0010A40A001070
:102BC00010B5044600F0AFF92046BDE81040FFF70D
:102BD000D7BF10B5044600F0ADF92046BDE810405F
:102BE000FFF7CEBF10B5044600F0A9F92046BDE8B6
:102BF0001040FFF7C5BFC068D0F1010038BF00200A
:102C0000704705C810447047024B1868003018BF61
:102C100001207047940A001010B50B4A044613684F
:102C2000984206D18368136008E09A68A24203D0F4
:102C30001346002BF9D103E0A2689A60FFF730FF3A
:102C40000023A360E36010BD940A001038B58368C8
:102C500004460D469BB10A4804600220A07304F1AB
:102C60000C0098470238012801D9832D05D1204650
:102C70002146BDE8384000F00BB80123A37338BDEE
:102C8000A40A0010837BDB0701D5FFF7DFBF704785
:102C90002DE9F8431D4A1E4E1568376804468946DB
:102CA0002B469046A34204D00BB11B68FAE7BDE85F
:102CB000F88344B3A37BABB10023A37345B1AC420B
:102CC00004D0284687212246FFF7DCFF2D68F5E770
:102CD000A3683BB14C4505D0346004F10C0083215E
:102CE0002A469847D8F800309C4209D12268074B01
:102CF00000E022681A6005E01A68A242F9D0134683
:102D0000002BF9D13760BDE8F88300BFAC0A001092
:102D1000A40A001010B5094B00221A70084B1C6859
:102D20005CB1E37B3BB101230022A373E273204635
:102D30008221FFF78BFF2468F2E710BDA00A001084
:102D4000AC0A0010024B1878421C1A70704700BF82
:102D5000380C0010064B8A221A70064A00231370A2
:102D6000054A1370054A1360054A1360704700BF97
:102D7000380C00109C0A00109E0A0010AC0A0010CB
:102D8000A40A00102DE9F843214E33780BB1FFF768
:102D9000C1FF204D2C78002C35D0DFF890C00C23DB
:102DA0009CF800801C4A03FB08F3D018D15C1B4F31
:102DB00042681B4B8068DFF8789008F1010808F042
:102DC0001F08013C8CF8008039701A60C9F80000B7
:102DD0002C70984688B9134C134B1B6823602368EA
:102DE0008BB133780BB1FFF795FF20683978D8F8AD
:102DF0000020FFF747FF2368EFE7812904BF012385
:102E00008373FFF73FFF337828781844BDE8F883D1
:102E1000A00A00109E0A0010B00A00109D0A0010BF
:102E2000340C0010300C0010AC0A00109C0A00108A
:102E3000A80A0010F0B50C4C2378202B11D00B4DB4
:102E40000B4F2E780B4D1E4406F01F062E700C25DE
:102E50006E430133BD19B9552370A8606A60002024
:102E6000F0BD0120F0BD00BF9E0A00109C0A0010BA
:102E7000B00A00109F0A001038B5034C2568FFF710
:102E800001FF256038BD00BFA40A001030B50A4D0F
:102E90000A462C68234683420DD00BB11B68FAE723
:102EA00048B1046001212860817383818121BDE8DC
:102EB0003040FFF7E1BF30BDAC0A001038B1837B72
:102EC000013B012B03D8024A0123C37313707047DF
:102ED000A00A0010FFF70ABD10B541600446FFF7D5
:102EE000E3FC206010BD000010B50446FFF7DCFCD9
:102EF00094E80C001344034AC01A90428CBF00208F
:102F0000012010BDFEFFFF7F10B590E818001C44A3
:102F1000FFF7CAFC201A10BD10B50446FFF7C4FC29
:102F20002368C01A10BD10B541600446FFF7B2FC1B
:102F3000206010BD90E80C0013440360704710B58A
:102F40000446FFF7A7FC206010BD10B50446FFF74C
:102F5000A1FC2368C3F101030344606898422CBFBD
:102F60000020012010BD7F2806DD7F2904DC01F54B
:102F70008071081A10280AE0884205DD401A0F28DF
:102F8000CCBF00200120704705DA081A7028D4BF92
:102F900000200120704700207047000038B50C4623
:102FA000054650B18169A14207D0044806F0A8F94E
:102FB0000248214606F09AF9AC6138BD1C010010A8
:102FC00038B510220D460021044607F004F92A7D89
:102FD000294607322046D20807F0D9F82046024990
:102FE000BDE8384003F0C8BCF521001030B50C46F0
:102FF00085B00546B0B159B1037D0A7D9A4207D12B
:10300000D20807F0B5F818B96A7D637D9A4217D0E7
:1030100068462946FFF7D4FF684603F0C9FB08B1AC
:1030200003F088FC64B121466846FFF7C9FF684693
:1030300003F0BEFB014618B96846012203F014FCF8
:1030400005B030BD08B503F083F803F079F8BDE8AA
:1030500008400146014806F019B900BF1C010010E4
:103060000148024906F040B81C010010C9330000B5
:1030700008B50146034806F04DF9BDE8084003F0E5
:103080008BB800BF1C0100102DE9F043802A87B0E7
:1030900005468946904690F8387028D800F12404F7
:1030A0005FB123466A4600F13C0E1868596816461F
:1030B00003C6083373453246F7D10021102220465B
:1030C00007F089F808F1070220464946D20807F0C0
:1030D0005EF8402385F8388085F839300FB93846D6
:1030E00000E068462146FFF781FF012000E0002054
:1030F00007B0BDE8F08338B50446D0F888000D4627
:1031000020B103F047FA0023C4F888306DB194F879
:103110009330B4F89C102846594303F073FAC4F86E
:103120008800003018BF012038BDD4F8880008B1ED
:1031300003F030FA012038BD38B5094C054694F843
:103140008D1059B920464FF4827207F044F80123DC
:1031500084F88C5084F88D30204638BD002038BD6E
:10316000D00D001038B5054610460C4603F016F891
:10317000014660B1064805F0FDFF40B14560638A35
:103180000381637E03734FF4A063438138BD38BD70
:103190001C01001010B504460846FFF753FF18B194
:1031A0004368A34218BF002010BD10B5044608466E
:1031B000FFF748FF034638B1426832B1106AA042B7
:1031C0000CBF1846002010BD10BD104610BD0000F9
:1031D00070B50646104805F0B3FF00240546A5B1BA
:1031E0002A894FF6FF739A4209D03CB1336A2046D0
:1031F0009B6829469B689847044600E02C46294670
:10320000054805F085FF0546E9E71CB13046214633
:10321000FFF7C4FE204670BD1C0100102DE9F041EF
:10322000C468B0F89A30A28B05469A420E46A76948
:103230002BD04868FFF7CCFF716838B1A14224D089
:10324000AB682046DB68984704461CE0A1421CD1CD
:1032500005F1100605F188080446464513D2737D32
:103260007BB1B3696BB11A894FF6FF739A4208D0EC
:1032700034B1AB682046DB6831469847044600E02D
:1032800034463C36E9E7002C49D0E868A0421AD021
:1032900001F0FCFB94F83930E86803F0400303F0D8
:1032A000FF011BB1243004F1240104E090F839300F
:1032B0005B0602D52430FFF799FE0123A375EB6866
:1032C00000229A75EC60AB6828465B699847AB684A
:1032D000A0691B6900219847A08317B1218A884201
:1032E00001D220821EE04FF6FF7398420CD0236A71
:1032F000B3F89820B2B1B3F89A300A44B0FBF3F0B7
:1033000092FBF3F398420DDDE8680021FFF746FEDB
:1033100095F88F301BB13846002101F075F8002078
:10332000BDE8F081A069B8421ED0FFF7A1FE0146BA
:103330002846FFF7E0FE95F88F3093B11FB138466D
:10334000002101F061F895F88E30284613F0800FC7
:1033500003F1010308BF03F07F0385F88E3001F00D
:1033600051FB284601F040FB2046BDE8F08138B50E
:1033700044680546A369984200D0C3B9204600219D
:10338000FFF70CFE4FF6FF73A383A37D7BB1236A87
:10339000D3F8880028B103F0FDF8236A0022C3F8AF
:1033A000882028460021BDE8384001F02DB838BDFE
:1033B00010B50446FFF7DBFF21460248BDE8104088
:1033C00005F07EBF1C010010FFF7F2BF38B50546BF
:1033D000084805F0B5FE044650B163689D4202D12D
:1033E0002046FFF7E5FF2146024805F091FEF2E78F
:1033F00038BD00BF1C01001038B5837D04467BB189
:103400000025857501F042FB94F839305B0604D540
:1034100004F124002946FFF7E9FD2046FFF7D6FF17
:103420000023637538BD000070B5044600F1100537
:1034300000F18806B54206D26B7D13B12846FFF72E
:10344000DBFF3C35F6E700212046FFF754FE04F190
:10345000A400FFF70FFB04F1C400FFF70BFB054AC4
:103460001368A3424FF0000308BF136084F88D3047
:1034700070BD00BF3C0C001070B5836904469A42D1
:103480000E46154612D10021FFF788FD4FF6FF7357
:10349000A383A37D93B1236AD3F8880070B103F0AE
:1034A00079F8236A0022C3F8882007E0837D2BB1D6
:1034B0001046FFF7DDFD214601F0F7FA6E6070BDA2
:1034C000044B93F88D0020B1D868837D002B08BF92
:1034D00000207047D00D0010064B93F88D2032B1BC
:1034E00093F88C2082420CBF18460020704710468B
:1034F000704700BFD00D001070B50E46FFF7ECFF0F
:103500000446B8B190F8253000F110052BB12846DB
:103510003146102206F02CFE50B194F8610004F1FF
:103520004C0548B128463146102206F021FE10B95C
:10353000284670BD70BD002070BD08B5FFF7CCFFF8
:10354000F0B1C368B0F89A20998B914217D19A7C58
:1035500012F0800F02F1010208BF02F07F029A749C
:1035600090F88E3013F0800F03F1010308BF03F0D1
:103570007F0380F88E3001F037FA012008BD00206B
:1035800008BD38B50446FFF7A7FF054620B9204619
:10359000FFF7D2FD0546D8B105F1100405F1880307
:1035A0009C4210D2617D61B920463C2206F013FE98
:1035B000012363754FF6FF73A383238225622046A0
:1035C00038BD3C34ECE72846FFF72EFF002038BD1D
:1035D00038BD0000034B1A8B82420CBF18460020F6
:1035E000704700BF600100102DE9F8438146087E56
:1035F0000D46FFF7C6FF0646002800F082802946E8
:103600004A46046AFFF7AEFD074618B984F88D00F4
:10361000BDE8F8836B7E0373288AFFF7DBFF8046E3
:1036200030B93846FFF7C4FE84F88D80BDE8F883D2
:1036300095F851305B0604D5002005F13C01FFF7F9
:10364000D5FC0123B375AB7D05F1100133752B7DDE
:10365000F374EB7DB374C4F808806B7DE66084F886
:103660008F30F02384F88E302B8CA4F898306B8C3C
:10367000A4F89A30AB7E84F89030EA7E134484F844
:10368000912084F894302B7F324684F892306B7FFF
:1036900084F89330EB8BA4F89C302B4653F8040B42
:1036A0008B4242F8040BF9D105F13C0306F12402E8
:1036B000543553F8041BAB4242F8041BF9D1394688
:1036C0003046FFF76BFCA36820465B699847A36808
:1036D00038461B69002198470B4BB0831A6830822B
:1036E00002B91C60204601F07FF920464946FFF7E9
:1036F00002FD94F88F3023B12046BDE8F84301F075
:1037000081B9BDE8F88300BF3C0C0010F8B506464F
:1037100008B300F110040227637D43B9013F04F1AF
:103720003C04F9D13046BDE8F84001F05DB94FF6F0
:10373000FF73A383084805F003FD05460028EDD07C
:103740006B689C4202D12846FFF711FE29460248C9
:1037500005F0DEFCF1E7F8BD1C01001070B50C4669
:10376000064620894FF6FF73984249681BD00B6AC2
:10377000B3F898204AB1098AB3F89A300A44B0FBEA
:10378000F3F092FBF3F398420DDC0125214630461D
:10379000FFF744FD044620B93046FFF7B7FF204647
:1037A00070BD284670BD2046FFF7E1FDF3689B69B8
:1037B0009C4201D0002070BD0025E7E72DE9F041D3
:1037C0000646087E0C46FFF7DCFE0546002873D04F
:1037D000076A3046FFF736FC20B1D0F80480B8F114
:1037E000000F09D1324628462146FFF7BBFC0646AA
:1037F00068B96875BDE8F08131464046FFF7CAFCFC
:10380000064620B1404629463246FFF735FE208A5B
:10381000FFF7E0FEBB68834218D197F88F20637DE5
:103820009A4213D1D7F89820236A9A420ED1B7F85A
:103830009020638B9A4209D1B7F89220A38B9A42C9
:1038400004D1B7F89C20E38B9A4206D03046FFF7AC
:10385000AFFD00236B75BDE8F08101236B75237DFF
:103860002A46EB74A37D04F110012B75E37DAB7444
:10387000234653F8040B8B4242F8040BF9D104F1B0
:103880003C0305F1240204F1540153F8040B8B426C
:1038900042F8040BF9D128463146FFF77FFBBB689D
:1038A00000211B69304698473146A8832882384654
:1038B000FFF754FF637E3373BDE8F08110B50B480A
:1038C00005F03EFC044680B163684BB11A6A3AB118
:1038D000627B2AB100226273186A2146FFF73EFF1D
:1038E0002146024805F014FCECE710BD1C01001055
:1038F0002DE9F8434B7D8046022B0E4640F01281A5
:103900000D7E2846FFF7F8FD04462846FFF7E4FD44
:103910000546002C63D0002862D0F77D94F8129001
:1039200038464946FFF71FFB00284CD0A28BB5F85C
:103930009A309A4209D1A77417F0800F07F1010756
:1039400008BF07F07F07A77444E096F8502042B103
:1039500096F85130590604D5204606F13C01FFF790
:1039600093FB2046FFF732FDF37D2046A374236AC4
:103970009B681B6898474FF6FF732382236A204693
:1039800093F88E20314612F0800F02F1010208BF39
:1039900002F07F0283F88E204246FFF7E3FB0546E4
:1039A00020B94FF6FF73A383BDE8F883236A002193
:1039B0009B681B699847A08320822946206ABDE83E
:1039C000F843FFF7CBBE48463946FFF7CCFA68B15B
:1039D000A37D5BB12846BDE8F84301F005B828B9DE
:1039E00040463146BDE8F843FFF7FEBDEB68B5F849
:1039F0009A20998B914203D1A34240F0938006E034
:103A00002CB940463146BDE8F843FFF7D7BE738A6C
:103A10009342C0F087804FF6FF72934204D1A37D9A
:103A200013B1284600F0E0FF96F8502042B196F816
:103A300051305B0604D5204606F13C01FFF724FB1C
:103A4000A28BB5F89A309A420BD1728A4FF6FF7367
:103A50009A4267D095F89630013385F89630BDE8E4
:103A6000F88320464146FFF795FB0746E8B94046F4
:103A7000FFF7E8FA20B1D0F80490B9F1000F08D1AF
:103A8000204631464246FFF76DFB0746D0B9BDE8F8
:103A9000F88348464146FFF77DFB074690B148460C
:103AA00021463A46FFF7E8FC0CE0738A02899A4205
:103AB00007D1A37D33B195F89630013385F8963060
:103AC00000E0038128463946FFF748FE50B3A37D46
:103AD00023B3A3699F4221D195F88F30B3B1EB682E
:103AE0009B699F4212D1707E397BFFF73CFA68B127
:103AF00095F88E3013F0800F03F1010301D103F02C
:103B00007F0385F88E30284600F07CFF95F89330CF
:103B1000B5F89C104046594302F074FD737E3B7328
:103B2000BDE8F883BDE8F8830146014805F0DEBB37
:103B30001C010010F8B5254F254D3B78064628336B
:103B400003442B445A78042A01D00120F8BDD878C8
:103B5000FFF7C2FC04460028F7D03A7828323244F6
:103B60002A44937803F0200199B105F1180002F07E
:103B70000DFC28B102F036FC94F88C00FFF7DDFC58
:103B80003B7828331E443544AB7823F02003AB70D8
:103B900016E0C168887D0028D7D09088898B88423C
:103BA0002CBF00200120190601D508B108E060B142
:103BB00003F0400101F0FF0021B1204600F014FFA6
:103BC0000020F8BD43F040039370F8BDF4210010CD
:103BD000802300102DE9F84F3C4C3D4D94F806B081
:103BE0004FF000082E782F4685F80080BBF1000FBB
:103BF00012D194F82930002B65D194F82D00FFF7ED
:103C00006BFC002860D090F88D30002B5CD0C2682F
:103C1000937D83BBBDE8F88FDFF8B8A040F2D453A2
:103C2000BAF8009099454EDC04F12805A9F1280264
:103C300004F13000294606F0B3FA6323C4F8288063
:103C400084F82A30042384F82B30637909F10809B9
:103C500003F10802D2B29A42C4F82C8084F828B04A
:103C600084F80680AAF80090627102D223790133A9
:103C70002371083624E029782A310B19095D63295C
:103C800021D1928B04F118009A8093F90230002B15
:103C900009DA02F07BFB98B92B782A331C44A3780D
:103CA00043F020030BE002F071FB2B782A331C4415
:103CB000A37810B903F07F0301E063F07F03A370E2
:103CC0003E70BDE8F88F2E70BDE8F88F802300109D
:103CD000F4210010FE210010F8B51D4A1D4B0146CD
:103CE000907900271E781D461F70144658BB92F825
:103CF00029200AB11E70F8BD94F82A30632B22D116
:103D0000E38D03BB144A13681746F3B193F88D2073
:103D1000DAB1D868827DC2B1FFF73CFA18B14368C6
:103D20009B69984204D02B788022234483F82C206E
:103D30002B782E702A331C443B6893F88C20E27059
:103D4000DB689B8BA3800020F8BD0120F8BD00BF7D
:103D500080230010F42100103C0C001070B5114CB1
:103D6000114DA07900232E782B7010B12E701846BB
:103D700070BD94F82A30632B11D194F82C3094F84C
:103D80002D0023F07F0383F0800384F82C30FFF7AD
:103D9000A3FBC3682E709B8B0820E38570BD2E703B
:103DA00070BD00BF80230010F4210010064B1B687B
:103DB00043B1064B1A78064B2A32D35C632B01D1F0
:103DC000FFF708BF704700BF3C0C0010F421001043
:103DD000802300104318DA78415C987842EA016247
:103DE000597842EA014242EA00207047130E4354D8
:103DF0000144130C4B70130A8B70CA707047425CFD
:103E00000844407840EA02207047130A43540844AB
:103E100042707047014B00221A807047FE2100104B
:103E20002DE9F04F9DB000215C2205A806F0D3F9E2
:103E300008238DF82E300C238DF82F300A238DF8AF
:103E400030304FF48073ADF836304FF4E063ADF8A6
:103E500034308C4B01AE1B8BADF82430FF238DF832
:103E600031304FF6FF73ADF83230874B0FCB86E819
:103E70000F00304602F06CF9044678B9182005F0BE
:103E80007FFB224601460123304602F029F9002833
:103E900000F0F48010301E21FFF71EF87B4F7C4BA2
:103EA00097F800801B787B4AC3EB08082C339C18DA
:103EB000D35C20468DF82C30637802218DF82B30AE
:103EC000FFF79DFF2379A8F12C0823F07F028DF8DE
:103ED0002820C3F3C20203F007038DF82A30637968
:103EE0005FFA88F88DF82D30ADF826008DF829207E
:103EF00004F1080305AD04F1180CB94618685968B7
:103F00002A4603C2083363451546F7D118254545AF
:103F100080F2AD80635D1BB162195778023700E013
:103F2000012707EB050AC24500F3A880023B062BD8
:103F300000F29B80DFE803F00433529999997D00E9
:103F4000052F40F39B8063199A78291D8DF868200E
:103F5000D878615C4000C0B240EAD1108DF86900A9
:103F6000C1F3011001F00F018DF86A008DF86B109C
:103F700059798DF86C10002A77D0072A06D120468F
:103F8000A91DFFF73CFFADF86E006EE0022A75D167
:103F90009A798DF86E20DB798DF86F3065E0082F07
:103FA0006CDD631993F802B020468DF84CB0DB78D5
:103FB000291D8DF84D30FFF70DFF0BF10702D210D0
:103FC000D31DBB42129059DABBF1800F56D805F1D0
:103FD00008010EA8214406F0DAF846E0102F4DD172
:103FE0006719FB78A91D8DF82E303B7920468DF896
:103FF0002F307B798DF83030FFF701FF05F1080194
:10400000ADF834002046FFF7FAFE05F10A01ADF8DD
:1040100036002046FFF7F3FEADF824007B7B2046F8
:1040200005F10E018DF83130FFF7E9FEADF83200F1
:104030001BE0202F22D163199A7805F108018DF831
:104040006420DB7820468DF86530FFF7C3FE10351D
:104050002544189014AA05F11007286869681346CA
:1040600003C30835BD421A46F7D155464FE73046DF
:1040700005A9FFF73DFC0023A9F800301DB0BDE8FD
:10408000F08F00BF6001001088230010FE21001097
:10409000F4210010802300101FB5124B124A1B7828
:1040A00000212C339C186170D154A0B940F2FF2339
:1040B000ADF800304FF4D053ADF80200ADF8040075
:1040C000ADF80600ADF80800ADF80A00ADF80C0038
:1040D000ADF80E3068469B210022022302F070FFEB
:1040E00004B010BDF4210010802300102DE9F04F22
:1040F0007D4B7E4A1B78894690F88C10C7682C331C
:10410000D1549C18BB7C054663700221BA8B85B0E4
:104110002046FFF77AFE00232371FB7C07F1100194
:10412000002B18BF8023237195F88F2043EAC20328
:10413000DBB223713A7D02F007021343237195F835
:104140008E3004F10802637195F88E3013F0800F01
:1041500003F1010308BF03F07F0385F88E300023CD
:10416000A371E3713B4653F8040B8B4242F8040BF6
:10417000F9D12B784BB3AB6828465B699847062387
:104180000222227663762B78A3766B785B08E3763F
:104190006B78DB012377A97843EA0113E9780B43B5
:1041A00023772B78072B06D1627720461E21EA88D9
:1041B000FFF72BFE07E0022B40F093806377AB798B
:1041C000A377EB79E377202600E0182604EB0608B6
:1041D0000E234FF0000A4FF0040B04F806B088F8E5
:1041E000013088F802A095F89030204688F8033016
:1041F00095F89130B11D88F8043095F8923088F820
:104200000530B5F89820FFF700FE204606F10801BA
:10421000B5F89A20FFF7F9FDAB6820461A8B06F136
:104220000A01FFF7F2FD88F80CA095F893302046BC
:1042300088F80D30B5F89C2006F10E01FFF7E5FD7A
:1042400097F8382006F110036AB30822E2541E23BF
:1042500088F8113097F83830204688F8123097F8EF
:10426000393006F1140188F813307A6BFFF7BEFD80
:1042700020467A6B06F11801FFF7B8FD06F11C0025
:1042800020445A46514605F0A6FF06F1200207F1E8
:1042900024031444343753F8042BBB4244F8042B52
:1042A000F9D106F13003B9F1000F15D140F2FF2228
:1042B000ADF800204FF4D052ADF80290ADF8049064
:1042C000ADF80690ADF80890ADF80A90ADF80C90F6
:1042D000ADF80E20684600E048469B21012202F01E
:1042E0006FFE05B0BDE8F08FF421001080230010B0
:1042F00008B5094890F88D30012B09D107490B7E8C
:10430000FF2B03D00831FFF7F1FE01E000F06CFB5A
:10431000034B00221A8008BDD00D0010802300102E
:10432000FE2100102DE9F04104460E46174600F02C
:104330006DFB01285FD0002C5DD0606800285AD04A
:10434000016A002957D0002E55D02C4D2C4B95F8E2
:1043500000E01A7891F88C10DFF8A8C02C321EF01B
:10436000800F0EF1010E02EB0C030CF8021008BFD7
:104370000EF07F0E402285F800E05A7000229A70FD
:104380002A78191DDA7000F1100250F8045B90428F
:1043900041F8045BF9D105221A7512225A750022E0
:1043A0009A758022DA75314603F1180006F1100281
:1043B00051F8045B914240F8045BF9D106220021D8
:1043C00083F82820042283F8292083F82A1083F810
:1043D0002B1083F82C1083F82D702046FEF748FE32
:1043E00048B12046FEF744FEBDE8F0419B21022281
:1043F0002E2302F0E5BDBDE8F08100BF38010010BA
:10440000F421001080230010F0B5164B0A4685B049
:104410000646002419461D7E93F82A00DDB10128C6
:1044200019D8987EFE2813D001EB441404F11A0326
:104430006D4604F12A07186859682C4603C40833EE
:10444000BB422546F7D130466946FFF76BFF07E0D0
:10445000D87E8028E8D10134042C03F12003DAD17E
:1044600005B0F0BD101F001030B50A4B90F88C005D
:104470001C78094D2C3463192855002058709A7007
:10448000D8700322084604239B21BDE8304002F087
:1044900097BD00BFF4210010802300102DE9F04FDC
:1044A000844D8FB006AC05F108030FCB84E80F00F4
:1044B000814B824A1B78128803932C33E85C5F1986
:1044C0000592FFF709F80646002800F0EF8090F803
:1044D00093207B780192FA78590602930492C5687A
:1044E0000AD52846391D102205F042FE002840F06A
:1044F000DD804FF0140A01E04FF0040A9DF8182007
:10450000FF2A40F0B4804FF0020800244FF0000969
:10451000059B039AC2EB030BABF12C0B5FFA8BFBF1
:10452000DA4524DA17F80A10E9B107EB0A0292F823
:1045300001B005290BF1020B04D0062915D15279DF
:10454000019212E092F803900AA80021102205F0CF
:1045500042FE09F107020AF104010AA83944D2080F
:1045600005F015FE01E04FF0010BDA44D0E70AA890
:1045700001F00CFF019B0746002B35D1002800F00D
:10458000958090F82130002B40F0908090F82430F6
:104590004B4540F08B8001F0E1FE002800F0868062
:1045A000384601F0DBFE06A9102205F0E1FD0028E7
:1045B0007CD1012387F821303C23BB61A86950B12D
:1045C000FEF756FD38B1A869FEF752FD9B21022285
:1045D0005B4602F0F5FC029A120667D5304606A942
:1045E000049AFFF741FF61E006A801F0B1FD07461C
:1045F00070B9182004F0C4FF3A460146012306A80A
:1046000001F06EFD002851D010301E21FEF764FC31
:104610002046FFF789FA28460AA94A4606AB00F069
:104620005FFA002842D0B6F89C30019AB8F1010F29
:1046300003FB02F380F82080836114D1A86950B194
:10464000FEF716FD38B1A869FEF712FD9B21022284
:104650005B4602F0B5FC029B1B0604D5304606A95A
:10466000049AFFF701FF154B00221A801EE0214635
:104670002846FEF78FFD0446A8B1B6F89A20218996
:10468000A88BB1FBF2F1B0FBF2F291424FF00108BE
:1046900003D3AA6994427FF439AF4FF6FF732381A5
:1046A00084F80D8002E04FF001082FE70FB0BDE85D
:1046B000F08F00BF80230010F4210010FE210010B5
:1046C00008B5074802F0D2FB064802F0CFFB0648C7
:1046D00002F0CCFBBDE80840044802F0C7BB00BFB5
:1046E0003C01001054010010480100102C01001082
:1046F0007047438911B9120292B203E002290AD12C
:104700004FF420625A214B430A2101FB02326421FB
:10471000B2FBF1F24281704718B969B14FF4A0635E
:1047200002E0438901B90189C1F57F42FF329A4213
:1047300002DB194488B270474FF6FF7070470023C0
:1047400003707047C37CCA7C9A4203D0002B08BF19
:1047500008467047027D0B7D9A4202D006D8084673
:104760007047828B8B8B9A4228BF0846704730B5C2
:1047700003465C891A8940681444A4B221B14D896A
:104780000A892A4492B201E04FF4C8428069834208
:1047900001D0814207D102F18005AC4203DAA2F1D7
:1047A0008005AC4203DC94422CBF0846184630BD5D
:1047B00070B590F89460012505FA06F64FF47A7307
:1047C0005E43B6FBF3F6C0F8A0600446EE4005F089
:1047D00009F870434FF6FF73B0FBF3F1D4F8A03043
:1047E00031445B1AC4F8A030002384F8963084F872
:1047F000955004F1A4002346024ABDE87040FEF73C
:10480000F5B800BF8148000010B50B4C00F004F96A
:10481000FFF754F8238801332380FEF751FE28B9AF
:1048200022883B2A02D92080FFF736FCBDE81040E1
:104830000248FEF7FFB800BFF40E0010D40E0010BF
:1048400010B5044600F0E2F8012816D0B4F89C2018
:104850004FF6FF739A4210D094F89330FF2B0CD090
:1048600053434FF47A71594304F1E4002346490855
:10487000024ABDE81040FEF7B9B810BD5549000026
:1048800070B51D4D04462B785BB9012001F0A6FFE1
:1048900010B101232B7004E004F1A4004FF47A71ED
:1048A00013E094F89530B3B194F8962094F89230D0
:1048B0009A4203D220460021FFF718FC0023D4F8C7
:1048C000A01084F8953004F1A40023460B4ABDE8FB
:1048D0007040FEF78BB894F8911094F8902094F8FB
:1048E00094300A449342BCBF013384F8943020468C
:1048F000BDE87040FFF75CBFF60E00108148000075
:1049000070B505460C4600F081F801281ED005F16F
:10491000C8063046FEF775F93046FEF76CF9A8B1C7
:1049200044B104F05FFFB0FBF4F101FB140000EBB5
:10493000540100E0214605F1C4002B46044AFEF76D
:1049400055F82846BDE87040FFF77ABF70BD00BF3C
:104950005549000070B5144B04461B7800F1C4059E
:1049600063B9012001F03AFF40B9284623464FF4CD
:104970007A710E4ABDE87040FEF738B8E36898696E
:1049800018B194F89310FFF73FFD2846FEF772F830
:1049900004F1E800FEF72FF920B12046BDE8704091
:1049A000FFF74EBF70BD00BFF60E00105549000066
:1049B00010B504F017FF3C2358434FF6FF72B0FBCD
:1049C000F2F3064A1933138005484FF47A71054A09
:1049D0000023BDE81040FEF709B800BFF40E001038
:1049E000D40E00100948000090F8912090F894101F
:1049F000914206D9002180F8961080F89420FFF7A4
:104A0000D7BE70474FF47A61FFF77ABF014B187831
:104A1000704700BFF70E00107FB501F0ADFC30B15C
:104A200083690BB1013B836101F0ACFCF7E701F056
:104A3000A3FC034633B39A6902BB03F108026D4637
:104A400003F11806106851682C4603C40832B242BC
:104A50002546F7D1184601F0C5FC01F08DFC0A4A45
:104A600003461168CA68B1F89A10908B8842E1D069
:104A7000906969460022FFF755FC03E0184601F0F3
:104A800081FCD6E704B070BD3C0C001010B50446A4
:104A900001F072FC40B1C369A34202D101F0A2FC53
:104AA000F6E701F06FFCF5E710BD70B505460E4660
:104AB00001F062FC044690B1204601F04FFC29460B
:104AC000102205F055FB30B9E369B34203D120460B
:104AD00001F088FCECE7204601F054FCEAE770BDE9
:104AE00010B504460846D1B21A4601F0E1FC50B1B7
:104AF000C461236A93F89320B3F89C3053438361D5
:104B0000002380F8203010BDF0B5044685B048F28F
:104B1000FE030F462146144CADF8003068460023D2
:104B20001646ADF80230ADF80430ADF80630ADF8F9
:104B30000830ADF80A30ADF80C30ADF80E3001F0A9
:104B40001BFF94F88D50012D0BD120466946FEF7CE
:104B50002CFB30B14573A3685B6813B1394632460C
:104B6000984705B0F0BD00BFD00D001010B501464C
:104B7000064890F88D40012C06D1FEF716FB18B1BF
:104B80004FF6FF730381447310BD00BFD00D0010BA
:104B90001FB5134B00241C60FEF762FAFFF708FFF5
:104BA000FFF78EFD40F2FF23ADF8003068464FF46A
:104BB000D053ADF80E30ADF80240ADF80440ADF87A
:104BC0000640ADF80840ADF80A40ADF80C4001F0E1
:104BD00025FE044B20461B68984704B010BD00BF5B
:104BE0003C0C00106001001008B5024B1B6A98478E
:104BF00008BD00BF24FB00000020704770B590B0D6
:104C00003C2204460D4601A8002105F0E4FA0123E8
:104C10000C208DF8043004F0A1FC314A00238DF8FB
:104C200008308DF80A3013788DF80700591C8DF87C
:104C30000C3003264AF6CD33192011708DF80B6025
:104C4000ADF80E3004F09CFC264904F0B4F940B1F4
:104C500002238DF80930FF238DF810308DF81130C4
:104C600008E0192004F08CFC014604A804F09EF929
:104C70008DF809604AF6CD331B490DF11A00ADF8E5
:104C8000183004F093F904F09DFB0E9004F0C0FB83
:104C90000F9001A800F0D6F8C6B2304604F0CCFB65
:104CA000E0B104F099FB3246014601A800F0E0F8BB
:104CB00004F092FB064604F0B1FB0C4B0146DB68A6
:104CC0003046984702464CB120B1012806D128460B
:104CD000042102E0114628460122A04710B070BD11
:104CE000F80E001013FC0000E835001024FB000053
:104CF00038B504460D4642B1506804F0B3FC204676
:104D00002946BDE83840FFF779BF38BD30B591B0CE
:104D100004F07EFB01AC054604F054FB2946224614
:104D200000F01EF9002836D00F98281A04F030FB46
:104D300088B39DF8093043B90DF11A01182004F029
:104D400013FC164BDB68984725E0BDF80E204AF6A9
:104D5000CD318A4203D04FF6FF718A421BD1022B1C
:104D600014BF10230A23234404336FF00B02121BD9
:104D70001A44002AE0DD13F8012DFF2AF5D004A91A
:104D8000192004F0F1FB192004F0FAFB044904F0A7
:104D900012F90028D0D111B030BD00BF9CFB00003B
:104DA000E835001008B504F01DFD034B1870034BE7
:104DB0001B6A984708BD00BFF80E001024FB0000D6
:104DC00008B5034B08B11B6A00E05B6A984708BD51
:104DD00024FB000038B5052204460D460846002194
:104DE00005F0F9F9637998071CBF02232B70E3796A
:104DF00099071CBF0223AB7063799A070BD0E37944
:104E00009B0708D0A28A63899A4204D101232371A7
:104E10000023AB7001E000232371637903F00303E7
:104E2000022B03D0032B0CBF082300236B70E37904
:104E300003F00303022B03D0032B0CBF0823002332
:104E4000EB7038BD07B56946FFF7C4FF9DF8000059
:104E50009DF80130033018449DF8023018449DF845
:104E6000033018449DF80430184403B05DF804FB87
:104E70002DE9F7430D46694690460446FFF7AAFF21
:104E80009DF800309DF801709DF802C0DA1C9DF875
:104E900003603A4462449DF8049032444A444245D7
:104EA0003846314657DCA27894F8019002F00102AE
:104EB000120109F0010942EAC909227894F8038035
:104EC00002F0070249EA0209227908F0010849EADA
:104ED000481802F0010248EA82122A70A27994F876
:104EE000058002F0030208F00308120142EA88027A
:104EF00094F80780022B42EA88126A70227AAA701C
:104F000006D163890522EB7063891B0A2B7100E0CF
:104F10000322D319DBB2C0EB03085FFA88F828B18B
:104F2000013823181B7B05F80830F2E7BCF1020FAB
:104F300008D1A08A5A1CE854A08A0233D2B2DBB24C
:104F4000000AA8549819C0B2421AD2B221B101394C
:104F50006018807DF5E7002003B0BDE8F083000015
:104F600002292DE9F0470646894614467EDD03787E
:104F7000427803F007012170C3F3C001C3F3801A24
:104F8000C2F3810897096170C2F30112C3F30011E3
:104F9000C3F34013A170E37084F804A084F8058083
:104FA000A271E77183782372B8F1000F21D00279E2
:104FB000C378B8F1020F03EB0223638100F105050A
:104FC0000AD104F10C002B4903F0F0FFB379F51D71
:104FD00023737379637314E0B8F1030F11D10723BE
:104FE000E95CE21A13F1FF33D174F9D206F10D0531
:104FF00007E0C51C1F4904F10C0003F0D7FFA4F81B
:105000000A8017B3BAF1000F05D16A7815F8023B90
:1050100003EB022300E06389022FA3820AD104F18B
:105020001600144903F0C2FF6B78A37515F8023B14
:10503000E37510E0032F0ED10723E95CE21A13F1A8
:10504000FF335177F9D2083505E004F1160009491C
:1050500003F0ACFFA782AE1BC6EB0903A363656335
:105060004E45D4BF30460020BDE8F0870020BDE8A3
:10507000F08700BF13FC000030B591B004F0C8F910
:1050800001AD044604F09EF921462A46FFF768FF69
:1050900010B94FF0FF3037E00F98201A04F078F97C
:1050A0000028F6D09DF80930EBB1BDF80E204AF685
:1050B000CD318A4203D04FF6FF718A42E9D1022BEB
:1050C00014BF10230A232B4404336FF00B02521B2E
:1050D0001A44002A07DD13F8012DFF2AF5D0192004
:1050E00004A904F041FA0DF11A01182004F03CFA69
:1050F0009DF80610122004F029FA0D209DF80C10DE
:1051000004F024FA0F98201A11B030BD10B590B0F9
:105110003C2201A8002105F05EF83F4B1A782AB91D
:1051200001221A7004F05EFB3C4B1870012300242E
:1051300012208DF804308DF8054004F00FFA8DF838
:105140000600192004F01CFA354903F034FF10B1B1
:105150008DF8074004E00B2004F000FA8DF80700FA
:1051600000230A208DF808308DF80A3004F0F6F993
:1051700028B10A2004F0F2F98DF80C0008E0274B62
:105180000A2019784A1C1A708DF80C1004F0DEF908
:105190004AF6CD33032419208DF80B40ADF80E30BC
:1051A00004F0EEF91E4903F006FF40B102238DF82A
:1051B0000930FF238DF810308DF8113008E01920E8
:1051C00004F0DEF9014604A803F0F0FE8DF8094072
:1051D0004AF6CD3313490DF11A00ADF8183003F03B
:1051E000E5FE04F0EFF80E9004F012F90F9001A81C
:1051F000FFF728FE044604F01FF940B104F0ECF874
:105200002246014601A8FFF733FE204601E04FF099
:10521000FF3010B010BD00BFFA0E0010F90E0010E4
:1052200013FC0000E835001008B5024B9B68984756
:1052300008BD00BF74FB000008B5024B9B6898478F
:1052400008BD00BFD8FB000008B5024B5B6998475A
:1052500008BD00BF74FB000008B5024B9B6998476E
:1052600008BD00BF74FB00000020704770470000BD
:1052700008B5064803F07CFB054B01221A7000229A
:105280005A70AA229A70DA7008BD00BFB5530000A8
:105290001015001010B50F4C0220A17904F056F93A
:1052A000A3792246112B05D1138D518D9942A8BFA8
:1052B00019460AE0062BF7D03A2B05BF94F82810C0
:1052C00094F82930002143EA01210120BDE8104073
:1052D00004F03CB98023001010B513780C7A83F0E9
:1052E00002039C421DD14C7A53789C4219D18C7A8E
:1052F00093789C4215D1CC7AD3789C4211D10C7B07
:1053000013799C420DD14C7B53799C4209D18C7B03
:1053100093799C4205D1CC7BD3799C4201D1032364
:105320001BE00A890F4B6AB94A89B2F57F4F09D150
:105330008A89FE2A06D11A68C98922F8021B1A60D6
:1053400002230AE01A6851F8084F083242F8084C64
:105350004C6842F8044C1A60012303FA00F0C0B212
:1053600010BD00BF1C15001010B5084C0146237875
:10537000012B08D1A01C082204F0FAFE00280CBF63
:105380002046002010BD002010BD00BF10150010E9
:1053900008B50146192004F0E7F8044B04489B685F
:1053A00000219847BDE80840FDF7BBBA9CFB000010
:1053B000055A00002DE9F04F924F934E002385B01F
:1053C0003B703370044604F063F803F0FBFF8F4D2D
:1053D00004212860092004F0B9F88D4BAA461B6807
:1053E0000BB1FFF757FF8B4EB379062B0ED196F812
:1053F0003530DA0706D403F03F03102B06D00E2019
:10540000022101E00E20032104F0A0F802AB019379
:1054100014B91846804901E002A8214603F0C6FDF0
:10542000DAF800907D4C784909F1020323600B788B
:105430007B4803F1020B002309F80B30FFF794FFC0
:1054400018B97848FFF790FF20B109F103032360F2
:10545000802500E0054673783078190941EA00118B
:10546000C9B28A0842EA8111C9B213F00F0FCAB259
:10547000DFF8A88100F00F000ED1664F7F885FB97A
:1054800010B913F0F00F20D0D8F80030702703F8CF
:10549000012BC8F8003019E078B913F0F00F0CD1E7
:1054A000226821F03F010B4313705F4B03321B88CE
:1054B000682722F8023C226008E0236830686027F1
:1054C000186003F8042B236000E07827B279112AD2
:1054D00008BF47F004077B0705D4D8F8003003F86D
:1054E000012BC8F80030F379402B06D0FF2B07D0F2
:1054F000012B08D147F001070BE047F0020708E055
:1055000047F0030705E0D8F8002002F8013BC8F88F
:10551000002032893F4B8AB95A897AB99A896AB987
:10552000DA895AB91A8A4AB95A8A3AB99A8A2AB980
:10553000DB8A1BB945F04005EDB23BE03948FFF787
:1055400013FF3A4B186070B1427819F80B30042001
:1055500043EA021309F80B303249354AFFF7BCFE23
:1055600060F03F0011E0328948F2FE039A42294977
:105570000DD14B8B5BB98B8B4BB9CB8B3BB90420DB
:1055800008312B4AFFF7A8FE2843C5B212E0D8F82D
:1055900000C0DFF890E06246734603CB51602049BB
:1055A00010608B429E4602F10802F5D11B4B0CF1B4
:1055B00010021A60337E1749FF2B40F087804A7E25
:1055C00045F0080E022A5FFA8EFE33D14B8B8BBB5F
:1055D0008B8B7BBBCB8B6BBB0B8C5BBB4B8C4BBB79
:1055E0008B8C3BBB91F8263023BBD8F8003091F868
:1055F000272045F00B0503F8012BEDB2C8F8003069
:105600009FE000BF00150010081500100C150010D9
:10561000000F00108023001013FC00001C15001068
:10562000982300108823001082230010080F001018
:10563000F5210010718BA34B002931D1998B79BBD7
:10564000D98B69BB198CA1B9598C91B993F82410E5
:1056500079B9216845F00A05084600F8012B33F8AE
:10566000252F043121F8032C9B78EDB28370216043
:1056700067E0338C93489BB990F8223083B9236854
:1056800045F00905194601F8012B024652F8230F8F
:10569000063343F8050C1279EDB20A71236050E02D
:1056A000894A8A4DD2F800C005F1100862462B469F
:1056B00003CB4345106051601D4602F10802F6D14C
:1056C00081490CF110030B6075463AE001F11800B6
:1056D0000091FFF749FE7E4A1060009950B143786F
:1056E00019F80B2045F004051343EDB209F80B300F
:1056F00000200AE00A8B48F2FE039A420CD14B8B41
:1057000053B98B8B43B9CB8B33B9183102AAFFF74E
:10571000E3FD2843C5B214E06B4ADFF8B0E1D2F8EC
:1057200000C00EF110086246734603CB434510607B
:1057300051609E4602F10802F6D1634B0CF1100253
:105740001A60644928230B70B3795E4A112B51D13A
:10575000118D4FF2B00349BA89B221F00F0080B227
:10576000984216D1538D5BBA23F00F031B041B0C18
:1057700083420ED12368F3211970518D128D090ACD
:10578000120A01EB021202F5AA625A700233236078
:1057900027E0728D4B4B52BA02F47F42B2F5704F44
:1057A00009D12268F1211170198DA2F801105B8DC9
:1057B0001B0AD3700CE001F47F41B1F5704F2268F1
:1057C00008D1F2211170198D090A51705B8D538037
:1057D000043205E0F0211170986A053242F8040C99
:1057E00022603D4B1A88236823F8022B394A236034
:1057F000302313703949DAF800300A789F541A447C
:1058000055702268364DD31A0B7003F041FE02A981
:10581000192003F0A9FE334B1B68984730EA200893
:1058200028BF4FF0150803F033FE0421092003F0D0
:105830008DFE284A294B177893F800902A88C8F1E2
:10584000660BD21BC9EB0B018A4240F3BB80DAF82E
:1058500000404A462146201D04F0A2FC2A88224925
:105860006FEA82426FEA9242C2F3072222702A88CC
:1058700009F1040662700A88F6B2E270100A013279
:10588000104B0A80C6EB0B0B14492BF0070BDFF80B
:105890005C90A0700E705A46D919A019C9F800B0D2
:1058A000009304F074FC06EB0B0080B203F084FD5F
:1058B00003F080FE009B83461E464C46C0B9002084
:1058C00091E000BF802300101C15001098230010E9
:1058D000080F001000150010AE230010081500106E
:1058E000FE21001094FB00000C0F0010200F001090
:1058F00002AF3846FFF74CFD584603F0B3FE58465A
:1059000003F090FE394A13689346012BD7D0043B2D
:10591000012BD4D9364BC8F161081A782368134497
:105920001FFA83F9334B05221A70334A11682A880B
:105930006FEAC2426FEAD242C2F307220A702A8893
:105940004A7028F0070222602C4A1288914549D2F9
:10595000DAF800104FEAD90008712168C9EB020299
:105960008A42B8BF2649DAF80000B8BF0A60214968
:10597000256891F800802A4606EB0901404404F0AE
:1059800006FC08EB050080B203F016FD03F012FEE2
:105990000546002893D03846FFF7FAFC284603F066
:1059A00061FE284603F03EFE154A126809EB020329
:1059B000DBF800201FFA83F9012A80D0043A012A7B
:1059C000C2D87CE7DAF80000F119484404F0DFFBA4
:1059D0002E8809EB0603D81B80B203F0EDFC02A869
:1059E000FFF7D6FC012005B0BDE8F08F20150010B0
:1059F00000150010081500100C150010FE210010F5
:105A0000200F001010B508460C46114600F0D0FBE0
:105A1000044B1B6813B19B6820469847024B1C60DF
:105A200010BD00BF000F0010201500102DE9F0413F
:105A3000140902F00F050F2C08BF10240F2D064685
:105A40001F4608BF102514B1224604F0A0FB6219BE
:105A50000F2A05DC30190021C2F1100204F0BBFB53
:105A6000BDB1DFF84080C5F11000D8F800703044B7
:105A700039462A4604F08BFB022D434605D10A2CF9
:105A800003D8FF22F272FE2232733D441D60BDE84E
:105A9000F0812CB130463946BDE8F04100F06CBFD2
:105AA000BDE8F0811C1500102DE9F04FA54FA64C64
:105AB00087B000263E70267003F084FCA34DB946E3
:105AC0002860042003F04AFDA14B00B21860A148F1
:105AD000FDF73BFADFF8A8B218B19F4BABF80060B6
